{
  "contractName": "GuestBook",
  "abi": [
    {
      "inputs": [
        {
          "internalType": "address payable",
          "name": "_spouse1Address",
          "type": "address"
        },
        {
          "internalType": "address payable",
          "name": "_spouse2Address",
          "type": "address"
        }
      ],
      "payable": false,
      "stateMutability": "nonpayable",
      "type": "constructor"
    },
    {
      "anonymous": false,
      "inputs": [
        {
          "indexed": false,
          "internalType": "uint256",
          "name": "timestamp",
          "type": "uint256"
        },
        {
          "indexed": false,
          "internalType": "address",
          "name": "wallet",
          "type": "address"
        },
        {
          "indexed": false,
          "internalType": "address",
          "name": "from",
          "type": "address"
        }
      ],
      "name": "GuestInvited",
      "type": "event"
    },
    {
      "anonymous": false,
      "inputs": [
        {
          "indexed": false,
          "internalType": "uint256",
          "name": "timestamp",
          "type": "uint256"
        },
        {
          "indexed": false,
          "internalType": "address",
          "name": "wallet",
          "type": "address"
        },
        {
          "indexed": false,
          "internalType": "string",
          "name": "name",
          "type": "string"
        },
        {
          "indexed": false,
          "internalType": "string",
          "name": "message",
          "type": "string"
        }
      ],
      "name": "GuestbookSignatureAdded",
      "type": "event"
    },
    {
      "constant": true,
      "inputs": [],
      "name": "owner",
      "outputs": [
        {
          "internalType": "address",
          "name": "",
          "type": "address"
        }
      ],
      "payable": false,
      "stateMutability": "view",
      "type": "function"
    },
    {
      "constant": true,
      "inputs": [],
      "name": "spouse1Address",
      "outputs": [
        {
          "internalType": "address payable",
          "name": "",
          "type": "address"
        }
      ],
      "payable": false,
      "stateMutability": "view",
      "type": "function"
    },
    {
      "constant": true,
      "inputs": [],
      "name": "spouse2Address",
      "outputs": [
        {
          "internalType": "address payable",
          "name": "",
          "type": "address"
        }
      ],
      "payable": false,
      "stateMutability": "view",
      "type": "function"
    },
    {
      "constant": false,
      "inputs": [
        {
          "internalType": "address",
          "name": "_owner",
          "type": "address"
        }
      ],
      "name": "setContractOwner",
      "outputs": [],
      "payable": false,
      "stateMutability": "nonpayable",
      "type": "function"
    },
    {
      "constant": false,
      "inputs": [
        {
          "internalType": "address payable",
          "name": "_to",
          "type": "address"
        }
      ],
      "name": "sendInvitation",
      "outputs": [],
      "payable": false,
      "stateMutability": "nonpayable",
      "type": "function"
    },
    {
      "constant": false,
      "inputs": [
        {
          "internalType": "string",
          "name": "name",
          "type": "string"
        },
        {
          "internalType": "string",
          "name": "message",
          "type": "string"
        }
      ],
      "name": "signGuestBook",
      "outputs": [],
      "payable": false,
      "stateMutability": "nonpayable",
      "type": "function"
    },
    {
      "constant": true,
      "inputs": [],
      "name": "getGuestBookEntries",
      "outputs": [
        {
          "components": [
            {
              "internalType": "address",
              "name": "sender",
              "type": "address"
            },
            {
              "internalType": "string",
              "name": "name",
              "type": "string"
            },
            {
              "internalType": "string",
              "name": "message",
              "type": "string"
            }
          ],
          "internalType": "struct GuestBook.GuestBookEntry[]",
          "name": "",
          "type": "tuple[]"
        }
      ],
      "payable": false,
      "stateMutability": "view",
      "type": "function"
    },
    {
      "constant": false,
      "inputs": [],
      "name": "sendWitnessTokens",
      "outputs": [],
      "payable": false,
      "stateMutability": "nonpayable",
      "type": "function"
    },
    {
      "constant": true,
      "inputs": [],
      "name": "getWitnessTokenAddress",
      "outputs": [
        {
          "internalType": "address",
          "name": "",
          "type": "address"
        }
      ],
      "payable": false,
      "stateMutability": "view",
      "type": "function"
    },
    {
      "constant": true,
      "inputs": [],
      "name": "getInvitationTokenAddress",
      "outputs": [
        {
          "internalType": "address",
          "name": "",
          "type": "address"
        }
      ],
      "payable": false,
      "stateMutability": "view",
      "type": "function"
    }
  ],
  "bytecode": "0x60806040526040516200001290620004f2565b604051809103906000f0801580156200002f573d6000803e3d6000fd5b50600560006101000a81548173ffffffffffffffffffffffffffffffffffffffff021916908373ffffffffffffffffffffffffffffffffffffffff1602179055506040516200007e9062000500565b604051809103906000f0801580156200009b573d6000803e3d6000fd5b50600660006101000a81548173ffffffffffffffffffffffffffffffffffffffff021916908373ffffffffffffffffffffffffffffffffffffffff160217905550348015620000e957600080fd5b50604051620048023803806200480283398181016040526200010f919081019062000525565b600073ffffffffffffffffffffffffffffffffffffffff168273ffffffffffffffffffffffffffffffffffffffff16141562000182576040517f08c379a00000000000000000000000000000000000000000000000000000000081526004016200017990620006c0565b60405180910390fd5b600073ffffffffffffffffffffffffffffffffffffffff168173ffffffffffffffffffffffffffffffffffffffff161415620001f5576040517f08c379a0000000000000000000000000000000000000000000000000000000008152600401620001ec906200069e565b60405180910390fd5b8073ffffffffffffffffffffffffffffffffffffffff168273ffffffffffffffffffffffffffffffffffffffff16141562000267576040517f08c379a00000000000000000000000000000000000000000000000000000000081526004016200025e90620006e2565b60405180910390fd5b816000806101000a81548173ffffffffffffffffffffffffffffffffffffffff021916908373ffffffffffffffffffffffffffffffffffffffff1602179055506001600460008060009054906101000a900473ffffffffffffffffffffffffffffffffffffffff1673ffffffffffffffffffffffffffffffffffffffff1673ffffffffffffffffffffffffffffffffffffffff16815260200190815260200160002060006101000a81548160ff02191690831515021790555060036000809054906101000a900473ffffffffffffffffffffffffffffffffffffffff1690806001815401808255809150509060018203906000526020600020016000909192909190916101000a81548173ffffffffffffffffffffffffffffffffffffffff021916908373ffffffffffffffffffffffffffffffffffffffff1602179055505080600160006101000a81548173ffffffffffffffffffffffffffffffffffffffff021916908373ffffffffffffffffffffffffffffffffffffffff160217905550600160046000600160009054906101000a900473ffffffffffffffffffffffffffffffffffffffff1673ffffffffffffffffffffffffffffffffffffffff1673ffffffffffffffffffffffffffffffffffffffff16815260200190815260200160002060006101000a81548160ff0219169083151502179055506003600160009054906101000a900473ffffffffffffffffffffffffffffffffffffffff1690806001815401808255809150509060018203906000526020600020016000909192909190916101000a81548173ffffffffffffffffffffffffffffffffffffffff021916908373ffffffffffffffffffffffffffffffffffffffff16021790555050505062000763565b6114db8062001e4c83390190565b6114db806200332783390190565b6000815190506200051f8162000749565b92915050565b600080604083850312156200053957600080fd5b600062000549858286016200050e565b92505060206200055c858286016200050e565b9150509250929050565b60006200057560218362000704565b91507f53706f757365322061646472657373206d757374206e6f74206265207a65726f60008301527f21000000000000000000000000000000000000000000000000000000000000006020830152604082019050919050565b6000620005dd60218362000704565b91507f53706f757365312061646472657373206d757374206e6f74206265207a65726f60008301527f21000000000000000000000000000000000000000000000000000000000000006020830152604082019050919050565b600062000645602f8362000704565b91507f53706f757365312061646472657373206d757374206e6f7420657175616c205360008301527f706f7573653220616464726573732100000000000000000000000000000000006020830152604082019050919050565b60006020820190508181036000830152620006b98162000566565b9050919050565b60006020820190508181036000830152620006db81620005ce565b9050919050565b60006020820190508181036000830152620006fd8162000636565b9050919050565b600082825260208201905092915050565b6000620007228262000729565b9050919050565b600073ffffffffffffffffffffffffffffffffffffffff82169050919050565b620007548162000715565b81146200076057600080fd5b50565b6116d980620007736000396000f3fe608060405234801561001057600080fd5b506004361061009e5760003560e01c80639463c955116100665780639463c95514610137578063a34d42b814610155578063aebdc8aa14610171578063d3e9504e1461018f578063e07e030e146101995761009e565b80630d780012146100a35780632e14772a146100c1578063569ad3db146100dd57806389089c58146100fb5780638da5cb5b14610119575b600080fd5b6100ab6101b5565b6040516100b891906112a7565b60405180910390f35b6100db60048036036100d69190810190610f26565b6101df565b005b6100e561039a565b6040516100f291906112c2565b60405180910390f35b6101036103bf565b60405161011091906112c2565b60405180910390f35b6101216103e5565b60405161012e91906112a7565b60405180910390f35b61013f61040b565b60405161014c919061132f565b60405180910390f35b61016f600480360361016a9190810190610eab565b610604565b005b6101796106d9565b60405161018691906112a7565b60405180910390f35b610197610703565b005b6101b360048036036101ae9190810190610ed4565b610952565b005b6000600660009054906101000a900473ffffffffffffffffffffffffffffffffffffffff16905090565b600460003373ffffffffffffffffffffffffffffffffffffffff1673ffffffffffffffffffffffffffffffffffffffff16815260200190815260200160002060009054906101000a900460ff1661026b576040517f08c379a0000000000000000000000000000000000000000000000000000000008152600401610262906113b1565b60405180910390fd5b610273610d27565b60405180606001604052803373ffffffffffffffffffffffffffffffffffffffff1681526020018481526020018381525090506007819080600181540180825580915050906001820390600052602060002090600302016000909192909190915060008201518160000160006101000a81548173ffffffffffffffffffffffffffffffffffffffff021916908373ffffffffffffffffffffffffffffffffffffffff1602179055506020820151816001019080519060200190610337929190610d5e565b506040820151816002019080519060200190610354929190610d5e565b505050507f1454b16ac9f7a8edb66fbb64d56a2fc00a3e08f079f3ee97591b601b51c5e1174233858560405161038d9493929190611428565b60405180910390a1505050565b6000809054906101000a900473ffffffffffffffffffffffffffffffffffffffff1681565b600160009054906101000a900473ffffffffffffffffffffffffffffffffffffffff1681565b600260009054906101000a900473ffffffffffffffffffffffffffffffffffffffff1681565b60606007805480602002602001604051908101604052809291908181526020016000905b828210156105fb57838290600052602060002090600302016040518060600160405290816000820160009054906101000a900473ffffffffffffffffffffffffffffffffffffffff1673ffffffffffffffffffffffffffffffffffffffff1673ffffffffffffffffffffffffffffffffffffffff168152602001600182018054600181600116156101000203166002900480601f0160208091040260200160405190810160405280929190818152602001828054600181600116156101000203166002900480156105415780601f1061051657610100808354040283529160200191610541565b820191906000526020600020905b81548152906001019060200180831161052457829003601f168201915b50505050508152602001600282018054600181600116156101000203166002900480601f0160208091040260200160405190810160405280929190818152602001828054600181600116156101000203166002900480156105e35780601f106105b8576101008083540402835291602001916105e3565b820191906000526020600020905b8154815290600101906020018083116105c657829003601f168201915b5050505050815250508152602001906001019061042f565b50505050905090565b600073ffffffffffffffffffffffffffffffffffffffff16600260009054906101000a900473ffffffffffffffffffffffffffffffffffffffff1673ffffffffffffffffffffffffffffffffffffffff1614610695576040517f08c379a000000000000000000000000000000000000000000000000000000000815260040161068c90611371565b60405180910390fd5b80600260006101000a81548173ffffffffffffffffffffffffffffffffffffffff021916908373ffffffffffffffffffffffffffffffffffffffff16021790555050565b6000600560009054906101000a900473ffffffffffffffffffffffffffffffffffffffff16905090565b600260009054906101000a900473ffffffffffffffffffffffffffffffffffffffff1673ffffffffffffffffffffffffffffffffffffffff163373ffffffffffffffffffffffffffffffffffffffff1614610793576040517f08c379a000000000000000000000000000000000000000000000000000000000815260040161078a90611391565b60405180910390fd5b60008090505b60038054905081101561094f576000600660009054906101000a900473ffffffffffffffffffffffffffffffffffffffff1673ffffffffffffffffffffffffffffffffffffffff166370a08231306040518263ffffffff1660e01b815260040161080391906112a7565b60206040518083038186803b15801561081b57600080fd5b505afa15801561082f573d6000803e3d6000fd5b505050506040513d601f19601f820116820180604052506108539190810190610f92565b111561094257600660009054906101000a900473ffffffffffffffffffffffffffffffffffffffff1673ffffffffffffffffffffffffffffffffffffffff1663a9059cbb600383815481106108a457fe5b9060005260206000200160009054906101000a900473ffffffffffffffffffffffffffffffffffffffff1660016040518363ffffffff1660e01b81526004016108ee929190611306565b602060405180830381600087803b15801561090857600080fd5b505af115801561091c573d6000803e3d6000fd5b505050506040513d601f19601f820116820180604052506109409190810190610efd565b505b8080600101915050610799565b50565b6000809054906101000a900473ffffffffffffffffffffffffffffffffffffffff1673ffffffffffffffffffffffffffffffffffffffff163373ffffffffffffffffffffffffffffffffffffffff1614806109fa5750600160009054906101000a900473ffffffffffffffffffffffffffffffffffffffff1673ffffffffffffffffffffffffffffffffffffffff163373ffffffffffffffffffffffffffffffffffffffff16145b610a39576040517f08c379a0000000000000000000000000000000000000000000000000000000008152600401610a3090611351565b60405180910390fd5b600460008273ffffffffffffffffffffffffffffffffffffffff1673ffffffffffffffffffffffffffffffffffffffff16815260200190815260200160002060009054906101000a900460ff1615610ac6576040517f08c379a0000000000000000000000000000000000000000000000000000000008152600401610abd906113d1565b60405180910390fd5b6000600560009054906101000a900473ffffffffffffffffffffffffffffffffffffffff1673ffffffffffffffffffffffffffffffffffffffff166370a08231306040518263ffffffff1660e01b8152600401610b2391906112a7565b60206040518083038186803b158015610b3b57600080fd5b505afa158015610b4f573d6000803e3d6000fd5b505050506040513d601f19601f82011682018060405250610b739190810190610f92565b1115610d2457600560009054906101000a900473ffffffffffffffffffffffffffffffffffffffff1673ffffffffffffffffffffffffffffffffffffffff1663a9059cbb8260016040518363ffffffff1660e01b8152600401610bd79291906112dd565b602060405180830381600087803b158015610bf157600080fd5b505af1158015610c05573d6000803e3d6000fd5b505050506040513d601f19601f82011682018060405250610c299190810190610efd565b506001600460008373ffffffffffffffffffffffffffffffffffffffff1673ffffffffffffffffffffffffffffffffffffffff16815260200190815260200160002060006101000a81548160ff02191690831515021790555060038190806001815401808255809150509060018203906000526020600020016000909192909190916101000a81548173ffffffffffffffffffffffffffffffffffffffff021916908373ffffffffffffffffffffffffffffffffffffffff160217905550507fcda5e488ef236fd04b9cdd224afb5f6cfb016639716b0aff73cf01e3902411c4428233604051610d1b939291906113f1565b60405180910390a15b50565b6040518060600160405280600073ffffffffffffffffffffffffffffffffffffffff16815260200160608152602001606081525090565b828054600181600116156101000203166002900490600052602060002090601f016020900481019282601f10610d9f57805160ff1916838001178555610dcd565b82800160010185558215610dcd579182015b82811115610dcc578251825591602001919060010190610db1565b5b509050610dda9190610dde565b5090565b610e0091905b80821115610dfc576000816000905550600101610de4565b5090565b90565b600081359050610e128161163a565b92915050565b600081359050610e2781611651565b92915050565b600081519050610e3c81611668565b92915050565b600082601f830112610e5357600080fd5b8135610e66610e61826114a8565b61147b565b91508082526020830160208301858383011115610e8257600080fd5b610e8d8382846115e7565b50505092915050565b600081519050610ea58161167f565b92915050565b600060208284031215610ebd57600080fd5b6000610ecb84828501610e03565b91505092915050565b600060208284031215610ee657600080fd5b6000610ef484828501610e18565b91505092915050565b600060208284031215610f0f57600080fd5b6000610f1d84828501610e2d565b91505092915050565b60008060408385031215610f3957600080fd5b600083013567ffffffffffffffff811115610f5357600080fd5b610f5f85828601610e42565b925050602083013567ffffffffffffffff811115610f7c57600080fd5b610f8885828601610e42565b9150509250929050565b600060208284031215610fa457600080fd5b6000610fb284828501610e96565b91505092915050565b6000610fc78383611241565b905092915050565b610fd88161159f565b82525050565b610fe781611557565b82525050565b610ff681611545565b82525050565b61100581611545565b82525050565b6000611016826114e4565b6110208185611512565b935083602082028501611032856114d4565b8060005b8581101561106e578484038952815161104f8582610fbb565b945061105a83611505565b925060208a01995050600181019050611036565b50829750879550505050505092915050565b611089816115b1565b82525050565b600061109a826114fa565b6110a48185611534565b93506110b48185602086016115f6565b6110bd81611629565b840191505092915050565b60006110d3826114ef565b6110dd8185611523565b93506110ed8185602086016115f6565b6110f681611629565b840191505092915050565b600061110e601783611534565b91507f53656e646572206973206e6f7420612073706f757365210000000000000000006000830152602082019050919050565b600061114e601183611534565b91507f4f776e657220616c7265616479207365740000000000000000000000000000006000830152602082019050919050565b600061118e601d83611534565b91507f53656e646572206973206e6f7420636f6e7472616374206f776e6572210000006000830152602082019050919050565b60006111ce601683611534565b91507f53656e646572206973206e6f7420696e766974656421000000000000000000006000830152602082019050919050565b600061120e602083611534565b91507f506572736f6e2068617320616c7265616479206265656e20696e7669746564216000830152602082019050919050565b60006060830160008301516112596000860182610fed565b506020830151848203602086015261127182826110c8565b9150506040830151848203604086015261128b82826110c8565b9150508091505092915050565b6112a181611595565b82525050565b60006020820190506112bc6000830184610ffc565b92915050565b60006020820190506112d76000830184610fde565b92915050565b60006040820190506112f26000830185610fcf565b6112ff6020830184611080565b9392505050565b600060408201905061131b6000830185610ffc565b6113286020830184611080565b9392505050565b60006020820190508181036000830152611349818461100b565b905092915050565b6000602082019050818103600083015261136a81611101565b9050919050565b6000602082019050818103600083015261138a81611141565b9050919050565b600060208201905081810360008301526113aa81611181565b9050919050565b600060208201905081810360008301526113ca816111c1565b9050919050565b600060208201905081810360008301526113ea81611201565b9050919050565b60006060820190506114066000830186611298565b6114136020830185610fcf565b6114206040830184610fcf565b949350505050565b600060808201905061143d6000830187611298565b61144a6020830186610fcf565b818103604083015261145c818561108f565b90508181036060830152611470818461108f565b905095945050505050565b6000604051905081810181811067ffffffffffffffff8211171561149e57600080fd5b8060405250919050565b600067ffffffffffffffff8211156114bf57600080fd5b601f19601f8301169050602081019050919050565b6000819050602082019050919050565b600081519050919050565b600081519050919050565b600081519050919050565b6000602082019050919050565b600082825260208201905092915050565b600082825260208201905092915050565b600082825260208201905092915050565b600061155082611575565b9050919050565b600061156282611575565b9050919050565b60008115159050919050565b600073ffffffffffffffffffffffffffffffffffffffff82169050919050565b6000819050919050565b60006115aa826115c3565b9050919050565b60006115bc82611595565b9050919050565b60006115ce826115d5565b9050919050565b60006115e082611575565b9050919050565b82818337600083830152505050565b60005b838110156116145780820151818401526020810190506115f9565b83811115611623576000848401525b50505050565b6000601f19601f8301169050919050565b61164381611545565b811461164e57600080fd5b50565b61165a81611557565b811461166557600080fd5b50565b61167181611569565b811461167c57600080fd5b50565b61168881611595565b811461169357600080fd5b5056fea365627a7a723158206eb38ba14d4341dc3c9da82b0da1d7267f40ebbe309d9dcbcf221f474f50199f6c6578706572696d656e74616cf564736f6c6343000510004060806040523480156200001157600080fd5b506040518060400160405280601181526020017f57656464696e67496e7669746174696f6e0000000000000000000000000000008152506040518060400160405280600681526020017f494e56495445000000000000000000000000000000000000000000000000000081525060008260039080519060200190620000989291906200033c565b508160049080519060200190620000b19291906200033c565b5080600560006101000a81548160ff021916908360ff160217905550505050620000e3336064620000e960201b60201c565b620003eb565b600073ffffffffffffffffffffffffffffffffffffffff168273ffffffffffffffffffffffffffffffffffffffff1614156200018d576040517f08c379a000000000000000000000000000000000000000000000000000000000815260040180806020018281038252601f8152602001807f45524332303a206d696e7420746f20746865207a65726f20616464726573730081525060200191505060405180910390fd5b620001a981600254620002b360201b62000f221790919060201c565b60028190555062000207816000808573ffffffffffffffffffffffffffffffffffffffff1673ffffffffffffffffffffffffffffffffffffffff16815260200190815260200160002054620002b360201b62000f221790919060201c565b6000808473ffffffffffffffffffffffffffffffffffffffff1673ffffffffffffffffffffffffffffffffffffffff168152602001908152602001600020819055508173ffffffffffffffffffffffffffffffffffffffff16600073ffffffffffffffffffffffffffffffffffffffff167fddf252ad1be2c89b69c2b068fc378daa952ba7f163c4a11628f55a4df523b3ef836040518082815260200191505060405180910390a35050565b60008082840190508381101562000332576040517f08c379a000000000000000000000000000000000000000000000000000000000815260040180806020018281038252601b8152602001807f536166654d6174683a206164646974696f6e206f766572666c6f77000000000081525060200191505060405180910390fd5b8091505092915050565b828054600181600116156101000203166002900490600052602060002090601f016020900481019282601f106200037f57805160ff1916838001178555620003b0565b82800160010185558215620003b0579182015b82811115620003af57825182559160200191906001019062000392565b5b509050620003bf9190620003c3565b5090565b620003e891905b80821115620003e4576000816000905550600101620003ca565b5090565b90565b6110e080620003fb6000396000f3fe608060405234801561001057600080fd5b50600436106100a95760003560e01c80633950935111610071578063395093511461025f57806370a08231146102c557806395d89b411461031d578063a457c2d7146103a0578063a9059cbb14610406578063dd62ed3e1461046c576100a9565b806306fdde03146100ae578063095ea7b31461013157806318160ddd1461019757806323b872dd146101b5578063313ce5671461023b575b600080fd5b6100b66104e4565b6040518080602001828103825283818151815260200191508051906020019080838360005b838110156100f65780820151818401526020810190506100db565b50505050905090810190601f1680156101235780820380516001836020036101000a031916815260200191505b509250505060405180910390f35b61017d6004803603604081101561014757600080fd5b81019080803573ffffffffffffffffffffffffffffffffffffffff16906020019092919080359060200190929190505050610586565b604051808215151515815260200191505060405180910390f35b61019f6105a4565b6040518082815260200191505060405180910390f35b610221600480360360608110156101cb57600080fd5b81019080803573ffffffffffffffffffffffffffffffffffffffff169060200190929190803573ffffffffffffffffffffffffffffffffffffffff169060200190929190803590602001909291905050506105ae565b604051808215151515815260200191505060405180910390f35b610243610687565b604051808260ff1660ff16815260200191505060405180910390f35b6102ab6004803603604081101561027557600080fd5b81019080803573ffffffffffffffffffffffffffffffffffffffff1690602001909291908035906020019092919050505061069e565b604051808215151515815260200191505060405180910390f35b610307600480360360208110156102db57600080fd5b81019080803573ffffffffffffffffffffffffffffffffffffffff169060200190929190505050610751565b6040518082815260200191505060405180910390f35b610325610799565b6040518080602001828103825283818151815260200191508051906020019080838360005b8381101561036557808201518184015260208101905061034a565b50505050905090810190601f1680156103925780820380516001836020036101000a031916815260200191505b509250505060405180910390f35b6103ec600480360360408110156103b657600080fd5b81019080803573ffffffffffffffffffffffffffffffffffffffff1690602001909291908035906020019092919050505061083b565b604051808215151515815260200191505060405180910390f35b6104526004803603604081101561041c57600080fd5b81019080803573ffffffffffffffffffffffffffffffffffffffff16906020019092919080359060200190929190505050610908565b604051808215151515815260200191505060405180910390f35b6104ce6004803603604081101561048257600080fd5b81019080803573ffffffffffffffffffffffffffffffffffffffff169060200190929190803573ffffffffffffffffffffffffffffffffffffffff169060200190929190505050610926565b6040518082815260200191505060405180910390f35b606060038054600181600116156101000203166002900480601f01602080910402602001604051908101604052809291908181526020018280546001816001161561010002031660029004801561057c5780601f106105515761010080835404028352916020019161057c565b820191906000526020600020905b81548152906001019060200180831161055f57829003601f168201915b5050505050905090565b600061059a6105936109ad565b84846109b5565b6001905092915050565b6000600254905090565b60006105bb848484610bac565b61067c846105c76109ad565b6106778560405180606001604052806028815260200161101660289139600160008b73ffffffffffffffffffffffffffffffffffffffff1673ffffffffffffffffffffffffffffffffffffffff168152602001908152602001600020600061062d6109ad565b73ffffffffffffffffffffffffffffffffffffffff1673ffffffffffffffffffffffffffffffffffffffff16815260200190815260200160002054610e629092919063ffffffff16565b6109b5565b600190509392505050565b6000600560009054906101000a900460ff16905090565b60006107476106ab6109ad565b8461074285600160006106bc6109ad565b73ffffffffffffffffffffffffffffffffffffffff1673ffffffffffffffffffffffffffffffffffffffff16815260200190815260200160002060008973ffffffffffffffffffffffffffffffffffffffff1673ffffffffffffffffffffffffffffffffffffffff16815260200190815260200160002054610f2290919063ffffffff16565b6109b5565b6001905092915050565b60008060008373ffffffffffffffffffffffffffffffffffffffff1673ffffffffffffffffffffffffffffffffffffffff168152602001908152602001600020549050919050565b606060048054600181600116156101000203166002900480601f0160208091040260200160405190810160405280929190818152602001828054600181600116156101000203166002900480156108315780601f1061080657610100808354040283529160200191610831565b820191906000526020600020905b81548152906001019060200180831161081457829003601f168201915b5050505050905090565b60006108fe6108486109ad565b846108f98560405180606001604052806025815260200161108760259139600160006108726109ad565b73ffffffffffffffffffffffffffffffffffffffff1673ffffffffffffffffffffffffffffffffffffffff16815260200190815260200160002060008a73ffffffffffffffffffffffffffffffffffffffff1673ffffffffffffffffffffffffffffffffffffffff16815260200190815260200160002054610e629092919063ffffffff16565b6109b5565b6001905092915050565b600061091c6109156109ad565b8484610bac565b6001905092915050565b6000600160008473ffffffffffffffffffffffffffffffffffffffff1673ffffffffffffffffffffffffffffffffffffffff16815260200190815260200160002060008373ffffffffffffffffffffffffffffffffffffffff1673ffffffffffffffffffffffffffffffffffffffff16815260200190815260200160002054905092915050565b600033905090565b600073ffffffffffffffffffffffffffffffffffffffff168373ffffffffffffffffffffffffffffffffffffffff161415610a3b576040517f08c379a00000000000000000000000000000000000000000000000000000000081526004018080602001828103825260248152602001806110636024913960400191505060405180910390fd5b600073ffffffffffffffffffffffffffffffffffffffff168273ffffffffffffffffffffffffffffffffffffffff161415610ac1576040517f08c379a0000000000000000000000000000000000000000000000000000000008152600401808060200182810382526022815260200180610fce6022913960400191505060405180910390fd5b80600160008573ffffffffffffffffffffffffffffffffffffffff1673ffffffffffffffffffffffffffffffffffffffff16815260200190815260200160002060008473ffffffffffffffffffffffffffffffffffffffff1673ffffffffffffffffffffffffffffffffffffffff168152602001908152602001600020819055508173ffffffffffffffffffffffffffffffffffffffff168373ffffffffffffffffffffffffffffffffffffffff167f8c5be1e5ebec7d5bd14f71427d1e84f3dd0314c0f7b2291e5b200ac8c7c3b925836040518082815260200191505060405180910390a3505050565b600073ffffffffffffffffffffffffffffffffffffffff168373ffffffffffffffffffffffffffffffffffffffff161415610c32576040517f08c379a000000000000000000000000000000000000000000000000000000000815260040180806020018281038252602581526020018061103e6025913960400191505060405180910390fd5b600073ffffffffffffffffffffffffffffffffffffffff168273ffffffffffffffffffffffffffffffffffffffff161415610cb8576040517f08c379a0000000000000000000000000000000000000000000000000000000008152600401808060200182810382526023815260200180610fab6023913960400191505060405180910390fd5b610d2381604051806060016040528060268152602001610ff0602691396000808773ffffffffffffffffffffffffffffffffffffffff1673ffffffffffffffffffffffffffffffffffffffff16815260200190815260200160002054610e629092919063ffffffff16565b6000808573ffffffffffffffffffffffffffffffffffffffff1673ffffffffffffffffffffffffffffffffffffffff16815260200190815260200160002081905550610db6816000808573ffffffffffffffffffffffffffffffffffffffff1673ffffffffffffffffffffffffffffffffffffffff16815260200190815260200160002054610f2290919063ffffffff16565b6000808473ffffffffffffffffffffffffffffffffffffffff1673ffffffffffffffffffffffffffffffffffffffff168152602001908152602001600020819055508173ffffffffffffffffffffffffffffffffffffffff168373ffffffffffffffffffffffffffffffffffffffff167fddf252ad1be2c89b69c2b068fc378daa952ba7f163c4a11628f55a4df523b3ef836040518082815260200191505060405180910390a3505050565b6000838311158290610f0f576040517f08c379a00000000000000000000000000000000000000000000000000000000081526004018080602001828103825283818151815260200191508051906020019080838360005b83811015610ed4578082015181840152602081019050610eb9565b50505050905090810190601f168015610f015780820380516001836020036101000a031916815260200191505b509250505060405180910390fd5b5060008385039050809150509392505050565b600080828401905083811015610fa0576040517f08c379a000000000000000000000000000000000000000000000000000000000815260040180806020018281038252601b8152602001807f536166654d6174683a206164646974696f6e206f766572666c6f77000000000081525060200191505060405180910390fd5b809150509291505056fe45524332303a207472616e7366657220746f20746865207a65726f206164647265737345524332303a20617070726f766520746f20746865207a65726f206164647265737345524332303a207472616e7366657220616d6f756e7420657863656564732062616c616e636545524332303a207472616e7366657220616d6f756e74206578636565647320616c6c6f77616e636545524332303a207472616e736665722066726f6d20746865207a65726f206164647265737345524332303a20617070726f76652066726f6d20746865207a65726f206164647265737345524332303a2064656372656173656420616c6c6f77616e63652062656c6f77207a65726fa265627a7a7231582063a0b2fd4f8be99fc87e37a07e64a080c1b002e42443e12e5368a671e1b7abcb64736f6c6343000510003260806040523480156200001157600080fd5b506040518060400160405280600e81526020017f57656464696e675769746e6573730000000000000000000000000000000000008152506040518060400160405280600381526020017f574544000000000000000000000000000000000000000000000000000000000081525060008260039080519060200190620000989291906200033c565b508160049080519060200190620000b19291906200033c565b5080600560006101000a81548160ff021916908360ff160217905550505050620000e3336064620000e960201b60201c565b620003eb565b600073ffffffffffffffffffffffffffffffffffffffff168273ffffffffffffffffffffffffffffffffffffffff1614156200018d576040517f08c379a000000000000000000000000000000000000000000000000000000000815260040180806020018281038252601f8152602001807f45524332303a206d696e7420746f20746865207a65726f20616464726573730081525060200191505060405180910390fd5b620001a981600254620002b360201b62000f221790919060201c565b60028190555062000207816000808573ffffffffffffffffffffffffffffffffffffffff1673ffffffffffffffffffffffffffffffffffffffff16815260200190815260200160002054620002b360201b62000f221790919060201c565b6000808473ffffffffffffffffffffffffffffffffffffffff1673ffffffffffffffffffffffffffffffffffffffff168152602001908152602001600020819055508173ffffffffffffffffffffffffffffffffffffffff16600073ffffffffffffffffffffffffffffffffffffffff167fddf252ad1be2c89b69c2b068fc378daa952ba7f163c4a11628f55a4df523b3ef836040518082815260200191505060405180910390a35050565b60008082840190508381101562000332576040517f08c379a000000000000000000000000000000000000000000000000000000000815260040180806020018281038252601b8152602001807f536166654d6174683a206164646974696f6e206f766572666c6f77000000000081525060200191505060405180910390fd5b8091505092915050565b828054600181600116156101000203166002900490600052602060002090601f016020900481019282601f106200037f57805160ff1916838001178555620003b0565b82800160010185558215620003b0579182015b82811115620003af57825182559160200191906001019062000392565b5b509050620003bf9190620003c3565b5090565b620003e891905b80821115620003e4576000816000905550600101620003ca565b5090565b90565b6110e080620003fb6000396000f3fe608060405234801561001057600080fd5b50600436106100a95760003560e01c80633950935111610071578063395093511461025f57806370a08231146102c557806395d89b411461031d578063a457c2d7146103a0578063a9059cbb14610406578063dd62ed3e1461046c576100a9565b806306fdde03146100ae578063095ea7b31461013157806318160ddd1461019757806323b872dd146101b5578063313ce5671461023b575b600080fd5b6100b66104e4565b6040518080602001828103825283818151815260200191508051906020019080838360005b838110156100f65780820151818401526020810190506100db565b50505050905090810190601f1680156101235780820380516001836020036101000a031916815260200191505b509250505060405180910390f35b61017d6004803603604081101561014757600080fd5b81019080803573ffffffffffffffffffffffffffffffffffffffff16906020019092919080359060200190929190505050610586565b604051808215151515815260200191505060405180910390f35b61019f6105a4565b6040518082815260200191505060405180910390f35b610221600480360360608110156101cb57600080fd5b81019080803573ffffffffffffffffffffffffffffffffffffffff169060200190929190803573ffffffffffffffffffffffffffffffffffffffff169060200190929190803590602001909291905050506105ae565b604051808215151515815260200191505060405180910390f35b610243610687565b604051808260ff1660ff16815260200191505060405180910390f35b6102ab6004803603604081101561027557600080fd5b81019080803573ffffffffffffffffffffffffffffffffffffffff1690602001909291908035906020019092919050505061069e565b604051808215151515815260200191505060405180910390f35b610307600480360360208110156102db57600080fd5b81019080803573ffffffffffffffffffffffffffffffffffffffff169060200190929190505050610751565b6040518082815260200191505060405180910390f35b610325610799565b6040518080602001828103825283818151815260200191508051906020019080838360005b8381101561036557808201518184015260208101905061034a565b50505050905090810190601f1680156103925780820380516001836020036101000a031916815260200191505b509250505060405180910390f35b6103ec600480360360408110156103b657600080fd5b81019080803573ffffffffffffffffffffffffffffffffffffffff1690602001909291908035906020019092919050505061083b565b604051808215151515815260200191505060405180910390f35b6104526004803603604081101561041c57600080fd5b81019080803573ffffffffffffffffffffffffffffffffffffffff16906020019092919080359060200190929190505050610908565b604051808215151515815260200191505060405180910390f35b6104ce6004803603604081101561048257600080fd5b81019080803573ffffffffffffffffffffffffffffffffffffffff169060200190929190803573ffffffffffffffffffffffffffffffffffffffff169060200190929190505050610926565b6040518082815260200191505060405180910390f35b606060038054600181600116156101000203166002900480601f01602080910402602001604051908101604052809291908181526020018280546001816001161561010002031660029004801561057c5780601f106105515761010080835404028352916020019161057c565b820191906000526020600020905b81548152906001019060200180831161055f57829003601f168201915b5050505050905090565b600061059a6105936109ad565b84846109b5565b6001905092915050565b6000600254905090565b60006105bb848484610bac565b61067c846105c76109ad565b6106778560405180606001604052806028815260200161101660289139600160008b73ffffffffffffffffffffffffffffffffffffffff1673ffffffffffffffffffffffffffffffffffffffff168152602001908152602001600020600061062d6109ad565b73ffffffffffffffffffffffffffffffffffffffff1673ffffffffffffffffffffffffffffffffffffffff16815260200190815260200160002054610e629092919063ffffffff16565b6109b5565b600190509392505050565b6000600560009054906101000a900460ff16905090565b60006107476106ab6109ad565b8461074285600160006106bc6109ad565b73ffffffffffffffffffffffffffffffffffffffff1673ffffffffffffffffffffffffffffffffffffffff16815260200190815260200160002060008973ffffffffffffffffffffffffffffffffffffffff1673ffffffffffffffffffffffffffffffffffffffff16815260200190815260200160002054610f2290919063ffffffff16565b6109b5565b6001905092915050565b60008060008373ffffffffffffffffffffffffffffffffffffffff1673ffffffffffffffffffffffffffffffffffffffff168152602001908152602001600020549050919050565b606060048054600181600116156101000203166002900480601f0160208091040260200160405190810160405280929190818152602001828054600181600116156101000203166002900480156108315780601f1061080657610100808354040283529160200191610831565b820191906000526020600020905b81548152906001019060200180831161081457829003601f168201915b5050505050905090565b60006108fe6108486109ad565b846108f98560405180606001604052806025815260200161108760259139600160006108726109ad565b73ffffffffffffffffffffffffffffffffffffffff1673ffffffffffffffffffffffffffffffffffffffff16815260200190815260200160002060008a73ffffffffffffffffffffffffffffffffffffffff1673ffffffffffffffffffffffffffffffffffffffff16815260200190815260200160002054610e629092919063ffffffff16565b6109b5565b6001905092915050565b600061091c6109156109ad565b8484610bac565b6001905092915050565b6000600160008473ffffffffffffffffffffffffffffffffffffffff1673ffffffffffffffffffffffffffffffffffffffff16815260200190815260200160002060008373ffffffffffffffffffffffffffffffffffffffff1673ffffffffffffffffffffffffffffffffffffffff16815260200190815260200160002054905092915050565b600033905090565b600073ffffffffffffffffffffffffffffffffffffffff168373ffffffffffffffffffffffffffffffffffffffff161415610a3b576040517f08c379a00000000000000000000000000000000000000000000000000000000081526004018080602001828103825260248152602001806110636024913960400191505060405180910390fd5b600073ffffffffffffffffffffffffffffffffffffffff168273ffffffffffffffffffffffffffffffffffffffff161415610ac1576040517f08c379a0000000000000000000000000000000000000000000000000000000008152600401808060200182810382526022815260200180610fce6022913960400191505060405180910390fd5b80600160008573ffffffffffffffffffffffffffffffffffffffff1673ffffffffffffffffffffffffffffffffffffffff16815260200190815260200160002060008473ffffffffffffffffffffffffffffffffffffffff1673ffffffffffffffffffffffffffffffffffffffff168152602001908152602001600020819055508173ffffffffffffffffffffffffffffffffffffffff168373ffffffffffffffffffffffffffffffffffffffff167f8c5be1e5ebec7d5bd14f71427d1e84f3dd0314c0f7b2291e5b200ac8c7c3b925836040518082815260200191505060405180910390a3505050565b600073ffffffffffffffffffffffffffffffffffffffff168373ffffffffffffffffffffffffffffffffffffffff161415610c32576040517f08c379a000000000000000000000000000000000000000000000000000000000815260040180806020018281038252602581526020018061103e6025913960400191505060405180910390fd5b600073ffffffffffffffffffffffffffffffffffffffff168273ffffffffffffffffffffffffffffffffffffffff161415610cb8576040517f08c379a0000000000000000000000000000000000000000000000000000000008152600401808060200182810382526023815260200180610fab6023913960400191505060405180910390fd5b610d2381604051806060016040528060268152602001610ff0602691396000808773ffffffffffffffffffffffffffffffffffffffff1673ffffffffffffffffffffffffffffffffffffffff16815260200190815260200160002054610e629092919063ffffffff16565b6000808573ffffffffffffffffffffffffffffffffffffffff1673ffffffffffffffffffffffffffffffffffffffff16815260200190815260200160002081905550610db6816000808573ffffffffffffffffffffffffffffffffffffffff1673ffffffffffffffffffffffffffffffffffffffff16815260200190815260200160002054610f2290919063ffffffff16565b6000808473ffffffffffffffffffffffffffffffffffffffff1673ffffffffffffffffffffffffffffffffffffffff168152602001908152602001600020819055508173ffffffffffffffffffffffffffffffffffffffff168373ffffffffffffffffffffffffffffffffffffffff167fddf252ad1be2c89b69c2b068fc378daa952ba7f163c4a11628f55a4df523b3ef836040518082815260200191505060405180910390a3505050565b6000838311158290610f0f576040517f08c379a00000000000000000000000000000000000000000000000000000000081526004018080602001828103825283818151815260200191508051906020019080838360005b83811015610ed4578082015181840152602081019050610eb9565b50505050905090810190601f168015610f015780820380516001836020036101000a031916815260200191505b509250505060405180910390fd5b5060008385039050809150509392505050565b600080828401905083811015610fa0576040517f08c379a000000000000000000000000000000000000000000000000000000000815260040180806020018281038252601b8152602001807f536166654d6174683a206164646974696f6e206f766572666c6f77000000000081525060200191505060405180910390fd5b809150509291505056fe45524332303a207472616e7366657220746f20746865207a65726f206164647265737345524332303a20617070726f766520746f20746865207a65726f206164647265737345524332303a207472616e7366657220616d6f756e7420657863656564732062616c616e636545524332303a207472616e7366657220616d6f756e74206578636565647320616c6c6f77616e636545524332303a207472616e736665722066726f6d20746865207a65726f206164647265737345524332303a20617070726f76652066726f6d20746865207a65726f206164647265737345524332303a2064656372656173656420616c6c6f77616e63652062656c6f77207a65726fa265627a7a7231582066128a088ed967fe058877d034d34697de70f678a5c3e8ee8d6983b736b6869164736f6c63430005100032",
  "source": "pragma solidity ^0.5.0;\npragma experimental ABIEncoderV2;\n\nimport { WeddingInvitationToken, WeddingWitnessToken } from \"./Tokens.sol\";\n\n\ncontract GuestBook {\n    event GuestbookSignatureAdded(uint timestamp, address wallet, string name, string message);\n    event GuestInvited(uint timestamp, address wallet, address from);\n\n    address payable public spouse1Address;\n    address payable public spouse2Address;\n    address public owner;\n\n    address[] invitationList;\n    mapping (address => bool) private isInvited;\n\n    WeddingInvitationToken invitationToken = new WeddingInvitationToken();\n    WeddingWitnessToken witnessToken = new WeddingWitnessToken();\n\n    struct GuestBookEntry {\n        address sender;\n        string name;\n        string message;\n    }\n    GuestBookEntry[] guestBook;\n\n    /**\n     * @dev Constructor: Set the wallet addresses of both spouses.\n     * @param _spouse1Address Wallet address of spouse1.\n     * @param _spouse2Address Wallet address of spouse2.\n     */\n    constructor(address payable _spouse1Address, address payable _spouse2Address) public {\n        require(_spouse1Address != address(0), \"Spouse1 address must not be zero!\");\n        require(_spouse2Address != address(0), \"Spouse2 address must not be zero!\");\n        require(_spouse1Address != _spouse2Address, \"Spouse1 address must not equal Spouse2 address!\");\n\n        spouse1Address = _spouse1Address;\n        isInvited[spouse1Address] = true;\n        invitationList.push(spouse1Address);\n\n        spouse2Address = _spouse2Address;\n        isInvited[spouse2Address] = true;\n        invitationList.push(spouse2Address);\n    }\n\n    /**\n     * @dev Modifier that only allows contract owner execution.\n      */\n    modifier onlyOwner() {\n        require(msg.sender == owner, \"Sender is not contract owner!\");\n        _;\n    }\n\n    /**\n     * @dev Modifier that only allows spouse execution.\n      */\n    modifier onlySpouse() {\n        require(msg.sender == spouse1Address || msg.sender == spouse2Address, \"Sender is not a spouse!\");\n        _;\n    }\n\n    /**\n     * @dev Modifier that only allows invited member execution.\n      */\n    modifier onlyInvited() {\n        require(isInvited[msg.sender], \"Sender is not invited!\");\n        _;\n    }\n\n    /**\n     * @dev Set contract owner\n     */\n    function setContractOwner(address _owner) public {\n        require(owner == address(0), \"Owner already set\");\n        owner = _owner;\n    }\n\n    /**\n     * @dev Invite someone to your wedding\n     */\n    function sendInvitation(address payable _to) public onlySpouse {\n        require(!isInvited[_to], \"Person has already been invited!\");\n        if (invitationToken.balanceOf(address(this)) > 0) {\n            invitationToken.transfer(_to, 1);\n            isInvited[_to] = true;\n            invitationList.push(_to);\n            emit GuestInvited(now, _to, msg.sender);\n        }\n    }\n\n    /**\n     * @dev Sign the guest book\n     */\n    function signGuestBook(string memory name, string memory message) public onlyInvited {\n        GuestBookEntry memory entry = GuestBookEntry({\n            sender: msg.sender,\n            name: name,\n            message: message\n        });\n        guestBook.push(entry);\n        emit GuestbookSignatureAdded(now, msg.sender, name, message);\n    }\n\n    /**\n     * @dev Get guest book entries\n     */\n    function getGuestBookEntries() public view returns (GuestBookEntry[] memory) {\n        return guestBook;\n    }\n\n    /**\n     * @dev Send witness tokens\n     */\n    function sendWitnessTokens() public onlyOwner {\n        for (uint i = 0; i < invitationList.length; i++) {\n            if (witnessToken.balanceOf(address(this)) > 0) {\n                witnessToken.transfer(invitationList[i], 1);\n            }\n        }\n    }\n\n    /**\n     * @dev Get address to WitnessToken\n     */\n    function getWitnessTokenAddress() public view returns (address) {\n        return address(witnessToken);\n    }\n\n    /**\n     * @dev Get address to InvitationToken\n     */\n    function getInvitationTokenAddress() public view returns (address) {\n        return address(invitationToken);\n    }\n\n}\n",
  "sourcePath": "/home/ford/dev/rwscarb/wedding/contracts/GuestBook.sol",
  "compiler": {
    "name": "solc",
    "version": "0.5.16+commit.9c3226ce.Emscripten.clang"
  },
  "schemaVersion": "3.3.4",
  "updatedAt": "2021-03-30T18:19:59.132Z",
  "networkType": "ethereum",
  "devdoc": {
    "methods": {
      "constructor": {
        "details": "Constructor: Set the wallet addresses of both spouses.",
        "params": {
          "_spouse1Address": "Wallet address of spouse1.",
          "_spouse2Address": "Wallet address of spouse2."
        }
      },
      "getGuestBookEntries()": {
        "details": "Get guest book entries"
      },
      "getInvitationTokenAddress()": {
        "details": "Get address to InvitationToken"
      },
      "getWitnessTokenAddress()": {
        "details": "Get address to WitnessToken"
      },
      "sendInvitation(address)": {
        "details": "Invite someone to your wedding"
      },
      "sendWitnessTokens()": {
        "details": "Send witness tokens"
      },
      "setContractOwner(address)": {
        "details": "Set contract owner"
      },
      "signGuestBook(string,string)": {
        "details": "Sign the guest book"
      }
    }
  },
  "userdoc": {
    "methods": {}
  }
}