{
  "contractName": "SmartWeddingContract",
  "abi": [
    {
      "inputs": [
        {
          "internalType": "address payable",
          "name": "_guestBookAddress",
          "type": "address"
        },
        {
          "internalType": "address payable",
          "name": "_spouse1Address",
          "type": "address"
        },
        {
          "internalType": "address payable",
          "name": "_spouse2Address",
          "type": "address"
        }
      ],
      "payable": false,
      "stateMutability": "nonpayable",
      "type": "constructor"
    },
    {
      "anonymous": false,
      "inputs": [
        {
          "indexed": false,
          "internalType": "uint256",
          "name": "timestamp",
          "type": "uint256"
        },
        {
          "indexed": false,
          "internalType": "string",
          "name": "asset",
          "type": "string"
        },
        {
          "indexed": false,
          "internalType": "address",
          "name": "wallet",
          "type": "address"
        }
      ],
      "name": "AssetAddApproved",
      "type": "event"
    },
    {
      "anonymous": false,
      "inputs": [
        {
          "indexed": false,
          "internalType": "uint256",
          "name": "timestamp",
          "type": "uint256"
        },
        {
          "indexed": false,
          "internalType": "string",
          "name": "asset",
          "type": "string"
        }
      ],
      "name": "AssetAdded",
      "type": "event"
    },
    {
      "anonymous": false,
      "inputs": [
        {
          "indexed": false,
          "internalType": "uint256",
          "name": "timestamp",
          "type": "uint256"
        },
        {
          "indexed": false,
          "internalType": "string",
          "name": "asset",
          "type": "string"
        },
        {
          "indexed": false,
          "internalType": "address",
          "name": "wallet",
          "type": "address"
        }
      ],
      "name": "AssetProposed",
      "type": "event"
    },
    {
      "anonymous": false,
      "inputs": [
        {
          "indexed": false,
          "internalType": "uint256",
          "name": "timestamp",
          "type": "uint256"
        },
        {
          "indexed": false,
          "internalType": "string",
          "name": "asset",
          "type": "string"
        },
        {
          "indexed": false,
          "internalType": "address",
          "name": "wallet",
          "type": "address"
        }
      ],
      "name": "AssetRemoveApproved",
      "type": "event"
    },
    {
      "anonymous": false,
      "inputs": [
        {
          "indexed": false,
          "internalType": "uint256",
          "name": "timestamp",
          "type": "uint256"
        },
        {
          "indexed": false,
          "internalType": "string",
          "name": "asset",
          "type": "string"
        }
      ],
      "name": "AssetRemoved",
      "type": "event"
    },
    {
      "anonymous": false,
      "inputs": [
        {
          "indexed": false,
          "internalType": "uint256",
          "name": "timestamp",
          "type": "uint256"
        }
      ],
      "name": "ContractSigned",
      "type": "event"
    },
    {
      "anonymous": false,
      "inputs": [
        {
          "indexed": false,
          "internalType": "uint256",
          "name": "timestamp",
          "type": "uint256"
        },
        {
          "indexed": false,
          "internalType": "address",
          "name": "wallet",
          "type": "address"
        }
      ],
      "name": "DivorceApproved",
      "type": "event"
    },
    {
      "anonymous": false,
      "inputs": [
        {
          "indexed": false,
          "internalType": "uint256",
          "name": "timestamp",
          "type": "uint256"
        }
      ],
      "name": "Divorced",
      "type": "event"
    },
    {
      "anonymous": false,
      "inputs": [
        {
          "indexed": false,
          "internalType": "uint256",
          "name": "timestamp",
          "type": "uint256"
        },
        {
          "indexed": false,
          "internalType": "address",
          "name": "wallet",
          "type": "address"
        },
        {
          "indexed": false,
          "internalType": "uint256",
          "name": "amount",
          "type": "uint256"
        }
      ],
      "name": "FundsReceived",
      "type": "event"
    },
    {
      "anonymous": false,
      "inputs": [
        {
          "indexed": false,
          "internalType": "uint256",
          "name": "timestamp",
          "type": "uint256"
        },
        {
          "indexed": false,
          "internalType": "address",
          "name": "wallet",
          "type": "address"
        },
        {
          "indexed": false,
          "internalType": "uint256",
          "name": "amount",
          "type": "uint256"
        }
      ],
      "name": "FundsSent",
      "type": "event"
    },
    {
      "anonymous": false,
      "inputs": [
        {
          "indexed": false,
          "internalType": "uint256",
          "name": "timestamp",
          "type": "uint256"
        },
        {
          "indexed": false,
          "internalType": "address",
          "name": "wallet",
          "type": "address"
        }
      ],
      "name": "Signed",
      "type": "event"
    },
    {
      "anonymous": false,
      "inputs": [
        {
          "indexed": false,
          "internalType": "uint256",
          "name": "timestamp",
          "type": "uint256"
        },
        {
          "indexed": false,
          "internalType": "string",
          "name": "ipfsHash",
          "type": "string"
        },
        {
          "indexed": false,
          "internalType": "address",
          "name": "wallet",
          "type": "address"
        }
      ],
      "name": "WrittenContractProposed",
      "type": "event"
    },
    {
      "payable": true,
      "stateMutability": "payable",
      "type": "fallback"
    },
    {
      "constant": true,
      "inputs": [
        {
          "internalType": "uint256",
          "name": "",
          "type": "uint256"
        }
      ],
      "name": "assets",
      "outputs": [
        {
          "internalType": "string",
          "name": "data",
          "type": "string"
        },
        {
          "internalType": "uint256",
          "name": "spouse1Allocation",
          "type": "uint256"
        },
        {
          "internalType": "uint256",
          "name": "spouse2Allocation",
          "type": "uint256"
        },
        {
          "internalType": "bool",
          "name": "added",
          "type": "bool"
        },
        {
          "internalType": "bool",
          "name": "removed",
          "type": "bool"
        }
      ],
      "payable": false,
      "stateMutability": "view",
      "type": "function"
    },
    {
      "constant": true,
      "inputs": [],
      "name": "divorced",
      "outputs": [
        {
          "internalType": "bool",
          "name": "",
          "type": "bool"
        }
      ],
      "payable": false,
      "stateMutability": "view",
      "type": "function"
    },
    {
      "constant": true,
      "inputs": [],
      "name": "guestBookAddress",
      "outputs": [
        {
          "internalType": "address",
          "name": "",
          "type": "address"
        }
      ],
      "payable": false,
      "stateMutability": "view",
      "type": "function"
    },
    {
      "constant": true,
      "inputs": [],
      "name": "signed",
      "outputs": [
        {
          "internalType": "bool",
          "name": "",
          "type": "bool"
        }
      ],
      "payable": false,
      "stateMutability": "view",
      "type": "function"
    },
    {
      "constant": true,
      "inputs": [],
      "name": "spouse1Address",
      "outputs": [
        {
          "internalType": "address payable",
          "name": "",
          "type": "address"
        }
      ],
      "payable": false,
      "stateMutability": "view",
      "type": "function"
    },
    {
      "constant": true,
      "inputs": [],
      "name": "spouse2Address",
      "outputs": [
        {
          "internalType": "address payable",
          "name": "",
          "type": "address"
        }
      ],
      "payable": false,
      "stateMutability": "view",
      "type": "function"
    },
    {
      "constant": true,
      "inputs": [],
      "name": "writtenContractIpfsHash",
      "outputs": [
        {
          "internalType": "string",
          "name": "",
          "type": "string"
        }
      ],
      "payable": false,
      "stateMutability": "view",
      "type": "function"
    },
    {
      "constant": true,
      "inputs": [],
      "name": "getBalance",
      "outputs": [
        {
          "internalType": "uint256",
          "name": "",
          "type": "uint256"
        }
      ],
      "payable": false,
      "stateMutability": "view",
      "type": "function"
    },
    {
      "constant": false,
      "inputs": [
        {
          "internalType": "string",
          "name": "_writtenContractIpfsHash",
          "type": "string"
        }
      ],
      "name": "proposeWrittenContract",
      "outputs": [],
      "payable": false,
      "stateMutability": "nonpayable",
      "type": "function"
    },
    {
      "constant": false,
      "inputs": [],
      "name": "signContract",
      "outputs": [],
      "payable": false,
      "stateMutability": "nonpayable",
      "type": "function"
    },
    {
      "constant": true,
      "inputs": [],
      "name": "senderSigned",
      "outputs": [
        {
          "internalType": "bool",
          "name": "",
          "type": "bool"
        }
      ],
      "payable": false,
      "stateMutability": "view",
      "type": "function"
    },
    {
      "constant": true,
      "inputs": [],
      "name": "senderDivorced",
      "outputs": [
        {
          "internalType": "bool",
          "name": "",
          "type": "bool"
        }
      ],
      "payable": false,
      "stateMutability": "view",
      "type": "function"
    },
    {
      "constant": false,
      "inputs": [
        {
          "internalType": "address payable",
          "name": "_to",
          "type": "address"
        },
        {
          "internalType": "uint256",
          "name": "_amount",
          "type": "uint256"
        }
      ],
      "name": "pay",
      "outputs": [],
      "payable": false,
      "stateMutability": "nonpayable",
      "type": "function"
    },
    {
      "constant": false,
      "inputs": [
        {
          "internalType": "string",
          "name": "_data",
          "type": "string"
        },
        {
          "internalType": "uint256",
          "name": "_spouse1Allocation",
          "type": "uint256"
        },
        {
          "internalType": "uint256",
          "name": "_spouse2Allocation",
          "type": "uint256"
        }
      ],
      "name": "proposeAsset",
      "outputs": [],
      "payable": false,
      "stateMutability": "nonpayable",
      "type": "function"
    },
    {
      "constant": false,
      "inputs": [
        {
          "internalType": "uint256",
          "name": "_assetId",
          "type": "uint256"
        }
      ],
      "name": "approveAsset",
      "outputs": [],
      "payable": false,
      "stateMutability": "nonpayable",
      "type": "function"
    },
    {
      "constant": false,
      "inputs": [
        {
          "internalType": "uint256",
          "name": "_assetId",
          "type": "uint256"
        }
      ],
      "name": "removeAsset",
      "outputs": [],
      "payable": false,
      "stateMutability": "nonpayable",
      "type": "function"
    },
    {
      "constant": false,
      "inputs": [],
      "name": "divorce",
      "outputs": [],
      "payable": false,
      "stateMutability": "nonpayable",
      "type": "function"
    },
    {
      "constant": true,
      "inputs": [
        {
          "internalType": "uint256",
          "name": "_assetId",
          "type": "uint256"
        }
      ],
      "name": "assetIsApproved",
      "outputs": [
        {
          "internalType": "bool",
          "name": "",
          "type": "bool"
        }
      ],
      "payable": false,
      "stateMutability": "view",
      "type": "function"
    },
    {
      "constant": true,
      "inputs": [
        {
          "internalType": "uint256",
          "name": "_assetId",
          "type": "uint256"
        }
      ],
      "name": "assetIsRemoved",
      "outputs": [
        {
          "internalType": "bool",
          "name": "",
          "type": "bool"
        }
      ],
      "payable": false,
      "stateMutability": "view",
      "type": "function"
    },
    {
      "constant": true,
      "inputs": [],
      "name": "getAssetIds",
      "outputs": [
        {
          "internalType": "uint256[]",
          "name": "",
          "type": "uint256[]"
        }
      ],
      "payable": false,
      "stateMutability": "view",
      "type": "function"
    }
  ],
  "bytecode": "0x608060405260008060006101000a81548160ff02191690831515021790555060008060016101000a81548160ff0219169083151502179055503480156200004557600080fd5b506040516200456b3803806200456b833981810160405260608110156200006b57600080fd5b81019080805190602001909291908051906020019092919080519060200190929190505050600073ffffffffffffffffffffffffffffffffffffffff168373ffffffffffffffffffffffffffffffffffffffff16141562000118576040517f08c379a0000000000000000000000000000000000000000000000000000000008152600401808060200182810382526023815260200180620044f86023913960400191505060405180910390fd5b600073ffffffffffffffffffffffffffffffffffffffff168273ffffffffffffffffffffffffffffffffffffffff161415620001a0576040517f08c379a00000000000000000000000000000000000000000000000000000000081526004018080602001828103825260218152602001806200451b6021913960400191505060405180910390fd5b600073ffffffffffffffffffffffffffffffffffffffff168173ffffffffffffffffffffffffffffffffffffffff16141562000228576040517f08c379a0000000000000000000000000000000000000000000000000000000008152600401808060200182810382526021815260200180620044d76021913960400191505060405180910390fd5b8073ffffffffffffffffffffffffffffffffffffffff168273ffffffffffffffffffffffffffffffffffffffff161415620002af576040517f08c379a000000000000000000000000000000000000000000000000000000000815260040180806020018281038252602f8152602001806200453c602f913960400191505060405180910390fd5b81600360006101000a81548173ffffffffffffffffffffffffffffffffffffffff021916908373ffffffffffffffffffffffffffffffffffffffff16021790555080600460006101000a81548173ffffffffffffffffffffffffffffffffffffffff021916908373ffffffffffffffffffffffffffffffffffffffff16021790555082600660006101000a81548173ffffffffffffffffffffffffffffffffffffffff021916908373ffffffffffffffffffffffffffffffffffffffff16021790555050505061415280620003856000396000f3fe60806040526004361061011f5760003560e01c806373662156116100a0578063c6dca1d211610064578063c6dca1d2146106c0578063cf35bdd01461075a578063dff44b2f14610832578063e47e1c0b14610849578063f14f58f1146108b55761011f565b80637366215614610565578063864d7e14146105bc57806389089c58146105f7578063b8b4f1a01461064e578063c4076876146106655761011f565b8063232a6b9d116100e7578063232a6b9d146103cd57806335028d35146103fc578063528e2ee91461044f578063569ad3db1461047e5780635fd8616e146104d55761011f565b806301c177431461026b5780630c665c671461029a5780631148da2f146102c957806312065fe01461034f5780631920c2291461037a575b600115156000809054906101000a900460ff1615151461018a576040517f08c379a000000000000000000000000000000000000000000000000000000000815260040180806020018281038252603181526020018061400c6031913960400191505060405180910390fd5b60001515600060019054906101000a900460ff161515146101f6576040517f08c379a0000000000000000000000000000000000000000000000000000000008152600401808060200182810382526032815260200180613fa96032913960400191505060405180910390fd5b7ffb932f39cc5ea177af75a4f1502d59d13404be49a2edb139943b43e4fb3fe45b423334604051808481526020018373ffffffffffffffffffffffffffffffffffffffff1673ffffffffffffffffffffffffffffffffffffffff168152602001828152602001935050505060405180910390a1005b34801561027757600080fd5b506102806108f0565b604051808215151515815260200191505060405180910390f35b3480156102a657600080fd5b506102af610a5f565b604051808215151515815260200191505060405180910390f35b3480156102d557600080fd5b5061034d600480360360208110156102ec57600080fd5b810190808035906020019064010000000081111561030957600080fd5b82018360208201111561031b57600080fd5b8035906020019184600183028401116401000000008311171561033d57600080fd5b9091929391929390505050610bce565b005b34801561035b57600080fd5b50610364611061565b6040518082815260200191505060405180910390f35b34801561038657600080fd5b506103b36004803603602081101561039d57600080fd5b8101908080359060200190929190505050611069565b604051808215151515815260200191505060405180910390f35b3480156103d957600080fd5b506103e2611286565b604051808215151515815260200191505060405180910390f35b34801561040857600080fd5b506104356004803603602081101561041f57600080fd5b8101908080359060200190929190505050611298565b604051808215151515815260200191505060405180910390f35b34801561045b57600080fd5b506104646114b5565b604051808215151515815260200191505060405180910390f35b34801561048a57600080fd5b506104936114c8565b604051808273ffffffffffffffffffffffffffffffffffffffff1673ffffffffffffffffffffffffffffffffffffffff16815260200191505060405180910390f35b3480156104e157600080fd5b506104ea6114ee565b6040518080602001828103825283818151815260200191508051906020019080838360005b8381101561052a57808201518184015260208101905061050f565b50505050905090810190601f1680156105575780820380516001836020036101000a031916815260200191505b509250505060405180910390f35b34801561057157600080fd5b5061057a61158c565b604051808273ffffffffffffffffffffffffffffffffffffffff1673ffffffffffffffffffffffffffffffffffffffff16815260200191505060405180910390f35b3480156105c857600080fd5b506105f5600480360360208110156105df57600080fd5b81019080803590602001909291905050506115b2565b005b34801561060357600080fd5b5061060c611d35565b604051808273ffffffffffffffffffffffffffffffffffffffff1673ffffffffffffffffffffffffffffffffffffffff16815260200191505060405180910390f35b34801561065a57600080fd5b50610663611d5b565b005b34801561067157600080fd5b506106be6004803603604081101561068857600080fd5b81019080803573ffffffffffffffffffffffffffffffffffffffff169060200190929190803590602001909291905050506122aa565b005b3480156106cc57600080fd5b50610758600480360360608110156106e357600080fd5b810190808035906020019064010000000081111561070057600080fd5b82018360208201111561071257600080fd5b8035906020019184600183028401116401000000008311171561073457600080fd5b90919293919293908035906020019092919080359060200190929190505050612656565b005b34801561076657600080fd5b506107936004803603602081101561077d57600080fd5b8101908080359060200190929190505050612d43565b60405180806020018681526020018581526020018415151515815260200183151515158152602001828103825287818151815260200191508051906020019080838360005b838110156107f35780820151818401526020810190506107d8565b50505050905090810190601f1680156108205780820380516001836020036101000a031916815260200191505b50965050505050505060405180910390f35b34801561083e57600080fd5b50610847612e38565b005b34801561085557600080fd5b5061085e6134f1565b6040518080602001828103825283818151815260200191508051906020019060200280838360005b838110156108a1578082015181840152602081019050610886565b505050509050019250505060405180910390f35b3480156108c157600080fd5b506108ee600480360360208110156108d857600080fd5b8101908080359060200190929190505050613571565b005b6000600360009054906101000a900473ffffffffffffffffffffffffffffffffffffffff1673ffffffffffffffffffffffffffffffffffffffff163373ffffffffffffffffffffffffffffffffffffffff16148061099b5750600460009054906101000a900473ffffffffffffffffffffffffffffffffffffffff1673ffffffffffffffffffffffffffffffffffffffff163373ffffffffffffffffffffffffffffffffffffffff16145b610a0d576040517f08c379a00000000000000000000000000000000000000000000000000000000081526004018080602001828103825260178152602001807f53656e646572206973206e6f7420612073706f7573652100000000000000000081525060200191505060405180910390fd5b600260003373ffffffffffffffffffffffffffffffffffffffff1673ffffffffffffffffffffffffffffffffffffffff16815260200190815260200160002060009054906101000a900460ff16905090565b6000600360009054906101000a900473ffffffffffffffffffffffffffffffffffffffff1673ffffffffffffffffffffffffffffffffffffffff163373ffffffffffffffffffffffffffffffffffffffff161480610b0a5750600460009054906101000a900473ffffffffffffffffffffffffffffffffffffffff1673ffffffffffffffffffffffffffffffffffffffff163373ffffffffffffffffffffffffffffffffffffffff16145b610b7c576040517f08c379a00000000000000000000000000000000000000000000000000000000081526004018080602001828103825260178152602001807f53656e646572206973206e6f7420612073706f7573652100000000000000000081525060200191505060405180910390fd5b600160003373ffffffffffffffffffffffffffffffffffffffff1673ffffffffffffffffffffffffffffffffffffffff16815260200190815260200160002060009054906101000a900460ff16905090565b600360009054906101000a900473ffffffffffffffffffffffffffffffffffffffff1673ffffffffffffffffffffffffffffffffffffffff163373ffffffffffffffffffffffffffffffffffffffff161480610c775750600460009054906101000a900473ffffffffffffffffffffffffffffffffffffffff1673ffffffffffffffffffffffffffffffffffffffff163373ffffffffffffffffffffffffffffffffffffffff16145b610ce9576040517f08c379a00000000000000000000000000000000000000000000000000000000081526004018080602001828103825260178152602001807f53656e646572206973206e6f7420612073706f7573652100000000000000000081525060200191505060405180910390fd5b60001515600060019054906101000a900460ff16151514610d55576040517f08c379a0000000000000000000000000000000000000000000000000000000008152600401808060200182810382526032815260200180613fa96032913960400191505060405180910390fd5b600015156000809054906101000a900460ff16151514610dc0576040517f08c379a00000000000000000000000000000000000000000000000000000000081526004018080602001828103825260538152602001806140cb6053913960600191505060405180910390fd5b818160059190610dd1929190613ddd565b507fb1240eb63e0993abdb7363bbae0a2eba839411476521ce77871e26da13cfbb0b4283833360405180858152602001806020018373ffffffffffffffffffffffffffffffffffffffff1673ffffffffffffffffffffffffffffffffffffffff1681526020018281038252858582818152602001925080828437600081840152601f19601f8201169050808301925050509550505050505060405180910390a16001151560016000600360009054906101000a900473ffffffffffffffffffffffffffffffffffffffff1673ffffffffffffffffffffffffffffffffffffffff1673ffffffffffffffffffffffffffffffffffffffff16815260200190815260200160002060009054906101000a900460ff1615151415610f6757600060016000600360009054906101000a900473ffffffffffffffffffffffffffffffffffffffff1673ffffffffffffffffffffffffffffffffffffffff1673ffffffffffffffffffffffffffffffffffffffff16815260200190815260200160002060006101000a81548160ff0219169083151502179055505b6001151560016000600460009054906101000a900473ffffffffffffffffffffffffffffffffffffffff1673ffffffffffffffffffffffffffffffffffffffff1673ffffffffffffffffffffffffffffffffffffffff16815260200190815260200160002060009054906101000a900460ff161515141561105d57600060016000600460009054906101000a900473ffffffffffffffffffffffffffffffffffffffff1673ffffffffffffffffffffffffffffffffffffffff1673ffffffffffffffffffffffffffffffffffffffff16815260200190815260200160002060006101000a81548160ff0219169083151502179055505b5050565b600047905090565b6000600360009054906101000a900473ffffffffffffffffffffffffffffffffffffffff1673ffffffffffffffffffffffffffffffffffffffff163373ffffffffffffffffffffffffffffffffffffffff1614806111145750600460009054906101000a900473ffffffffffffffffffffffffffffffffffffffff1673ffffffffffffffffffffffffffffffffffffffff163373ffffffffffffffffffffffffffffffffffffffff16145b611186576040517f08c379a00000000000000000000000000000000000000000000000000000000081526004018080602001828103825260178152602001807f53656e646572206973206e6f7420612073706f7573652100000000000000000081525060200191505060405180910390fd5b60008211801561119b57506007805490508211155b61120d576040517f08c379a00000000000000000000000000000000000000000000000000000000081526004018080602001828103825260118152602001807f496e76616c69642061737365742069642100000000000000000000000000000081525060200191505060405180910390fd5b60006007600184038154811061121f57fe5b906000526020600020906006020190508060040160003373ffffffffffffffffffffffffffffffffffffffff1673ffffffffffffffffffffffffffffffffffffffff16815260200190815260200160002060009054906101000a900460ff16915050919050565b6000809054906101000a900460ff1681565b6000600360009054906101000a900473ffffffffffffffffffffffffffffffffffffffff1673ffffffffffffffffffffffffffffffffffffffff163373ffffffffffffffffffffffffffffffffffffffff1614806113435750600460009054906101000a900473ffffffffffffffffffffffffffffffffffffffff1673ffffffffffffffffffffffffffffffffffffffff163373ffffffffffffffffffffffffffffffffffffffff16145b6113b5576040517f08c379a00000000000000000000000000000000000000000000000000000000081526004018080602001828103825260178152602001807f53656e646572206973206e6f7420612073706f7573652100000000000000000081525060200191505060405180910390fd5b6000821180156113ca57506007805490508211155b61143c576040517f08c379a00000000000000000000000000000000000000000000000000000000081526004018080602001828103825260118152602001807f496e76616c69642061737365742069642100000000000000000000000000000081525060200191505060405180910390fd5b60006007600184038154811061144e57fe5b906000526020600020906006020190508060050160003373ffffffffffffffffffffffffffffffffffffffff1673ffffffffffffffffffffffffffffffffffffffff16815260200190815260200160002060009054906101000a900460ff16915050919050565b600060019054906101000a900460ff1681565b600360009054906101000a900473ffffffffffffffffffffffffffffffffffffffff1681565b60058054600181600116156101000203166002900480601f0160208091040260200160405190810160405280929190818152602001828054600181600116156101000203166002900480156115845780601f1061155957610100808354040283529160200191611584565b820191906000526020600020905b81548152906001019060200180831161156757829003601f168201915b505050505081565b600660009054906101000a900473ffffffffffffffffffffffffffffffffffffffff1681565b600360009054906101000a900473ffffffffffffffffffffffffffffffffffffffff1673ffffffffffffffffffffffffffffffffffffffff163373ffffffffffffffffffffffffffffffffffffffff16148061165b5750600460009054906101000a900473ffffffffffffffffffffffffffffffffffffffff1673ffffffffffffffffffffffffffffffffffffffff163373ffffffffffffffffffffffffffffffffffffffff16145b6116cd576040517f08c379a00000000000000000000000000000000000000000000000000000000081526004018080602001828103825260178152602001807f53656e646572206973206e6f7420612073706f7573652100000000000000000081525060200191505060405180910390fd5b600115156000809054906101000a900460ff16151514611738576040517f08c379a000000000000000000000000000000000000000000000000000000000815260040180806020018281038252603181526020018061400c6031913960400191505060405180910390fd5b60001515600060019054906101000a900460ff161515146117a4576040517f08c379a0000000000000000000000000000000000000000000000000000000008152600401808060200182810382526032815260200180613fa96032913960400191505060405180910390fd5b6000811180156117b957506007805490508111155b61182b576040517f08c379a00000000000000000000000000000000000000000000000000000000081526004018080602001828103825260118152602001807f496e76616c69642061737365742069642100000000000000000000000000000081525060200191505060405180910390fd5b60006007600183038154811061183d57fe5b90600052602060002090600602019050600015158160030160009054906101000a900460ff161515146118d8576040517f08c379a000000000000000000000000000000000000000000000000000000000815260040180806020018281038252601d8152602001807f41737365742068617320616c7265616479206265656e2061646465642100000081525060200191505060405180910390fd5b600015158160030160019054906101000a900460ff16151514611963576040517f08c379a000000000000000000000000000000000000000000000000000000000815260040180806020018281038252601f8152602001807f41737365742068617320616c7265616479206265656e2072656d6f766564210081525060200191505060405180910390fd5b600015158160040160003373ffffffffffffffffffffffffffffffffffffffff1673ffffffffffffffffffffffffffffffffffffffff16815260200190815260200160002060009054906101000a900460ff16151514611a0e576040517f08c379a0000000000000000000000000000000000000000000000000000000008152600401808060200182810382526025815260200180613f846025913960400191505060405180910390fd5b60018160040160003373ffffffffffffffffffffffffffffffffffffffff1673ffffffffffffffffffffffffffffffffffffffff16815260200190815260200160002060006101000a81548160ff0219169083151502179055507f6822211f8413454a7fab01c874d36d5ab0dd786606a32f84b87890be38825d2542826000013360405180848152602001806020018373ffffffffffffffffffffffffffffffffffffffff1673ffffffffffffffffffffffffffffffffffffffff168152602001828103825284818154600181600116156101000203166002900481526020019150805460018160011615610100020316600290048015611b505780601f10611b2557610100808354040283529160200191611b50565b820191906000526020600020905b815481529060010190602001808311611b3357829003601f168201915b505094505050505060405180910390a1806004016000600360009054906101000a900473ffffffffffffffffffffffffffffffffffffffff1673ffffffffffffffffffffffffffffffffffffffff1673ffffffffffffffffffffffffffffffffffffffff16815260200190815260200160002060009054906101000a900460ff168015611c4a5750806004016000600460009054906101000a900473ffffffffffffffffffffffffffffffffffffffff1673ffffffffffffffffffffffffffffffffffffffff1673ffffffffffffffffffffffffffffffffffffffff16815260200190815260200160002060009054906101000a900460ff165b15611d315760018160030160006101000a81548160ff0219169083151502179055507f65d503a6d77e4a61eae8cf0284a0edf59c61659ceb7585a11664c40e8fcf09fa42826000016040518083815260200180602001828103825283818154600181600116156101000203166002900481526020019150805460018160011615610100020316600290048015611d215780601f10611cf657610100808354040283529160200191611d21565b820191906000526020600020905b815481529060010190602001808311611d0457829003601f168201915b5050935050505060405180910390a15b5050565b600460009054906101000a900473ffffffffffffffffffffffffffffffffffffffff1681565b600360009054906101000a900473ffffffffffffffffffffffffffffffffffffffff1673ffffffffffffffffffffffffffffffffffffffff163373ffffffffffffffffffffffffffffffffffffffff161480611e045750600460009054906101000a900473ffffffffffffffffffffffffffffffffffffffff1673ffffffffffffffffffffffffffffffffffffffff163373ffffffffffffffffffffffffffffffffffffffff16145b611e76576040517f08c379a00000000000000000000000000000000000000000000000000000000081526004018080602001828103825260178152602001807f53656e646572206973206e6f7420612073706f7573652100000000000000000081525060200191505060405180910390fd5b611f2960058054600181600116156101000203166002900480601f016020809104026020016040519081016040528092919081815260200182805460018160011615610100020316600290048015611f0f5780601f10611ee457610100808354040283529160200191611f0f565b820191906000526020600020905b815481529060010190602001808311611ef257829003601f168201915b505050505060405180602001604052806000815250613ced565b611f7e576040517f08c379a0000000000000000000000000000000000000000000000000000000008152600401808060200182810382526031815260200180613fdb6031913960400191505060405180910390fd5b60001515600160003373ffffffffffffffffffffffffffffffffffffffff1673ffffffffffffffffffffffffffffffffffffffff16815260200190815260200160002060009054906101000a900460ff16151514612027576040517f08c379a000000000000000000000000000000000000000000000000000000000815260040180806020018281038252602781526020018061403d6027913960400191505060405180910390fd5b60018060003373ffffffffffffffffffffffffffffffffffffffff1673ffffffffffffffffffffffffffffffffffffffff16815260200190815260200160002060006101000a81548160ff0219169083151502179055507f80bc357386c693c2d6ad5938af6765eacd7d7790c17e39c014ab30def63941654233604051808381526020018273ffffffffffffffffffffffffffffffffffffffff1673ffffffffffffffffffffffffffffffffffffffff1681526020019250505060405180910390a160016000600360009054906101000a900473ffffffffffffffffffffffffffffffffffffffff1673ffffffffffffffffffffffffffffffffffffffff1673ffffffffffffffffffffffffffffffffffffffff16815260200190815260200160002060009054906101000a900460ff1680156121cf575060016000600460009054906101000a900473ffffffffffffffffffffffffffffffffffffffff1673ffffffffffffffffffffffffffffffffffffffff1673ffffffffffffffffffffffffffffffffffffffff16815260200190815260200160002060009054906101000a900460ff165b156122a85760016000806101000a81548160ff021916908315150217905550600660009054906101000a900473ffffffffffffffffffffffffffffffffffffffff1673ffffffffffffffffffffffffffffffffffffffff1663d3e9504e6040518163ffffffff1660e01b8152600401600060405180830381600087803b15801561225857600080fd5b505af115801561226c573d6000803e3d6000fd5b505050507faf3c49f5413fd292e2325b0fe214de144a222b00cb6ec21214fdc04b5d6c5913426040518082815260200191505060405180910390a15b565b600360009054906101000a900473ffffffffffffffffffffffffffffffffffffffff1673ffffffffffffffffffffffffffffffffffffffff163373ffffffffffffffffffffffffffffffffffffffff1614806123535750600460009054906101000a900473ffffffffffffffffffffffffffffffffffffffff1673ffffffffffffffffffffffffffffffffffffffff163373ffffffffffffffffffffffffffffffffffffffff16145b6123c5576040517f08c379a00000000000000000000000000000000000000000000000000000000081526004018080602001828103825260178152602001807f53656e646572206973206e6f7420612073706f7573652100000000000000000081525060200191505060405180910390fd5b600115156000809054906101000a900460ff16151514612430576040517f08c379a000000000000000000000000000000000000000000000000000000000815260040180806020018281038252603181526020018061400c6031913960400191505060405180910390fd5b60001515600060019054906101000a900460ff1615151461249c576040517f08c379a0000000000000000000000000000000000000000000000000000000008152600401808060200182810382526032815260200180613fa96032913960400191505060405180910390fd5b600073ffffffffffffffffffffffffffffffffffffffff168273ffffffffffffffffffffffffffffffffffffffff161415612522576040517f08c379a000000000000000000000000000000000000000000000000000000000815260040180806020018281038252602c81526020018061409f602c913960400191505060405180910390fd5b47811115612598576040517f08c379a000000000000000000000000000000000000000000000000000000000815260040180806020018281038252601d8152602001807f4e6f7420656e6f7567682062616c616e636520617661696c61626c652100000081525060200191505060405180910390fd5b8173ffffffffffffffffffffffffffffffffffffffff166108fc829081150290604051600060405180830381858888f193505050501580156125de573d6000803e3d6000fd5b507f545fa8e09b7aa32e41eb2a2ece3cdfb1e14707a7bc79c78e749c79ea6b544aee428383604051808481526020018373ffffffffffffffffffffffffffffffffffffffff1673ffffffffffffffffffffffffffffffffffffffff168152602001828152602001935050505060405180910390a15050565b600360009054906101000a900473ffffffffffffffffffffffffffffffffffffffff1673ffffffffffffffffffffffffffffffffffffffff163373ffffffffffffffffffffffffffffffffffffffff1614806126ff5750600460009054906101000a900473ffffffffffffffffffffffffffffffffffffffff1673ffffffffffffffffffffffffffffffffffffffff163373ffffffffffffffffffffffffffffffffffffffff16145b612771576040517f08c379a00000000000000000000000000000000000000000000000000000000081526004018080602001828103825260178152602001807f53656e646572206973206e6f7420612073706f7573652100000000000000000081525060200191505060405180910390fd5b600115156000809054906101000a900460ff161515146127dc576040517f08c379a000000000000000000000000000000000000000000000000000000000815260040180806020018281038252603181526020018061400c6031913960400191505060405180910390fd5b60001515600060019054906101000a900460ff16151514612848576040517f08c379a0000000000000000000000000000000000000000000000000000000008152600401808060200182810382526032815260200180613fa96032913960400191505060405180910390fd5b6128a584848080601f016020809104026020016040519081016040528093929190818152602001838380828437600081840152601f19601f8201169050808301925050505050505060405180602001604052806000815250613ced565b612917576040517f08c379a00000000000000000000000000000000000000000000000000000000081526004018080602001828103825260178152602001807f4e6f20617373657420646174612070726f76696465642100000000000000000081525060200191505060405180910390fd5b600082101561298e576040517f08c379a000000000000000000000000000000000000000000000000000000000815260040180806020018281038252601b8152602001807f73706f7573653120616c6c6f636174696f6e20696e76616c696421000000000081525060200191505060405180910390fd5b6000811015612a05576040517f08c379a000000000000000000000000000000000000000000000000000000000815260040180806020018281038252601b8152602001807f73706f7573653220616c6c6f636174696f6e20696e76616c696421000000000081525060200191505060405180910390fd5b606481830114612a60576040517f08c379a0000000000000000000000000000000000000000000000000000000008152600401808060200182810382526027815260200180613f366027913960400191505060405180910390fd5b612a68613e5d565b6040518060a0016040528086868080601f016020809104026020016040519081016040528093929190818152602001838380828437600081840152601f19601f8201169050808301925050505050505081526020018481526020018381526020016000151581526020016000151581525090506000600782908060018154018082558091505090600182039060005260206000209060060201600090919290919091506000820151816000019080519060200190612b27929190613e90565b50602082015181600101556040820151816002015560608201518160030160006101000a81548160ff02191690831515021790555060808201518160030160016101000a81548160ff021916908315150217905550505090507fd9d10bbb83b2aa16a59e7fc6a6f4625d8eb082f9d50eb619ea6204bf7beb8f5d4287873360405180858152602001806020018373ffffffffffffffffffffffffffffffffffffffff1673ffffffffffffffffffffffffffffffffffffffff1681526020018281038252858582818152602001925080828437600081840152601f19601f8201169050808301925050509550505050505060405180910390a1600060076001830381548110612c3157fe5b9060005260206000209060060201905060018160040160003373ffffffffffffffffffffffffffffffffffffffff1673ffffffffffffffffffffffffffffffffffffffff16815260200190815260200160002060006101000a81548160ff0219169083151502179055507f6822211f8413454a7fab01c874d36d5ab0dd786606a32f84b87890be38825d254288883360405180858152602001806020018373ffffffffffffffffffffffffffffffffffffffff1673ffffffffffffffffffffffffffffffffffffffff1681526020018281038252858582818152602001925080828437600081840152601f19601f8201169050808301925050509550505050505060405180910390a150505050505050565b60078181548110612d5057fe5b9060005260206000209060060201600091509050806000018054600181600116156101000203166002900480601f016020809104026020016040519081016040528092919081815260200182805460018160011615610100020316600290048015612dfc5780601f10612dd157610100808354040283529160200191612dfc565b820191906000526020600020905b815481529060010190602001808311612ddf57829003601f168201915b5050505050908060010154908060020154908060030160009054906101000a900460ff16908060030160019054906101000a900460ff16905085565b600360009054906101000a900473ffffffffffffffffffffffffffffffffffffffff1673ffffffffffffffffffffffffffffffffffffffff163373ffffffffffffffffffffffffffffffffffffffff161480612ee15750600460009054906101000a900473ffffffffffffffffffffffffffffffffffffffff1673ffffffffffffffffffffffffffffffffffffffff163373ffffffffffffffffffffffffffffffffffffffff16145b612f53576040517f08c379a00000000000000000000000000000000000000000000000000000000081526004018080602001828103825260178152602001807f53656e646572206973206e6f7420612073706f7573652100000000000000000081525060200191505060405180910390fd5b600115156000809054906101000a900460ff16151514612fbe576040517f08c379a000000000000000000000000000000000000000000000000000000000815260040180806020018281038252603181526020018061400c6031913960400191505060405180910390fd5b60001515600060019054906101000a900460ff1615151461302a576040517f08c379a0000000000000000000000000000000000000000000000000000000008152600401808060200182810382526032815260200180613fa96032913960400191505060405180910390fd5b60001515600260003373ffffffffffffffffffffffffffffffffffffffff1673ffffffffffffffffffffffffffffffffffffffff16815260200190815260200160002060009054906101000a900460ff161515146130d3576040517f08c379a0000000000000000000000000000000000000000000000000000000008152600401808060200182810382526027815260200180613f5d6027913960400191505060405180910390fd5b6001600260003373ffffffffffffffffffffffffffffffffffffffff1673ffffffffffffffffffffffffffffffffffffffff16815260200190815260200160002060006101000a81548160ff0219169083151502179055507f55b62450d8ea779081e1216bc8db6e1dad18f927f9c844529af3c95f4a12efac4233604051808381526020018273ffffffffffffffffffffffffffffffffffffffff1673ffffffffffffffffffffffffffffffffffffffff1681526020019250505060405180910390a160026000600360009054906101000a900473ffffffffffffffffffffffffffffffffffffffff1673ffffffffffffffffffffffffffffffffffffffff1673ffffffffffffffffffffffffffffffffffffffff16815260200190815260200160002060009054906101000a900460ff16801561327c575060026000600460009054906101000a900473ffffffffffffffffffffffffffffffffffffffff1673ffffffffffffffffffffffffffffffffffffffff1673ffffffffffffffffffffffffffffffffffffffff16815260200190815260200160002060009054906101000a900460ff165b156134ef576001600060016101000a81548160ff0219169083151502179055507f839fd4d5fe25cf633a1c009dddc92264a0254dc22f07e958ccf709d0e4a3e6f6426040518082815260200191505060405180910390a16000479050600081146134ed576000600282816132ec57fe5b049050600360009054906101000a900473ffffffffffffffffffffffffffffffffffffffff1673ffffffffffffffffffffffffffffffffffffffff166108fc829081150290604051600060405180830381858888f19350505050158015613357573d6000803e3d6000fd5b507f545fa8e09b7aa32e41eb2a2ece3cdfb1e14707a7bc79c78e749c79ea6b544aee42600360009054906101000a900473ffffffffffffffffffffffffffffffffffffffff1683604051808481526020018373ffffffffffffffffffffffffffffffffffffffff1673ffffffffffffffffffffffffffffffffffffffff168152602001828152602001935050505060405180910390a1600460009054906101000a900473ffffffffffffffffffffffffffffffffffffffff1673ffffffffffffffffffffffffffffffffffffffff166108fc829081150290604051600060405180830381858888f19350505050158015613455573d6000803e3d6000fd5b507f545fa8e09b7aa32e41eb2a2ece3cdfb1e14707a7bc79c78e749c79ea6b544aee42600460009054906101000a900473ffffffffffffffffffffffffffffffffffffffff1683604051808481526020018373ffffffffffffffffffffffffffffffffffffffff1673ffffffffffffffffffffffffffffffffffffffff168152602001828152602001935050505060405180910390a1505b505b565b60606000600780549050905060608160405190808252806020026020018201604052801561352e5781602001602082028038833980820191505090505b5090506000600190505b828111613568578082600183038151811061354f57fe5b6020026020010181815250508080600101915050613538565b50809250505090565b600360009054906101000a900473ffffffffffffffffffffffffffffffffffffffff1673ffffffffffffffffffffffffffffffffffffffff163373ffffffffffffffffffffffffffffffffffffffff16148061361a5750600460009054906101000a900473ffffffffffffffffffffffffffffffffffffffff1673ffffffffffffffffffffffffffffffffffffffff163373ffffffffffffffffffffffffffffffffffffffff16145b61368c576040517f08c379a00000000000000000000000000000000000000000000000000000000081526004018080602001828103825260178152602001807f53656e646572206973206e6f7420612073706f7573652100000000000000000081525060200191505060405180910390fd5b600115156000809054906101000a900460ff161515146136f7576040517f08c379a000000000000000000000000000000000000000000000000000000000815260040180806020018281038252603181526020018061400c6031913960400191505060405180910390fd5b60001515600060019054906101000a900460ff16151514613763576040517f08c379a0000000000000000000000000000000000000000000000000000000008152600401808060200182810382526032815260200180613fa96032913960400191505060405180910390fd5b60008111801561377857506007805490508111155b6137ea576040517f08c379a00000000000000000000000000000000000000000000000000000000081526004018080602001828103825260118152602001807f496e76616c69642061737365742069642100000000000000000000000000000081525060200191505060405180910390fd5b6000600760018303815481106137fc57fe5b906000526020600020906006020190508060030160009054906101000a900460ff16613890576040517f08c379a000000000000000000000000000000000000000000000000000000000815260040180806020018281038252601d8152602001807f417373657420686173206e6f74206265656e206164646564207965742100000081525060200191505060405180910390fd5b600015158160030160019054906101000a900460ff1615151461391b576040517f08c379a000000000000000000000000000000000000000000000000000000000815260040180806020018281038252601f8152602001807f41737365742068617320616c7265616479206265656e2072656d6f766564210081525060200191505060405180910390fd5b600015158160050160003373ffffffffffffffffffffffffffffffffffffffff1673ffffffffffffffffffffffffffffffffffffffff16815260200190815260200160002060009054906101000a900460ff161515146139c6576040517f08c379a000000000000000000000000000000000000000000000000000000000815260040180806020018281038252603b815260200180614064603b913960400191505060405180910390fd5b60018160050160003373ffffffffffffffffffffffffffffffffffffffff1673ffffffffffffffffffffffffffffffffffffffff16815260200190815260200160002060006101000a81548160ff0219169083151502179055507ff93032550294098f819077a51e3e2b8879a11d69cb581d05bff781f024dbcced42826000013360405180848152602001806020018373ffffffffffffffffffffffffffffffffffffffff1673ffffffffffffffffffffffffffffffffffffffff168152602001828103825284818154600181600116156101000203166002900481526020019150805460018160011615610100020316600290048015613b085780601f10613add57610100808354040283529160200191613b08565b820191906000526020600020905b815481529060010190602001808311613aeb57829003601f168201915b505094505050505060405180910390a1806005016000600360009054906101000a900473ffffffffffffffffffffffffffffffffffffffff1673ffffffffffffffffffffffffffffffffffffffff1673ffffffffffffffffffffffffffffffffffffffff16815260200190815260200160002060009054906101000a900460ff168015613c025750806005016000600460009054906101000a900473ffffffffffffffffffffffffffffffffffffffff1673ffffffffffffffffffffffffffffffffffffffff1673ffffffffffffffffffffffffffffffffffffffff16815260200190815260200160002060009054906101000a900460ff165b15613ce95760018160030160016101000a81548160ff0219169083151502179055507fa65474ce0cb25adcc4418d9d076204f2791fc43e4c1303383b29d71ab0d978cb42826000016040518083815260200180602001828103825283818154600181600116156101000203166002900481526020019150805460018160011615610100020316600290048015613cd95780601f10613cae57610100808354040283529160200191613cd9565b820191906000526020600020905b815481529060010190602001808311613cbc57829003601f168201915b5050935050505060405180910390a15b5050565b6000816040516020018082805190602001908083835b60208310613d265780518252602082019150602081019050602083039250613d03565b6001836020036101000a03801982511681845116808217855250505050505090500191505060405160208183030381529060405280519060200120836040516020018082805190602001908083835b60208310613d985780518252602082019150602081019050602083039250613d75565b6001836020036101000a038019825116818451168082178552505050505050905001915050604051602081830303815290604052805190602001201415905092915050565b828054600181600116156101000203166002900490600052602060002090601f016020900481019282601f10613e1e57803560ff1916838001178555613e4c565b82800160010185558215613e4c579182015b82811115613e4b578235825591602001919060010190613e30565b5b509050613e599190613f10565b5090565b6040518060a001604052806060815260200160008152602001600081526020016000151581526020016000151581525090565b828054600181600116156101000203166002900490600052602060002090601f016020900481019282601f10613ed157805160ff1916838001178555613eff565b82800160010185558215613eff579182015b82811115613efe578251825591602001919060010190613ee3565b5b509050613f0c9190613f10565b5090565b613f3291905b80821115613f2e576000816000905550600101613f16565b5090565b9056fe546f74616c20616c6c6f636174696f6e206d75737420626520657175616c20746f20313030252153656e6465722068617320616c726561647920617070726f76656420746f206469766f7263652141737365742068617320616c726561647920617070726f7665642062792073656e6465722143616e206e6f742062652063616c6c65642061667465722073706f757365732061677265656420746f206469766f726365215772697474656e20636f6e74726163742069706673206861736820686173206265656e2070726f706f7365642079657421436f6e747261637420686173206e6f74206265656e207369676e656420627920626f74682073706f75736573207965742153706f7573652068617320616c7265616479207369676e65642074686520636f6e74726163742152656d6f76696e67207468652061737365742068617320616c7265616479206265656e20617070726f766564206279207468652073656e6465722153656e64696e672066756e647320746f2061646472657373207a65726f2069732070726f68696269746564215772697474656e20636f6e7472616374206970667320686173682063616e206e6f74206265206368616e6765642e20426f74682073706f75736573206861766520616c7265616479207369676e656420697421a265627a7a7231582047ee7079502c156da4e158136af5931876a54af9e045000056bf479ceb9e747064736f6c6343000510003253706f757365322061646472657373206d757374206e6f74206265207a65726f214775657374426f6f6b2061646472657373206d757374206e6f74206265207a65726f2153706f757365312061646472657373206d757374206e6f74206265207a65726f2153706f757365312061646472657373206d757374206e6f7420657175616c2053706f75736532206164647265737321",
  "source": "pragma solidity ^0.5.0;\n\nimport { GuestBook } from \"./GuestBook.sol\";\n\n\n/**\n * @title SmartWeddingContract\n * @dev The contract has both addresses of spouse1 and spouse2. It is capable of handling assets, funds and\n * divorce. A multisig variant is used to consider the decision of both parties.\n */\ncontract SmartWeddingContract {\n  event WrittenContractProposed(uint timestamp, string ipfsHash, address wallet);\n  event Signed(uint timestamp, address wallet);\n  event ContractSigned(uint timestamp);\n  event AssetProposed(uint timestamp, string asset, address wallet);\n  event AssetAddApproved(uint timestamp, string asset, address wallet);\n  event AssetAdded(uint timestamp, string asset);\n  event AssetRemoveApproved(uint timestamp, string asset, address wallet);\n  event AssetRemoved(uint timestamp, string asset);\n  event DivorceApproved(uint timestamp, address wallet);\n  event Divorced(uint timestamp);\n  event FundsSent(uint timestamp, address wallet, uint amount);\n  event FundsReceived(uint timestamp, address wallet, uint amount);\n\n  bool public signed = false;\n  bool public divorced = false;\n\n  mapping (address => bool) private hasSigned;\n  mapping (address => bool) private hasDivorced;\n\n  address payable public spouse1Address;\n  address payable public spouse2Address;\n  string public writtenContractIpfsHash;\n  address public guestBookAddress;\n\n  struct Asset {\n    string data;\n    uint spouse1Allocation;\n    uint spouse2Allocation;\n    bool added;\n    bool removed;\n    mapping (address => bool) hasApprovedAdd;\n    mapping (address => bool) hasApprovedRemove;\n  }\n\n  Asset[] public assets;\n\n  /**\n   * @dev Modifier that only allows spouse execution.\n    */\n  modifier onlySpouse() {\n    require(msg.sender == spouse1Address || msg.sender == spouse2Address, \"Sender is not a spouse!\");\n    _;\n  }\n\n  /**\n   * @dev Modifier that checks if the contract has been signed by both spouses.\n    */\n  modifier isSigned() {\n    require(signed == true, \"Contract has not been signed by both spouses yet!\");\n    _;\n  }\n\n  /**\n   * @dev Modifier that only allows execution if the spouses have not been divorced.\n    */\n  modifier isNotDivorced() {\n    require(divorced == false, \"Can not be called after spouses agreed to divorce!\");\n    _;\n  }\n\n  /**\n   * @dev Private helper function to check if a string is not equal to another.\n   */\n  function isNotSameString(string memory string1, string memory string2) private pure returns (bool) {\n    return keccak256(abi.encodePacked(string1)) != keccak256(abi.encodePacked(string2));\n  }\n\n  /**\n   * @dev Constructor: Set the wallet addresses of both spouses.\n   * @param _spouse1Address Wallet address of spouse1.\n   * @param _spouse2Address Wallet address of spouse2.\n   */\n  constructor(address payable _guestBookAddress, address payable _spouse1Address, address payable _spouse2Address) public {\n    require(_guestBookAddress != address(0), \"GuestBook address must not be zero!\");\n    require(_spouse1Address != address(0), \"Spouse1 address must not be zero!\");\n    require(_spouse2Address != address(0), \"Spouse2 address must not be zero!\");\n    require(_spouse1Address != _spouse2Address, \"Spouse1 address must not equal Spouse2 address!\");\n\n    spouse1Address = _spouse1Address;\n    spouse2Address = _spouse2Address;\n    guestBookAddress = _guestBookAddress;\n\n  }\n\n  /**\n   * @dev Default function to enable the contract to receive funds.\n   */\n  function() external payable isSigned isNotDivorced {\n    emit FundsReceived(now, msg.sender, msg.value);\n  }\n\n  function getBalance() external view returns (uint) {\n    return address(this).balance;\n  }\n\n  /**\n   * @dev Propose a written contract (update).\n   * @param _writtenContractIpfsHash IPFS hash of the written contract PDF.\n   */\n  function proposeWrittenContract(string calldata _writtenContractIpfsHash) external onlySpouse isNotDivorced {\n    require(signed == false, \"Written contract ipfs hash can not be changed. Both spouses have already signed it!\");\n\n    // Update written contract ipfs hash\n    writtenContractIpfsHash = _writtenContractIpfsHash;\n\n    emit WrittenContractProposed(now, _writtenContractIpfsHash, msg.sender);\n\n    // Revoke previous signatures\n    if (hasSigned[spouse1Address] == true) {\n      hasSigned[spouse1Address] = false;\n    }\n    if (hasSigned[spouse2Address] == true) {\n      hasSigned[spouse2Address] = false;\n    }\n  }\n\n  /**\n   * @dev Sign the contract.\n   */\n  function signContract() external onlySpouse {\n    require(isNotSameString(writtenContractIpfsHash, \"\"), \"Written contract ipfs hash has been proposed yet!\");\n    require(hasSigned[msg.sender] == false, \"Spouse has already signed the contract!\");\n\n    // Sender signed\n    hasSigned[msg.sender] = true;\n\n    emit Signed(now, msg.sender);\n\n    // Check if both spouses have signed\n    if (hasSigned[spouse1Address] && hasSigned[spouse2Address]) {\n      signed = true;\n      GuestBook(guestBookAddress).sendWitnessTokens();\n      emit ContractSigned(now);\n    }\n  }\n\n  /**\n   * @dev Return whether sending spouse has signed.\n   */\n  function senderSigned() external view onlySpouse returns (bool) {\n    return hasSigned[msg.sender];\n  }\n\n  /**\n   * @dev Return whether sending spouse has approved divorce.\n   */\n  function senderDivorced() external view onlySpouse returns (bool) {\n    return hasDivorced[msg.sender];\n  }\n\n  /**\n   * @dev Send ETH to a target address.\n   * @param _to Destination wallet address.\n   * @param _amount Amount of ETH to send.\n   */\n  function pay(address payable _to, uint _amount) external onlySpouse isSigned isNotDivorced {\n    require(_to != address(0), \"Sending funds to address zero is prohibited!\");\n    require(_amount <= address(this).balance, \"Not enough balance available!\");\n\n    // Send funds to the destination address\n    _to.transfer(_amount);\n\n    emit FundsSent(now, _to, _amount);\n  }\n\n  /**\n   * @dev Propose an asset to add. The other spouse needs to approve this action.\n   * @param _data The asset represented as a string.\n   * @param _spouse1Allocation Allocation of spouse1.\n   * @param _spouse2Allocation Allocation of spouse2.\n   */\n  function proposeAsset(string calldata _data, uint _spouse1Allocation, uint _spouse2Allocation) external onlySpouse isSigned isNotDivorced {\n    require(isNotSameString(_data, \"\"), \"No asset data provided!\");\n    require(_spouse1Allocation >= 0, \"spouse1 allocation invalid!\");\n    require(_spouse2Allocation >= 0, \"spouse2 allocation invalid!\");\n    require((_spouse1Allocation + _spouse2Allocation) == 100, \"Total allocation must be equal to 100%!\");\n\n    // Add new asset\n    Asset memory newAsset = Asset({\n      data: _data,\n      spouse1Allocation: _spouse1Allocation,\n      spouse2Allocation: _spouse2Allocation,\n      added: false,\n      removed: false\n    });\n    uint newAssetId = assets.push(newAsset);\n\n    emit AssetProposed(now, _data, msg.sender);\n\n    // Map to a storage object (otherwise mappings could not be accessed)\n    Asset storage asset = assets[newAssetId - 1];\n\n    // Instantly approve it by the sender\n    asset.hasApprovedAdd[msg.sender] = true;\n\n    emit AssetAddApproved(now, _data, msg.sender);\n  }\n\n  /**\n   * @dev Approve the addition of a prior proposed asset. The other spouse needs to approve this action.\n   * @param _assetId The id of the asset that should be approved.\n   */\n  function approveAsset(uint _assetId) external onlySpouse isSigned isNotDivorced {\n    require(_assetId > 0 && _assetId <= assets.length, \"Invalid asset id!\");\n\n    Asset storage asset = assets[_assetId - 1];\n\n    require(asset.added == false, \"Asset has already been added!\");\n    require(asset.removed == false, \"Asset has already been removed!\");\n    require(asset.hasApprovedAdd[msg.sender] == false, \"Asset has already approved by sender!\");\n\n    // Sender approved\n    asset.hasApprovedAdd[msg.sender] = true;\n\n    emit AssetAddApproved(now, asset.data, msg.sender);\n\n    // Check if both spouses have approved\n    if (asset.hasApprovedAdd[spouse1Address] && asset.hasApprovedAdd[spouse2Address]) {\n      asset.added = true;\n      emit AssetAdded(now, asset.data);\n    }\n  }\n\n  /**\n   * @dev Approve the removal of a prior proposed/already added asset. The other spouse needs to approve this action.\n   * @param _assetId The id of the asset that should be removed.\n   */\n  function removeAsset(uint _assetId) external onlySpouse isSigned isNotDivorced {\n    require(_assetId > 0 && _assetId <= assets.length, \"Invalid asset id!\");\n\n    Asset storage asset = assets[_assetId - 1];\n\n    require(asset.added, \"Asset has not been added yet!\");\n    require(asset.removed == false, \"Asset has already been removed!\");\n    require(asset.hasApprovedRemove[msg.sender] == false, \"Removing the asset has already been approved by the sender!\");\n\n    // Approve removal by the sender\n    asset.hasApprovedRemove[msg.sender] = true;\n\n    emit AssetRemoveApproved(now, asset.data, msg.sender);\n\n    // Check if both spouses have approved the removal of the asset\n    if (asset.hasApprovedRemove[spouse1Address] && asset.hasApprovedRemove[spouse2Address]) {\n      asset.removed = true;\n      emit AssetRemoved(now, asset.data);\n    }\n  }\n\n  /**\n   * @dev Request to divorce. The other spouse needs to approve this action.\n   */\n  function divorce() external onlySpouse isSigned isNotDivorced {\n    require(hasDivorced[msg.sender] == false, \"Sender has already approved to divorce!\");\n\n    // Sender approved\n    hasDivorced[msg.sender] = true;\n\n    emit DivorceApproved(now, msg.sender);\n\n    // Check if both spouses have approved to divorce\n    if (hasDivorced[spouse1Address] && hasDivorced[spouse2Address]) {\n      divorced = true;\n      emit Divorced(now);\n\n      // Get the contracts balance\n      uint balance = address(this).balance;\n\n      // Split the remaining balance half-half\n      if (balance != 0) {\n        // Ignore any remainder due to low value\n        uint balancePerSpouse = balance / 2;\n\n        // Send transfer to spouse1\n        spouse1Address.transfer(balancePerSpouse);\n        emit FundsSent(now, spouse1Address, balancePerSpouse);\n\n        // Send transfer to spouse2\n        spouse2Address.transfer(balancePerSpouse);\n        emit FundsSent(now, spouse2Address, balancePerSpouse);\n      }\n    }\n  }\n\n  /**\n   * @dev Return whether asset has been approved by sender.\n   */\n  function assetIsApproved(uint _assetId) external onlySpouse view returns (bool) {\n    require(_assetId > 0 && _assetId <= assets.length, \"Invalid asset id!\");\n    Asset storage asset = assets[_assetId - 1];\n    return asset.hasApprovedAdd[msg.sender];\n  }\n\n  /**\n   * @dev Return whether asset has been removed by sender.\n   */\n  function assetIsRemoved(uint _assetId) external onlySpouse view returns (bool) {\n    require(_assetId > 0 && _assetId <= assets.length, \"Invalid asset id!\");\n    Asset storage asset = assets[_assetId - 1];\n    return asset.hasApprovedRemove[msg.sender];\n  }\n\n  /**\n   * @dev Return a list of all asset ids.\n   */\n  function getAssetIds() external view returns (uint[] memory) {\n    uint assetCount = assets.length;\n    uint[] memory assetIds = new uint[](assetCount);\n\n    // Get all asset ids\n    for (uint i = 1; i <= assetCount; i++) { assetIds[i - 1] = i; }\n\n    return assetIds;\n  }\n}\n",
  "sourcePath": "/home/ford/dev/rwscarb/wedding/contracts/SmartWeddingContract.sol",
  "compiler": {
    "name": "solc",
    "version": "0.5.16+commit.9c3226ce.Emscripten.clang"
  },
  "schemaVersion": "3.3.4",
  "updatedAt": "2021-03-30T18:19:59.143Z",
  "networkType": "ethereum",
  "devdoc": {
    "details": "The contract has both addresses of spouse1 and spouse2. It is capable of handling assets, funds and divorce. A multisig variant is used to consider the decision of both parties.",
    "methods": {
      "approveAsset(uint256)": {
        "details": "Approve the addition of a prior proposed asset. The other spouse needs to approve this action.",
        "params": {
          "_assetId": "The id of the asset that should be approved."
        }
      },
      "assetIsApproved(uint256)": {
        "details": "Return whether asset has been approved by sender."
      },
      "assetIsRemoved(uint256)": {
        "details": "Return whether asset has been removed by sender."
      },
      "constructor": {
        "details": "Constructor: Set the wallet addresses of both spouses.",
        "params": {
          "_spouse1Address": "Wallet address of spouse1.",
          "_spouse2Address": "Wallet address of spouse2."
        }
      },
      "divorce()": {
        "details": "Request to divorce. The other spouse needs to approve this action."
      },
      "getAssetIds()": {
        "details": "Return a list of all asset ids."
      },
      "pay(address,uint256)": {
        "details": "Send ETH to a target address.",
        "params": {
          "_amount": "Amount of ETH to send.",
          "_to": "Destination wallet address."
        }
      },
      "proposeAsset(string,uint256,uint256)": {
        "details": "Propose an asset to add. The other spouse needs to approve this action.",
        "params": {
          "_data": "The asset represented as a string.",
          "_spouse1Allocation": "Allocation of spouse1.",
          "_spouse2Allocation": "Allocation of spouse2."
        }
      },
      "proposeWrittenContract(string)": {
        "details": "Propose a written contract (update).",
        "params": {
          "_writtenContractIpfsHash": "IPFS hash of the written contract PDF."
        }
      },
      "removeAsset(uint256)": {
        "details": "Approve the removal of a prior proposed/already added asset. The other spouse needs to approve this action.",
        "params": {
          "_assetId": "The id of the asset that should be removed."
        }
      },
      "senderDivorced()": {
        "details": "Return whether sending spouse has approved divorce."
      },
      "senderSigned()": {
        "details": "Return whether sending spouse has signed."
      },
      "signContract()": {
        "details": "Sign the contract."
      }
    },
    "title": "SmartWeddingContract"
  },
  "userdoc": {
    "methods": {}
  }
}