{
  "contractName": "SmartWeddingContract",
  "abi": [
    {
      "inputs": [
        {
          "internalType": "address payable",
          "name": "_spouse1Address",
          "type": "address"
        },
        {
          "internalType": "address payable",
          "name": "_spouse2Address",
          "type": "address"
        }
      ],
      "payable": false,
      "stateMutability": "nonpayable",
      "type": "constructor"
    },
    {
      "anonymous": false,
      "inputs": [
        {
          "indexed": false,
          "internalType": "uint256",
          "name": "timestamp",
          "type": "uint256"
        },
        {
          "indexed": false,
          "internalType": "string",
          "name": "asset",
          "type": "string"
        },
        {
          "indexed": false,
          "internalType": "address",
          "name": "wallet",
          "type": "address"
        }
      ],
      "name": "AssetAddApproved",
      "type": "event"
    },
    {
      "anonymous": false,
      "inputs": [
        {
          "indexed": false,
          "internalType": "uint256",
          "name": "timestamp",
          "type": "uint256"
        },
        {
          "indexed": false,
          "internalType": "string",
          "name": "asset",
          "type": "string"
        }
      ],
      "name": "AssetAdded",
      "type": "event"
    },
    {
      "anonymous": false,
      "inputs": [
        {
          "indexed": false,
          "internalType": "uint256",
          "name": "timestamp",
          "type": "uint256"
        },
        {
          "indexed": false,
          "internalType": "string",
          "name": "asset",
          "type": "string"
        },
        {
          "indexed": false,
          "internalType": "address",
          "name": "wallet",
          "type": "address"
        }
      ],
      "name": "AssetProposed",
      "type": "event"
    },
    {
      "anonymous": false,
      "inputs": [
        {
          "indexed": false,
          "internalType": "uint256",
          "name": "timestamp",
          "type": "uint256"
        },
        {
          "indexed": false,
          "internalType": "string",
          "name": "asset",
          "type": "string"
        },
        {
          "indexed": false,
          "internalType": "address",
          "name": "wallet",
          "type": "address"
        }
      ],
      "name": "AssetRemoveApproved",
      "type": "event"
    },
    {
      "anonymous": false,
      "inputs": [
        {
          "indexed": false,
          "internalType": "uint256",
          "name": "timestamp",
          "type": "uint256"
        },
        {
          "indexed": false,
          "internalType": "string",
          "name": "asset",
          "type": "string"
        }
      ],
      "name": "AssetRemoved",
      "type": "event"
    },
    {
      "anonymous": false,
      "inputs": [
        {
          "indexed": false,
          "internalType": "uint256",
          "name": "timestamp",
          "type": "uint256"
        }
      ],
      "name": "ContractSigned",
      "type": "event"
    },
    {
      "anonymous": false,
      "inputs": [
        {
          "indexed": false,
          "internalType": "uint256",
          "name": "timestamp",
          "type": "uint256"
        },
        {
          "indexed": false,
          "internalType": "address",
          "name": "wallet",
          "type": "address"
        }
      ],
      "name": "DivorceApproved",
      "type": "event"
    },
    {
      "anonymous": false,
      "inputs": [
        {
          "indexed": false,
          "internalType": "uint256",
          "name": "timestamp",
          "type": "uint256"
        }
      ],
      "name": "Divorced",
      "type": "event"
    },
    {
      "anonymous": false,
      "inputs": [
        {
          "indexed": false,
          "internalType": "uint256",
          "name": "timestamp",
          "type": "uint256"
        },
        {
          "indexed": false,
          "internalType": "address",
          "name": "wallet",
          "type": "address"
        },
        {
          "indexed": false,
          "internalType": "uint256",
          "name": "amount",
          "type": "uint256"
        }
      ],
      "name": "FundsReceived",
      "type": "event"
    },
    {
      "anonymous": false,
      "inputs": [
        {
          "indexed": false,
          "internalType": "uint256",
          "name": "timestamp",
          "type": "uint256"
        },
        {
          "indexed": false,
          "internalType": "address",
          "name": "wallet",
          "type": "address"
        },
        {
          "indexed": false,
          "internalType": "uint256",
          "name": "amount",
          "type": "uint256"
        }
      ],
      "name": "FundsSent",
      "type": "event"
    },
    {
      "anonymous": false,
      "inputs": [
        {
          "indexed": false,
          "internalType": "uint256",
          "name": "timestamp",
          "type": "uint256"
        },
        {
          "indexed": false,
          "internalType": "address",
          "name": "wallet",
          "type": "address"
        }
      ],
      "name": "GuestAttended",
      "type": "event"
    },
    {
      "anonymous": false,
      "inputs": [
        {
          "indexed": false,
          "internalType": "uint256",
          "name": "timestamp",
          "type": "uint256"
        },
        {
          "indexed": false,
          "internalType": "address",
          "name": "wallet",
          "type": "address"
        },
        {
          "indexed": false,
          "internalType": "address",
          "name": "from",
          "type": "address"
        }
      ],
      "name": "GuestInvited",
      "type": "event"
    },
    {
      "anonymous": false,
      "inputs": [
        {
          "indexed": false,
          "internalType": "uint256",
          "name": "timestamp",
          "type": "uint256"
        },
        {
          "indexed": false,
          "internalType": "address",
          "name": "wallet",
          "type": "address"
        },
        {
          "indexed": false,
          "internalType": "string",
          "name": "name",
          "type": "string"
        },
        {
          "indexed": false,
          "internalType": "string",
          "name": "message",
          "type": "string"
        }
      ],
      "name": "GuestbookSignatureAdded",
      "type": "event"
    },
    {
      "anonymous": false,
      "inputs": [
        {
          "indexed": false,
          "internalType": "uint256",
          "name": "timestamp",
          "type": "uint256"
        },
        {
          "indexed": false,
          "internalType": "address",
          "name": "wallet",
          "type": "address"
        }
      ],
      "name": "Signed",
      "type": "event"
    },
    {
      "anonymous": false,
      "inputs": [
        {
          "indexed": false,
          "internalType": "uint256",
          "name": "timestamp",
          "type": "uint256"
        },
        {
          "indexed": false,
          "internalType": "string",
          "name": "ipfsHash",
          "type": "string"
        },
        {
          "indexed": false,
          "internalType": "address",
          "name": "wallet",
          "type": "address"
        }
      ],
      "name": "WrittenContractProposed",
      "type": "event"
    },
    {
      "payable": true,
      "stateMutability": "payable",
      "type": "fallback"
    },
    {
      "constant": true,
      "inputs": [
        {
          "internalType": "uint256",
          "name": "",
          "type": "uint256"
        }
      ],
      "name": "assets",
      "outputs": [
        {
          "internalType": "string",
          "name": "data",
          "type": "string"
        },
        {
          "internalType": "uint256",
          "name": "spouse1Allocation",
          "type": "uint256"
        },
        {
          "internalType": "uint256",
          "name": "spouse2Allocation",
          "type": "uint256"
        },
        {
          "internalType": "bool",
          "name": "added",
          "type": "bool"
        },
        {
          "internalType": "bool",
          "name": "removed",
          "type": "bool"
        }
      ],
      "payable": false,
      "stateMutability": "view",
      "type": "function"
    },
    {
      "constant": true,
      "inputs": [],
      "name": "divorced",
      "outputs": [
        {
          "internalType": "bool",
          "name": "",
          "type": "bool"
        }
      ],
      "payable": false,
      "stateMutability": "view",
      "type": "function"
    },
    {
      "constant": true,
      "inputs": [],
      "name": "signed",
      "outputs": [
        {
          "internalType": "bool",
          "name": "",
          "type": "bool"
        }
      ],
      "payable": false,
      "stateMutability": "view",
      "type": "function"
    },
    {
      "constant": true,
      "inputs": [],
      "name": "spouse1Address",
      "outputs": [
        {
          "internalType": "address payable",
          "name": "",
          "type": "address"
        }
      ],
      "payable": false,
      "stateMutability": "view",
      "type": "function"
    },
    {
      "constant": true,
      "inputs": [],
      "name": "spouse2Address",
      "outputs": [
        {
          "internalType": "address payable",
          "name": "",
          "type": "address"
        }
      ],
      "payable": false,
      "stateMutability": "view",
      "type": "function"
    },
    {
      "constant": true,
      "inputs": [],
      "name": "writtenContractIpfsHash",
      "outputs": [
        {
          "internalType": "string",
          "name": "",
          "type": "string"
        }
      ],
      "payable": false,
      "stateMutability": "view",
      "type": "function"
    },
    {
      "constant": true,
      "inputs": [],
      "name": "getBalance",
      "outputs": [
        {
          "internalType": "uint256",
          "name": "",
          "type": "uint256"
        }
      ],
      "payable": false,
      "stateMutability": "view",
      "type": "function"
    },
    {
      "constant": false,
      "inputs": [
        {
          "internalType": "address payable",
          "name": "_to",
          "type": "address"
        }
      ],
      "name": "sendInvitation",
      "outputs": [],
      "payable": false,
      "stateMutability": "nonpayable",
      "type": "function"
    },
    {
      "constant": true,
      "inputs": [],
      "name": "getInvitationTokenAddress",
      "outputs": [
        {
          "internalType": "address",
          "name": "",
          "type": "address"
        }
      ],
      "payable": false,
      "stateMutability": "view",
      "type": "function"
    },
    {
      "constant": true,
      "inputs": [],
      "name": "getWitnessTokenAddress",
      "outputs": [
        {
          "internalType": "address",
          "name": "",
          "type": "address"
        }
      ],
      "payable": false,
      "stateMutability": "view",
      "type": "function"
    },
    {
      "constant": false,
      "inputs": [
        {
          "internalType": "string",
          "name": "name",
          "type": "string"
        },
        {
          "internalType": "string",
          "name": "message",
          "type": "string"
        }
      ],
      "name": "signGuestBook",
      "outputs": [],
      "payable": false,
      "stateMutability": "nonpayable",
      "type": "function"
    },
    {
      "constant": true,
      "inputs": [],
      "name": "getGuestBookEntries",
      "outputs": [
        {
          "components": [
            {
              "internalType": "address",
              "name": "sender",
              "type": "address"
            },
            {
              "internalType": "string",
              "name": "name",
              "type": "string"
            },
            {
              "internalType": "string",
              "name": "message",
              "type": "string"
            }
          ],
          "internalType": "struct SmartWeddingContract.GuestBookEntry[]",
          "name": "",
          "type": "tuple[]"
        }
      ],
      "payable": false,
      "stateMutability": "view",
      "type": "function"
    },
    {
      "constant": false,
      "inputs": [
        {
          "internalType": "string",
          "name": "_writtenContractIpfsHash",
          "type": "string"
        }
      ],
      "name": "proposeWrittenContract",
      "outputs": [],
      "payable": false,
      "stateMutability": "nonpayable",
      "type": "function"
    },
    {
      "constant": false,
      "inputs": [],
      "name": "signContract",
      "outputs": [],
      "payable": false,
      "stateMutability": "nonpayable",
      "type": "function"
    },
    {
      "constant": false,
      "inputs": [
        {
          "internalType": "address payable",
          "name": "_to",
          "type": "address"
        },
        {
          "internalType": "uint256",
          "name": "_amount",
          "type": "uint256"
        }
      ],
      "name": "pay",
      "outputs": [],
      "payable": false,
      "stateMutability": "nonpayable",
      "type": "function"
    },
    {
      "constant": false,
      "inputs": [
        {
          "internalType": "string",
          "name": "_data",
          "type": "string"
        },
        {
          "internalType": "uint256",
          "name": "_spouse1Allocation",
          "type": "uint256"
        },
        {
          "internalType": "uint256",
          "name": "_spouse2Allocation",
          "type": "uint256"
        }
      ],
      "name": "proposeAsset",
      "outputs": [],
      "payable": false,
      "stateMutability": "nonpayable",
      "type": "function"
    },
    {
      "constant": false,
      "inputs": [
        {
          "internalType": "uint256",
          "name": "_assetId",
          "type": "uint256"
        }
      ],
      "name": "approveAsset",
      "outputs": [],
      "payable": false,
      "stateMutability": "nonpayable",
      "type": "function"
    },
    {
      "constant": false,
      "inputs": [
        {
          "internalType": "uint256",
          "name": "_assetId",
          "type": "uint256"
        }
      ],
      "name": "removeAsset",
      "outputs": [],
      "payable": false,
      "stateMutability": "nonpayable",
      "type": "function"
    },
    {
      "constant": false,
      "inputs": [],
      "name": "divorce",
      "outputs": [],
      "payable": false,
      "stateMutability": "nonpayable",
      "type": "function"
    },
    {
      "constant": true,
      "inputs": [
        {
          "internalType": "uint256",
          "name": "_assetId",
          "type": "uint256"
        }
      ],
      "name": "assetIsApproved",
      "outputs": [
        {
          "internalType": "bool",
          "name": "",
          "type": "bool"
        }
      ],
      "payable": false,
      "stateMutability": "view",
      "type": "function"
    },
    {
      "constant": true,
      "inputs": [
        {
          "internalType": "uint256",
          "name": "_assetId",
          "type": "uint256"
        }
      ],
      "name": "assetIsRemoved",
      "outputs": [
        {
          "internalType": "bool",
          "name": "",
          "type": "bool"
        }
      ],
      "payable": false,
      "stateMutability": "view",
      "type": "function"
    },
    {
      "constant": true,
      "inputs": [],
      "name": "getAssetIds",
      "outputs": [
        {
          "internalType": "uint256[]",
          "name": "",
          "type": "uint256[]"
        }
      ],
      "payable": false,
      "stateMutability": "view",
      "type": "function"
    }
  ],
  "bytecode": "0x608060405260008060006101000a81548160ff02191690831515021790555060008060016101000a81548160ff021916908315150217905550604051620000469062000529565b604051809103906000f08015801562000063573d6000803e3d6000fd5b50600260006101000a81548173ffffffffffffffffffffffffffffffffffffffff021916908373ffffffffffffffffffffffffffffffffffffffff160217905550604051620000b29062000537565b604051809103906000f080158015620000cf573d6000803e3d6000fd5b50600360006101000a81548173ffffffffffffffffffffffffffffffffffffffff021916908373ffffffffffffffffffffffffffffffffffffffff1602179055503480156200011d57600080fd5b5060405162007e6738038062007e6783398181016040526200014391908101906200055c565b600073ffffffffffffffffffffffffffffffffffffffff168273ffffffffffffffffffffffffffffffffffffffff161415620001b6576040517f08c379a0000000000000000000000000000000000000000000000000000000008152600401620001ad90620006f7565b60405180910390fd5b600073ffffffffffffffffffffffffffffffffffffffff168173ffffffffffffffffffffffffffffffffffffffff16141562000229576040517f08c379a00000000000000000000000000000000000000000000000000000000081526004016200022090620006d5565b60405180910390fd5b8073ffffffffffffffffffffffffffffffffffffffff168273ffffffffffffffffffffffffffffffffffffffff1614156200029b576040517f08c379a0000000000000000000000000000000000000000000000000000000008152600401620002929062000719565b60405180910390fd5b81600860006101000a81548173ffffffffffffffffffffffffffffffffffffffff021916908373ffffffffffffffffffffffffffffffffffffffff16021790555080600960006101000a81548173ffffffffffffffffffffffffffffffffffffffff021916908373ffffffffffffffffffffffffffffffffffffffff160217905550600160066000600860009054906101000a900473ffffffffffffffffffffffffffffffffffffffff1673ffffffffffffffffffffffffffffffffffffffff1673ffffffffffffffffffffffffffffffffffffffff16815260200190815260200160002060006101000a81548160ff0219169083151502179055506001600860009054906101000a900473ffffffffffffffffffffffffffffffffffffffff1690806001815401808255809150509060018203906000526020600020016000909192909190916101000a81548173ffffffffffffffffffffffffffffffffffffffff021916908373ffffffffffffffffffffffffffffffffffffffff16021790555050600160066000600960009054906101000a900473ffffffffffffffffffffffffffffffffffffffff1673ffffffffffffffffffffffffffffffffffffffff1673ffffffffffffffffffffffffffffffffffffffff16815260200190815260200160002060006101000a81548160ff0219169083151502179055506001600960009054906101000a900473ffffffffffffffffffffffffffffffffffffffff1690806001815401808255809150509060018203906000526020600020016000909192909190916101000a81548173ffffffffffffffffffffffffffffffffffffffff021916908373ffffffffffffffffffffffffffffffffffffffff1602179055505050506200079a565b6114db80620054b183390190565b6114db806200698c83390190565b600081519050620005568162000780565b92915050565b600080604083850312156200057057600080fd5b6000620005808582860162000545565b9250506020620005938582860162000545565b9150509250929050565b6000620005ac6021836200073b565b91507f53706f757365322061646472657373206d757374206e6f74206265207a65726f60008301527f21000000000000000000000000000000000000000000000000000000000000006020830152604082019050919050565b6000620006146021836200073b565b91507f53706f757365312061646472657373206d757374206e6f74206265207a65726f60008301527f21000000000000000000000000000000000000000000000000000000000000006020830152604082019050919050565b60006200067c602f836200073b565b91507f53706f757365312061646472657373206d757374206e6f7420657175616c205360008301527f706f7573653220616464726573732100000000000000000000000000000000006020830152604082019050919050565b60006020820190508181036000830152620006f0816200059d565b9050919050565b60006020820190508181036000830152620007128162000605565b9050919050565b6000602082019050818103600083015262000734816200066d565b9050919050565b600082825260208201905092915050565b6000620007598262000760565b9050919050565b600073ffffffffffffffffffffffffffffffffffffffff82169050919050565b6200078b816200074c565b81146200079757600080fd5b50565b614d0780620007aa6000396000f3fe6080604052600436106101355760003560e01c806389089c58116100ab578063c6dca1d21161006f578063c6dca1d2146104d5578063cf35bdd0146104fe578063dff44b2f1461053f578063e07e030e14610556578063e47e1c0b1461057f578063f14f58f1146105aa57610135565b806389089c58146104145780639463c9551461043f578063aebdc8aa1461046a578063b8b4f1a014610495578063c4076876146104ac57610135565b80632e14772a116100fd5780632e14772a1461030457806335028d351461032d578063528e2ee91461036a578063569ad3db146103955780635fd8616e146103c0578063864d7e14146103eb57610135565b80630d7800121461021d5780631148da2f1461024857806312065fe0146102715780631920c2291461029c578063232a6b9d146102d9575b600115156000809054906101000a900460ff1615151461018a576040517f08c379a0000000000000000000000000000000000000000000000000000000008152600401610181906147b4565b60405180910390fd5b60001515600060019054906101000a900460ff161515146101e0576040517f08c379a00000000000000000000000000000000000000000000000000000000081526004016101d790614774565b60405180910390fd5b7ffb932f39cc5ea177af75a4f1502d59d13404be49a2edb139943b43e4fb3fe45b42333460405161021393929190614982565b60405180910390a1005b34801561022957600080fd5b506102326105d3565b60405161023f9190614496565b60405180910390f35b34801561025457600080fd5b5061026f600480360361026a91908101906138c8565b6105fd565b005b34801561027d57600080fd5b506102866109cf565b60405161029391906148b4565b60405180910390f35b3480156102a857600080fd5b506102c360048036036102be91908101906139e5565b6109d7565b6040516102d0919061457d565b60405180910390f35b3480156102e557600080fd5b506102ee610b8e565b6040516102fb919061457d565b60405180910390f35b34801561031057600080fd5b5061032b60048036036103269190810190613979565b610ba0565b005b34801561033957600080fd5b50610354600480360361034f91908101906139e5565b610d5b565b604051610361919061457d565b60405180910390f35b34801561037657600080fd5b5061037f610f12565b60405161038c919061457d565b60405180910390f35b3480156103a157600080fd5b506103aa610f25565b6040516103b791906144cc565b60405180910390f35b3480156103cc57600080fd5b506103d5610f4b565b6040516103e29190614598565b60405180910390f35b3480156103f757600080fd5b50610412600480360361040d91908101906139e5565b610fe9565b005b34801561042057600080fd5b5061042961151c565b60405161043691906144cc565b60405180910390f35b34801561044b57600080fd5b50610454611542565b6040516104619190614539565b60405180910390f35b34801561047657600080fd5b5061047f61173b565b60405161048c9190614496565b60405180910390f35b3480156104a157600080fd5b506104aa611765565b005b3480156104b857600080fd5b506104d360048036036104ce9190810190613863565b611d5f565b005b3480156104e157600080fd5b506104fc60048036036104f7919081019061390d565b61202b565b005b34801561050a57600080fd5b50610525600480360361052091908101906139e5565b612546565b6040516105369594939291906145ba565b60405180910390f35b34801561054b57600080fd5b5061055461263b565b005b34801561056257600080fd5b5061057d6004803603610578919081019061383a565b612bdd565b005b34801561058b57600080fd5b50610594612fb3565b6040516105a1919061455b565b60405180910390f35b3480156105b657600080fd5b506105d160048036036105cc91908101906139e5565b613033565b005b6000600360009054906101000a900473ffffffffffffffffffffffffffffffffffffffff16905090565b600860009054906101000a900473ffffffffffffffffffffffffffffffffffffffff1673ffffffffffffffffffffffffffffffffffffffff163373ffffffffffffffffffffffffffffffffffffffff1614806106a65750600960009054906101000a900473ffffffffffffffffffffffffffffffffffffffff1673ffffffffffffffffffffffffffffffffffffffff163373ffffffffffffffffffffffffffffffffffffffff16145b6106e5576040517f08c379a00000000000000000000000000000000000000000000000000000000081526004016106dc90614614565b60405180910390fd5b60001515600060019054906101000a900460ff1615151461073b576040517f08c379a000000000000000000000000000000000000000000000000000000000815260040161073290614774565b60405180910390fd5b600015156000809054906101000a900460ff16151514610790576040517f08c379a000000000000000000000000000000000000000000000000000000000815260040161078790614894565b60405180910390fd5b8181600a91906107a19291906135b9565b507fb1240eb63e0993abdb7363bbae0a2eba839411476521ce77871e26da13cfbb0b428383336040516107d794939291906149b9565b60405180910390a16001151560046000600860009054906101000a900473ffffffffffffffffffffffffffffffffffffffff1673ffffffffffffffffffffffffffffffffffffffff1673ffffffffffffffffffffffffffffffffffffffff16815260200190815260200160002060009054906101000a900460ff16151514156108d557600060046000600860009054906101000a900473ffffffffffffffffffffffffffffffffffffffff1673ffffffffffffffffffffffffffffffffffffffff1673ffffffffffffffffffffffffffffffffffffffff16815260200190815260200160002060006101000a81548160ff0219169083151502179055505b6001151560046000600960009054906101000a900473ffffffffffffffffffffffffffffffffffffffff1673ffffffffffffffffffffffffffffffffffffffff1673ffffffffffffffffffffffffffffffffffffffff16815260200190815260200160002060009054906101000a900460ff16151514156109cb57600060046000600960009054906101000a900473ffffffffffffffffffffffffffffffffffffffff1673ffffffffffffffffffffffffffffffffffffffff1673ffffffffffffffffffffffffffffffffffffffff16815260200190815260200160002060006101000a81548160ff0219169083151502179055505b5050565b600047905090565b6000600860009054906101000a900473ffffffffffffffffffffffffffffffffffffffff1673ffffffffffffffffffffffffffffffffffffffff163373ffffffffffffffffffffffffffffffffffffffff161480610a825750600960009054906101000a900473ffffffffffffffffffffffffffffffffffffffff1673ffffffffffffffffffffffffffffffffffffffff163373ffffffffffffffffffffffffffffffffffffffff16145b610ac1576040517f08c379a0000000000000000000000000000000000000000000000000000000008152600401610ab890614614565b60405180910390fd5b600082118015610ad65750600b805490508211155b610b15576040517f08c379a0000000000000000000000000000000000000000000000000000000008152600401610b0c90614854565b60405180910390fd5b6000600b6001840381548110610b2757fe5b906000526020600020906006020190508060040160003373ffffffffffffffffffffffffffffffffffffffff1673ffffffffffffffffffffffffffffffffffffffff16815260200190815260200160002060009054906101000a900460ff16915050919050565b6000809054906101000a900460ff1681565b600660003373ffffffffffffffffffffffffffffffffffffffff1673ffffffffffffffffffffffffffffffffffffffff16815260200190815260200160002060009054906101000a900460ff16610c2c576040517f08c379a0000000000000000000000000000000000000000000000000000000008152600401610c2390614734565b60405180910390fd5b610c34613639565b60405180606001604052803373ffffffffffffffffffffffffffffffffffffffff168152602001848152602001838152509050600c819080600181540180825580915050906001820390600052602060002090600302016000909192909190915060008201518160000160006101000a81548173ffffffffffffffffffffffffffffffffffffffff021916908373ffffffffffffffffffffffffffffffffffffffff1602179055506020820151816001019080519060200190610cf8929190613670565b506040820151816002019080519060200190610d15929190613670565b505050507f1454b16ac9f7a8edb66fbb64d56a2fc00a3e08f079f3ee97591b601b51c5e11742338585604051610d4e949392919061492f565b60405180910390a1505050565b6000600860009054906101000a900473ffffffffffffffffffffffffffffffffffffffff1673ffffffffffffffffffffffffffffffffffffffff163373ffffffffffffffffffffffffffffffffffffffff161480610e065750600960009054906101000a900473ffffffffffffffffffffffffffffffffffffffff1673ffffffffffffffffffffffffffffffffffffffff163373ffffffffffffffffffffffffffffffffffffffff16145b610e45576040517f08c379a0000000000000000000000000000000000000000000000000000000008152600401610e3c90614614565b60405180910390fd5b600082118015610e5a5750600b805490508211155b610e99576040517f08c379a0000000000000000000000000000000000000000000000000000000008152600401610e9090614854565b60405180910390fd5b6000600b6001840381548110610eab57fe5b906000526020600020906006020190508060050160003373ffffffffffffffffffffffffffffffffffffffff1673ffffffffffffffffffffffffffffffffffffffff16815260200190815260200160002060009054906101000a900460ff16915050919050565b600060019054906101000a900460ff1681565b600860009054906101000a900473ffffffffffffffffffffffffffffffffffffffff1681565b600a8054600181600116156101000203166002900480601f016020809104026020016040519081016040528092919081815260200182805460018160011615610100020316600290048015610fe15780601f10610fb657610100808354040283529160200191610fe1565b820191906000526020600020905b815481529060010190602001808311610fc457829003601f168201915b505050505081565b600860009054906101000a900473ffffffffffffffffffffffffffffffffffffffff1673ffffffffffffffffffffffffffffffffffffffff163373ffffffffffffffffffffffffffffffffffffffff1614806110925750600960009054906101000a900473ffffffffffffffffffffffffffffffffffffffff1673ffffffffffffffffffffffffffffffffffffffff163373ffffffffffffffffffffffffffffffffffffffff16145b6110d1576040517f08c379a00000000000000000000000000000000000000000000000000000000081526004016110c890614614565b60405180910390fd5b600115156000809054906101000a900460ff16151514611126576040517f08c379a000000000000000000000000000000000000000000000000000000000815260040161111d906147b4565b60405180910390fd5b60001515600060019054906101000a900460ff1615151461117c576040517f08c379a000000000000000000000000000000000000000000000000000000000815260040161117390614774565b60405180910390fd5b6000811180156111915750600b805490508111155b6111d0576040517f08c379a00000000000000000000000000000000000000000000000000000000081526004016111c790614854565b60405180910390fd5b6000600b60018303815481106111e257fe5b90600052602060002090600602019050600015158160030160009054906101000a900460ff1615151461124a576040517f08c379a000000000000000000000000000000000000000000000000000000000815260040161124190614674565b60405180910390fd5b600015158160030160019054906101000a900460ff161515146112a2576040517f08c379a000000000000000000000000000000000000000000000000000000000815260040161129990614654565b60405180910390fd5b600015158160040160003373ffffffffffffffffffffffffffffffffffffffff1673ffffffffffffffffffffffffffffffffffffffff16815260200190815260200160002060009054906101000a900460ff16151514611337576040517f08c379a000000000000000000000000000000000000000000000000000000000815260040161132e90614714565b60405180910390fd5b60018160040160003373ffffffffffffffffffffffffffffffffffffffff1673ffffffffffffffffffffffffffffffffffffffff16815260200190815260200160002060006101000a81548160ff0219169083151502179055507f6822211f8413454a7fab01c874d36d5ab0dd786606a32f84b87890be38825d254282600001336040516113c793929190614a29565b60405180910390a1806004016000600860009054906101000a900473ffffffffffffffffffffffffffffffffffffffff1673ffffffffffffffffffffffffffffffffffffffff1673ffffffffffffffffffffffffffffffffffffffff16815260200190815260200160002060009054906101000a900460ff1680156114b95750806004016000600960009054906101000a900473ffffffffffffffffffffffffffffffffffffffff1673ffffffffffffffffffffffffffffffffffffffff1673ffffffffffffffffffffffffffffffffffffffff16815260200190815260200160002060009054906101000a900460ff165b156115185760018160030160006101000a81548160ff0219169083151502179055507f65d503a6d77e4a61eae8cf0284a0edf59c61659ceb7585a11664c40e8fcf09fa428260000160405161150f9291906149f9565b60405180910390a15b5050565b600960009054906101000a900473ffffffffffffffffffffffffffffffffffffffff1681565b6060600c805480602002602001604051908101604052809291908181526020016000905b8282101561173257838290600052602060002090600302016040518060600160405290816000820160009054906101000a900473ffffffffffffffffffffffffffffffffffffffff1673ffffffffffffffffffffffffffffffffffffffff1673ffffffffffffffffffffffffffffffffffffffff168152602001600182018054600181600116156101000203166002900480601f0160208091040260200160405190810160405280929190818152602001828054600181600116156101000203166002900480156116785780601f1061164d57610100808354040283529160200191611678565b820191906000526020600020905b81548152906001019060200180831161165b57829003601f168201915b50505050508152602001600282018054600181600116156101000203166002900480601f01602080910402602001604051908101604052809291908181526020018280546001816001161561010002031660029004801561171a5780601f106116ef5761010080835404028352916020019161171a565b820191906000526020600020905b8154815290600101906020018083116116fd57829003601f168201915b50505050508152505081526020019060010190611566565b50505050905090565b6000600260009054906101000a900473ffffffffffffffffffffffffffffffffffffffff16905090565b600860009054906101000a900473ffffffffffffffffffffffffffffffffffffffff1673ffffffffffffffffffffffffffffffffffffffff163373ffffffffffffffffffffffffffffffffffffffff16148061180e5750600960009054906101000a900473ffffffffffffffffffffffffffffffffffffffff1673ffffffffffffffffffffffffffffffffffffffff163373ffffffffffffffffffffffffffffffffffffffff16145b61184d576040517f08c379a000000000000000000000000000000000000000000000000000000000815260040161184490614614565b60405180910390fd5b611900600a8054600181600116156101000203166002900480601f0160208091040260200160405190810160405280929190818152602001828054600181600116156101000203166002900480156118e65780601f106118bb576101008083540402835291602001916118e6565b820191906000526020600020905b8154815290600101906020018083116118c957829003601f168201915b50505050506040518060200160405280600081525061355f565b61193f576040517f08c379a000000000000000000000000000000000000000000000000000000000815260040161193690614794565b60405180910390fd5b60001515600460003373ffffffffffffffffffffffffffffffffffffffff1673ffffffffffffffffffffffffffffffffffffffff16815260200190815260200160002060009054906101000a900460ff161515146119d2576040517f08c379a00000000000000000000000000000000000000000000000000000000081526004016119c990614814565b60405180910390fd5b6001600460003373ffffffffffffffffffffffffffffffffffffffff1673ffffffffffffffffffffffffffffffffffffffff16815260200190815260200160002060006101000a81548160ff0219169083151502179055507f80bc357386c693c2d6ad5938af6765eacd7d7790c17e39c014ab30def63941654233604051611a5b9291906148cf565b60405180910390a160046000600860009054906101000a900473ffffffffffffffffffffffffffffffffffffffff1673ffffffffffffffffffffffffffffffffffffffff1673ffffffffffffffffffffffffffffffffffffffff16815260200190815260200160002060009054906101000a900460ff168015611b49575060046000600960009054906101000a900473ffffffffffffffffffffffffffffffffffffffff1673ffffffffffffffffffffffffffffffffffffffff1673ffffffffffffffffffffffffffffffffffffffff16815260200190815260200160002060009054906101000a900460ff165b15611d5d5760016000806101000a81548160ff02191690831515021790555060008090505b600180549050811015611d24576000600360009054906101000a900473ffffffffffffffffffffffffffffffffffffffff1673ffffffffffffffffffffffffffffffffffffffff166370a08231306040518263ffffffff1660e01b8152600401611bd891906144b1565b60206040518083038186803b158015611bf057600080fd5b505afa158015611c04573d6000803e3d6000fd5b505050506040513d601f19601f82011682018060405250611c289190810190613a0e565b1115611d1757600360009054906101000a900473ffffffffffffffffffffffffffffffffffffffff1673ffffffffffffffffffffffffffffffffffffffff1663a9059cbb60018381548110611c7957fe5b9060005260206000200160009054906101000a900473ffffffffffffffffffffffffffffffffffffffff1660016040518363ffffffff1660e01b8152600401611cc3929190614510565b602060405180830381600087803b158015611cdd57600080fd5b505af1158015611cf1573d6000803e3d6000fd5b505050506040513d601f19601f82011682018060405250611d15919081019061389f565b505b8080600101915050611b6e565b507faf3c49f5413fd292e2325b0fe214de144a222b00cb6ec21214fdc04b5d6c591342604051611d5491906148b4565b60405180910390a15b565b600860009054906101000a900473ffffffffffffffffffffffffffffffffffffffff1673ffffffffffffffffffffffffffffffffffffffff163373ffffffffffffffffffffffffffffffffffffffff161480611e085750600960009054906101000a900473ffffffffffffffffffffffffffffffffffffffff1673ffffffffffffffffffffffffffffffffffffffff163373ffffffffffffffffffffffffffffffffffffffff16145b611e47576040517f08c379a0000000000000000000000000000000000000000000000000000000008152600401611e3e90614614565b60405180910390fd5b600115156000809054906101000a900460ff16151514611e9c576040517f08c379a0000000000000000000000000000000000000000000000000000000008152600401611e93906147b4565b60405180910390fd5b60001515600060019054906101000a900460ff16151514611ef2576040517f08c379a0000000000000000000000000000000000000000000000000000000008152600401611ee990614774565b60405180910390fd5b600073ffffffffffffffffffffffffffffffffffffffff168273ffffffffffffffffffffffffffffffffffffffff161415611f62576040517f08c379a0000000000000000000000000000000000000000000000000000000008152600401611f5990614874565b60405180910390fd5b47811115611fa5576040517f08c379a0000000000000000000000000000000000000000000000000000000008152600401611f9c90614754565b60405180910390fd5b8173ffffffffffffffffffffffffffffffffffffffff166108fc829081150290604051600060405180830381858888f19350505050158015611feb573d6000803e3d6000fd5b507f545fa8e09b7aa32e41eb2a2ece3cdfb1e14707a7bc79c78e749c79ea6b544aee42838360405161201f93929190614982565b60405180910390a15050565b600860009054906101000a900473ffffffffffffffffffffffffffffffffffffffff1673ffffffffffffffffffffffffffffffffffffffff163373ffffffffffffffffffffffffffffffffffffffff1614806120d45750600960009054906101000a900473ffffffffffffffffffffffffffffffffffffffff1673ffffffffffffffffffffffffffffffffffffffff163373ffffffffffffffffffffffffffffffffffffffff16145b612113576040517f08c379a000000000000000000000000000000000000000000000000000000000815260040161210a90614614565b60405180910390fd5b600115156000809054906101000a900460ff16151514612168576040517f08c379a000000000000000000000000000000000000000000000000000000000815260040161215f906147b4565b60405180910390fd5b60001515600060019054906101000a900460ff161515146121be576040517f08c379a00000000000000000000000000000000000000000000000000000000081526004016121b590614774565b60405180910390fd5b61221b84848080601f016020809104026020016040519081016040528093929190818152602001838380828437600081840152601f19601f820116905080830192505050505050506040518060200160405280600081525061355f565b61225a576040517f08c379a000000000000000000000000000000000000000000000000000000000815260040161225190614634565b60405180910390fd5b600082101561229e576040517f08c379a0000000000000000000000000000000000000000000000000000000008152600401612295906147f4565b60405180910390fd5b60008110156122e2576040517f08c379a00000000000000000000000000000000000000000000000000000000081526004016122d990614694565b60405180910390fd5b606481830114612327576040517f08c379a000000000000000000000000000000000000000000000000000000000815260040161231e906146d4565b60405180910390fd5b61232f6136f0565b6040518060a0016040528086868080601f016020809104026020016040519081016040528093929190818152602001838380828437600081840152601f19601f8201169050808301925050505050505081526020018481526020018381526020016000151581526020016000151581525090506000600b829080600181540180825580915050906001820390600052602060002090600602016000909192909190915060008201518160000190805190602001906123ee929190613670565b50602082015181600101556040820151816002015560608201518160030160006101000a81548160ff02191690831515021790555060808201518160030160016101000a81548160ff021916908315150217905550505090507fd9d10bbb83b2aa16a59e7fc6a6f4625d8eb082f9d50eb619ea6204bf7beb8f5d4287873360405161247c94939291906149b9565b60405180910390a16000600b600183038154811061249657fe5b9060005260206000209060060201905060018160040160003373ffffffffffffffffffffffffffffffffffffffff1673ffffffffffffffffffffffffffffffffffffffff16815260200190815260200160002060006101000a81548160ff0219169083151502179055507f6822211f8413454a7fab01c874d36d5ab0dd786606a32f84b87890be38825d254288883360405161253594939291906149b9565b60405180910390a150505050505050565b600b818154811061255357fe5b9060005260206000209060060201600091509050806000018054600181600116156101000203166002900480601f0160208091040260200160405190810160405280929190818152602001828054600181600116156101000203166002900480156125ff5780601f106125d4576101008083540402835291602001916125ff565b820191906000526020600020905b8154815290600101906020018083116125e257829003601f168201915b5050505050908060010154908060020154908060030160009054906101000a900460ff16908060030160019054906101000a900460ff16905085565b600860009054906101000a900473ffffffffffffffffffffffffffffffffffffffff1673ffffffffffffffffffffffffffffffffffffffff163373ffffffffffffffffffffffffffffffffffffffff1614806126e45750600960009054906101000a900473ffffffffffffffffffffffffffffffffffffffff1673ffffffffffffffffffffffffffffffffffffffff163373ffffffffffffffffffffffffffffffffffffffff16145b612723576040517f08c379a000000000000000000000000000000000000000000000000000000000815260040161271a90614614565b60405180910390fd5b600115156000809054906101000a900460ff16151514612778576040517f08c379a000000000000000000000000000000000000000000000000000000000815260040161276f906147b4565b60405180910390fd5b60001515600060019054906101000a900460ff161515146127ce576040517f08c379a00000000000000000000000000000000000000000000000000000000081526004016127c590614774565b60405180910390fd5b60001515600560003373ffffffffffffffffffffffffffffffffffffffff1673ffffffffffffffffffffffffffffffffffffffff16815260200190815260200160002060009054906101000a900460ff16151514612861576040517f08c379a0000000000000000000000000000000000000000000000000000000008152600401612858906146f4565b60405180910390fd5b6001600560003373ffffffffffffffffffffffffffffffffffffffff1673ffffffffffffffffffffffffffffffffffffffff16815260200190815260200160002060006101000a81548160ff0219169083151502179055507f55b62450d8ea779081e1216bc8db6e1dad18f927f9c844529af3c95f4a12efac42336040516128ea9291906148cf565b60405180910390a160056000600860009054906101000a900473ffffffffffffffffffffffffffffffffffffffff1673ffffffffffffffffffffffffffffffffffffffff1673ffffffffffffffffffffffffffffffffffffffff16815260200190815260200160002060009054906101000a900460ff1680156129d8575060056000600960009054906101000a900473ffffffffffffffffffffffffffffffffffffffff1673ffffffffffffffffffffffffffffffffffffffff1673ffffffffffffffffffffffffffffffffffffffff16815260200190815260200160002060009054906101000a900460ff165b15612bdb576001600060016101000a81548160ff0219169083151502179055507f839fd4d5fe25cf633a1c009dddc92264a0254dc22f07e958ccf709d0e4a3e6f642604051612a2791906148b4565b60405180910390a1600047905060008114612bd957600060028281612a4857fe5b049050600860009054906101000a900473ffffffffffffffffffffffffffffffffffffffff1673ffffffffffffffffffffffffffffffffffffffff166108fc829081150290604051600060405180830381858888f19350505050158015612ab3573d6000803e3d6000fd5b507f545fa8e09b7aa32e41eb2a2ece3cdfb1e14707a7bc79c78e749c79ea6b544aee42600860009054906101000a900473ffffffffffffffffffffffffffffffffffffffff1683604051612b0993929190614982565b60405180910390a1600960009054906101000a900473ffffffffffffffffffffffffffffffffffffffff1673ffffffffffffffffffffffffffffffffffffffff166108fc829081150290604051600060405180830381858888f19350505050158015612b79573d6000803e3d6000fd5b507f545fa8e09b7aa32e41eb2a2ece3cdfb1e14707a7bc79c78e749c79ea6b544aee42600960009054906101000a900473ffffffffffffffffffffffffffffffffffffffff1683604051612bcf93929190614982565b60405180910390a1505b505b565b600860009054906101000a900473ffffffffffffffffffffffffffffffffffffffff1673ffffffffffffffffffffffffffffffffffffffff163373ffffffffffffffffffffffffffffffffffffffff161480612c865750600960009054906101000a900473ffffffffffffffffffffffffffffffffffffffff1673ffffffffffffffffffffffffffffffffffffffff163373ffffffffffffffffffffffffffffffffffffffff16145b612cc5576040517f08c379a0000000000000000000000000000000000000000000000000000000008152600401612cbc90614614565b60405180910390fd5b600660008273ffffffffffffffffffffffffffffffffffffffff1673ffffffffffffffffffffffffffffffffffffffff16815260200190815260200160002060009054906101000a900460ff1615612d52576040517f08c379a0000000000000000000000000000000000000000000000000000000008152600401612d49906147d4565b60405180910390fd5b6000600260009054906101000a900473ffffffffffffffffffffffffffffffffffffffff1673ffffffffffffffffffffffffffffffffffffffff166370a08231306040518263ffffffff1660e01b8152600401612daf91906144b1565b60206040518083038186803b158015612dc757600080fd5b505afa158015612ddb573d6000803e3d6000fd5b505050506040513d601f19601f82011682018060405250612dff9190810190613a0e565b1115612fb057600260009054906101000a900473ffffffffffffffffffffffffffffffffffffffff1673ffffffffffffffffffffffffffffffffffffffff1663a9059cbb8260016040518363ffffffff1660e01b8152600401612e639291906144e7565b602060405180830381600087803b158015612e7d57600080fd5b505af1158015612e91573d6000803e3d6000fd5b505050506040513d601f19601f82011682018060405250612eb5919081019061389f565b506001600660008373ffffffffffffffffffffffffffffffffffffffff1673ffffffffffffffffffffffffffffffffffffffff16815260200190815260200160002060006101000a81548160ff02191690831515021790555060018190806001815401808255809150509060018203906000526020600020016000909192909190916101000a81548173ffffffffffffffffffffffffffffffffffffffff021916908373ffffffffffffffffffffffffffffffffffffffff160217905550507fcda5e488ef236fd04b9cdd224afb5f6cfb016639716b0aff73cf01e3902411c4428233604051612fa7939291906148f8565b60405180910390a15b50565b60606000600b805490509050606081604051908082528060200260200182016040528015612ff05781602001602082028038833980820191505090505b5090506000600190505b82811161302a578082600183038151811061301157fe5b6020026020010181815250508080600101915050612ffa565b50809250505090565b600860009054906101000a900473ffffffffffffffffffffffffffffffffffffffff1673ffffffffffffffffffffffffffffffffffffffff163373ffffffffffffffffffffffffffffffffffffffff1614806130dc5750600960009054906101000a900473ffffffffffffffffffffffffffffffffffffffff1673ffffffffffffffffffffffffffffffffffffffff163373ffffffffffffffffffffffffffffffffffffffff16145b61311b576040517f08c379a000000000000000000000000000000000000000000000000000000000815260040161311290614614565b60405180910390fd5b600115156000809054906101000a900460ff16151514613170576040517f08c379a0000000000000000000000000000000000000000000000000000000008152600401613167906147b4565b60405180910390fd5b60001515600060019054906101000a900460ff161515146131c6576040517f08c379a00000000000000000000000000000000000000000000000000000000081526004016131bd90614774565b60405180910390fd5b6000811180156131db5750600b805490508111155b61321a576040517f08c379a000000000000000000000000000000000000000000000000000000000815260040161321190614854565b60405180910390fd5b6000600b600183038154811061322c57fe5b906000526020600020906006020190508060030160009054906101000a900460ff1661328d576040517f08c379a0000000000000000000000000000000000000000000000000000000008152600401613284906146b4565b60405180910390fd5b600015158160030160019054906101000a900460ff161515146132e5576040517f08c379a00000000000000000000000000000000000000000000000000000000081526004016132dc90614654565b60405180910390fd5b600015158160050160003373ffffffffffffffffffffffffffffffffffffffff1673ffffffffffffffffffffffffffffffffffffffff16815260200190815260200160002060009054906101000a900460ff1615151461337a576040517f08c379a000000000000000000000000000000000000000000000000000000000815260040161337190614834565b60405180910390fd5b60018160050160003373ffffffffffffffffffffffffffffffffffffffff1673ffffffffffffffffffffffffffffffffffffffff16815260200190815260200160002060006101000a81548160ff0219169083151502179055507ff93032550294098f819077a51e3e2b8879a11d69cb581d05bff781f024dbcced42826000013360405161340a93929190614a29565b60405180910390a1806005016000600860009054906101000a900473ffffffffffffffffffffffffffffffffffffffff1673ffffffffffffffffffffffffffffffffffffffff1673ffffffffffffffffffffffffffffffffffffffff16815260200190815260200160002060009054906101000a900460ff1680156134fc5750806005016000600960009054906101000a900473ffffffffffffffffffffffffffffffffffffffff1673ffffffffffffffffffffffffffffffffffffffff1673ffffffffffffffffffffffffffffffffffffffff16815260200190815260200160002060009054906101000a900460ff165b1561355b5760018160030160016101000a81548160ff0219169083151502179055507fa65474ce0cb25adcc4418d9d076204f2791fc43e4c1303383b29d71ab0d978cb42826000016040516135529291906149f9565b60405180910390a15b5050565b600081604051602001613572919061447f565b6040516020818303038152906040528051906020012083604051602001613599919061447f565b604051602081830303815290604052805190602001201415905092915050565b828054600181600116156101000203166002900490600052602060002090601f016020900481019282601f106135fa57803560ff1916838001178555613628565b82800160010185558215613628579182015b8281111561362757823582559160200191906001019061360c565b5b5090506136359190613723565b5090565b6040518060600160405280600073ffffffffffffffffffffffffffffffffffffffff16815260200160608152602001606081525090565b828054600181600116156101000203166002900490600052602060002090601f016020900481019282601f106136b157805160ff19168380011785556136df565b828001600101855582156136df579182015b828111156136de5782518255916020019190600101906136c3565b5b5090506136ec9190613723565b5090565b6040518060a001604052806060815260200160008152602001600081526020016000151581526020016000151581525090565b61374591905b80821115613741576000816000905550600101613729565b5090565b90565b60008135905061375781614c7f565b92915050565b60008151905061376c81614c96565b92915050565b60008083601f84011261378457600080fd5b8235905067ffffffffffffffff81111561379d57600080fd5b6020830191508360018202830111156137b557600080fd5b9250929050565b600082601f8301126137cd57600080fd5b81356137e06137db82614a94565b614a67565b915080825260208301602083018583830111156137fc57600080fd5b613807838284614c2c565b50505092915050565b60008135905061381f81614cad565b92915050565b60008151905061383481614cad565b92915050565b60006020828403121561384c57600080fd5b600061385a84828501613748565b91505092915050565b6000806040838503121561387657600080fd5b600061388485828601613748565b925050602061389585828601613810565b9150509250929050565b6000602082840312156138b157600080fd5b60006138bf8482850161375d565b91505092915050565b600080602083850312156138db57600080fd5b600083013567ffffffffffffffff8111156138f557600080fd5b61390185828601613772565b92509250509250929050565b6000806000806060858703121561392357600080fd5b600085013567ffffffffffffffff81111561393d57600080fd5b61394987828801613772565b9450945050602061395c87828801613810565b925050604061396d87828801613810565b91505092959194509250565b6000806040838503121561398c57600080fd5b600083013567ffffffffffffffff8111156139a657600080fd5b6139b2858286016137bc565b925050602083013567ffffffffffffffff8111156139cf57600080fd5b6139db858286016137bc565b9150509250929050565b6000602082840312156139f757600080fd5b6000613a0584828501613810565b91505092915050565b600060208284031215613a2057600080fd5b6000613a2e84828501613825565b91505092915050565b6000613a43838361440a565b905092915050565b6000613a578383614461565b60208301905092915050565b613a6c81614be4565b82525050565b613a7b81614b9c565b82525050565b613a8a81614b8a565b82525050565b613a9981614b8a565b82525050565b6000613aaa82614af5565b613ab48185614b3b565b935083602082028501613ac685614ac0565b8060005b85811015613b025784840389528151613ae38582613a37565b9450613aee83614b21565b925060208a01995050600181019050613aca565b50829750879550505050505092915050565b6000613b1f82614b00565b613b298185614b4c565b9350613b3483614ad0565b8060005b83811015613b65578151613b4c8882613a4b565b9750613b5783614b2e565b925050600181019050613b38565b5085935050505092915050565b613b7b81614bae565b82525050565b613b8a81614bf6565b82525050565b6000613b9c8385614b6e565b9350613ba9838584614c2c565b613bb283614c6e565b840190509392505050565b6000613bc882614b16565b613bd28185614b6e565b9350613be2818560208601614c3b565b613beb81614c6e565b840191505092915050565b6000613c0182614b16565b613c0b8185614b7f565b9350613c1b818560208601614c3b565b80840191505092915050565b6000613c3282614b0b565b613c3c8185614b5d565b9350613c4c818560208601614c3b565b613c5581614c6e565b840191505092915050565b6000613c6b82614b0b565b613c758185614b6e565b9350613c85818560208601614c3b565b613c8e81614c6e565b840191505092915050565b600081546001811660008114613cb65760018114613cdc57613d20565b607f6002830416613cc78187614b6e565b955060ff198316865260208601935050613d20565b60028204613cea8187614b6e565b9550613cf585614ae0565b60005b82811015613d1757815481890152600182019150602081019050613cf8565b80880195505050505b505092915050565b6000613d35601783614b6e565b91507f53656e646572206973206e6f7420612073706f757365210000000000000000006000830152602082019050919050565b6000613d75601783614b6e565b91507f4e6f20617373657420646174612070726f7669646564210000000000000000006000830152602082019050919050565b6000613db5601f83614b6e565b91507f41737365742068617320616c7265616479206265656e2072656d6f76656421006000830152602082019050919050565b6000613df5601d83614b6e565b91507f41737365742068617320616c7265616479206265656e206164646564210000006000830152602082019050919050565b6000613e35601b83614b6e565b91507f73706f7573653220616c6c6f636174696f6e20696e76616c69642100000000006000830152602082019050919050565b6000613e75601d83614b6e565b91507f417373657420686173206e6f74206265656e20616464656420796574210000006000830152602082019050919050565b6000613eb5602783614b6e565b91507f546f74616c20616c6c6f636174696f6e206d75737420626520657175616c207460008301527f6f203130302521000000000000000000000000000000000000000000000000006020830152604082019050919050565b6000613f1b602783614b6e565b91507f53656e6465722068617320616c726561647920617070726f76656420746f206460008301527f69766f72636521000000000000000000000000000000000000000000000000006020830152604082019050919050565b6000613f81602583614b6e565b91507f41737365742068617320616c726561647920617070726f76656420627920736560008301527f6e646572210000000000000000000000000000000000000000000000000000006020830152604082019050919050565b6000613fe7601683614b6e565b91507f53656e646572206973206e6f7420696e766974656421000000000000000000006000830152602082019050919050565b6000614027601d83614b6e565b91507f4e6f7420656e6f7567682062616c616e636520617661696c61626c65210000006000830152602082019050919050565b6000614067603283614b6e565b91507f43616e206e6f742062652063616c6c65642061667465722073706f757365732060008301527f61677265656420746f206469766f7263652100000000000000000000000000006020830152604082019050919050565b60006140cd603183614b6e565b91507f5772697474656e20636f6e74726163742069706673206861736820686173206260008301527f65656e2070726f706f73656420796574210000000000000000000000000000006020830152604082019050919050565b6000614133603183614b6e565b91507f436f6e747261637420686173206e6f74206265656e207369676e65642062792060008301527f626f74682073706f7573657320796574210000000000000000000000000000006020830152604082019050919050565b6000614199602083614b6e565b91507f506572736f6e2068617320616c7265616479206265656e20696e7669746564216000830152602082019050919050565b60006141d9601b83614b6e565b91507f73706f7573653120616c6c6f636174696f6e20696e76616c69642100000000006000830152602082019050919050565b6000614219602783614b6e565b91507f53706f7573652068617320616c7265616479207369676e65642074686520636f60008301527f6e747261637421000000000000000000000000000000000000000000000000006020830152604082019050919050565b600061427f603b83614b6e565b91507f52656d6f76696e67207468652061737365742068617320616c7265616479206260008301527f65656e20617070726f766564206279207468652073656e6465722100000000006020830152604082019050919050565b60006142e5601183614b6e565b91507f496e76616c6964206173736574206964210000000000000000000000000000006000830152602082019050919050565b6000614325602c83614b6e565b91507f53656e64696e672066756e647320746f2061646472657373207a65726f20697360008301527f2070726f686962697465642100000000000000000000000000000000000000006020830152604082019050919050565b600061438b605383614b6e565b91507f5772697474656e20636f6e7472616374206970667320686173682063616e206e60008301527f6f74206265206368616e6765642e20426f74682073706f75736573206861766560208301527f20616c7265616479207369676e656420697421000000000000000000000000006040830152606082019050919050565b60006060830160008301516144226000860182613a81565b506020830151848203602086015261443a8282613c27565b915050604083015184820360408601526144548282613c27565b9150508091505092915050565b61446a81614bda565b82525050565b61447981614bda565b82525050565b600061448b8284613bf6565b915081905092915050565b60006020820190506144ab6000830184613a90565b92915050565b60006020820190506144c66000830184613a63565b92915050565b60006020820190506144e16000830184613a72565b92915050565b60006040820190506144fc6000830185613a63565b6145096020830184613b81565b9392505050565b60006040820190506145256000830185613a90565b6145326020830184613b81565b9392505050565b600060208201905081810360008301526145538184613a9f565b905092915050565b600060208201905081810360008301526145758184613b14565b905092915050565b60006020820190506145926000830184613b72565b92915050565b600060208201905081810360008301526145b28184613c60565b905092915050565b600060a08201905081810360008301526145d48188613c60565b90506145e36020830187614470565b6145f06040830186614470565b6145fd6060830185613b72565b61460a6080830184613b72565b9695505050505050565b6000602082019050818103600083015261462d81613d28565b9050919050565b6000602082019050818103600083015261464d81613d68565b9050919050565b6000602082019050818103600083015261466d81613da8565b9050919050565b6000602082019050818103600083015261468d81613de8565b9050919050565b600060208201905081810360008301526146ad81613e28565b9050919050565b600060208201905081810360008301526146cd81613e68565b9050919050565b600060208201905081810360008301526146ed81613ea8565b9050919050565b6000602082019050818103600083015261470d81613f0e565b9050919050565b6000602082019050818103600083015261472d81613f74565b9050919050565b6000602082019050818103600083015261474d81613fda565b9050919050565b6000602082019050818103600083015261476d8161401a565b9050919050565b6000602082019050818103600083015261478d8161405a565b9050919050565b600060208201905081810360008301526147ad816140c0565b9050919050565b600060208201905081810360008301526147cd81614126565b9050919050565b600060208201905081810360008301526147ed8161418c565b9050919050565b6000602082019050818103600083015261480d816141cc565b9050919050565b6000602082019050818103600083015261482d8161420c565b9050919050565b6000602082019050818103600083015261484d81614272565b9050919050565b6000602082019050818103600083015261486d816142d8565b9050919050565b6000602082019050818103600083015261488d81614318565b9050919050565b600060208201905081810360008301526148ad8161437e565b9050919050565b60006020820190506148c96000830184614470565b92915050565b60006040820190506148e46000830185614470565b6148f16020830184613a63565b9392505050565b600060608201905061490d6000830186614470565b61491a6020830185613a63565b6149276040830184613a63565b949350505050565b60006080820190506149446000830187614470565b6149516020830186613a63565b81810360408301526149638185613bbd565b905081810360608301526149778184613bbd565b905095945050505050565b60006060820190506149976000830186614470565b6149a46020830185613a63565b6149b16040830184614470565b949350505050565b60006060820190506149ce6000830187614470565b81810360208301526149e1818587613b90565b90506149f06040830184613a63565b95945050505050565b6000604082019050614a0e6000830185614470565b8181036020830152614a208184613c99565b90509392505050565b6000606082019050614a3e6000830186614470565b8181036020830152614a508185613c99565b9050614a5f6040830184613a63565b949350505050565b6000604051905081810181811067ffffffffffffffff82111715614a8a57600080fd5b8060405250919050565b600067ffffffffffffffff821115614aab57600080fd5b601f19601f8301169050602081019050919050565b6000819050602082019050919050565b6000819050602082019050919050565b60008190508160005260206000209050919050565b600081519050919050565b600081519050919050565b600081519050919050565b600081519050919050565b6000602082019050919050565b6000602082019050919050565b600082825260208201905092915050565b600082825260208201905092915050565b600082825260208201905092915050565b600082825260208201905092915050565b600081905092915050565b6000614b9582614bba565b9050919050565b6000614ba782614bba565b9050919050565b60008115159050919050565b600073ffffffffffffffffffffffffffffffffffffffff82169050919050565b6000819050919050565b6000614bef82614c08565b9050919050565b6000614c0182614bda565b9050919050565b6000614c1382614c1a565b9050919050565b6000614c2582614bba565b9050919050565b82818337600083830152505050565b60005b83811015614c59578082015181840152602081019050614c3e565b83811115614c68576000848401525b50505050565b6000601f19601f8301169050919050565b614c8881614b9c565b8114614c9357600080fd5b50565b614c9f81614bae565b8114614caa57600080fd5b50565b614cb681614bda565b8114614cc157600080fd5b5056fea365627a7a7231582080706df72709996bfa99fe8b05b136ae1bc43cf3266693782b94ee69a5380bc26c6578706572696d656e74616cf564736f6c6343000510004060806040523480156200001157600080fd5b506040518060400160405280601181526020017f57656464696e67496e7669746174696f6e0000000000000000000000000000008152506040518060400160405280600681526020017f494e56495445000000000000000000000000000000000000000000000000000081525060008260039080519060200190620000989291906200033c565b508160049080519060200190620000b19291906200033c565b5080600560006101000a81548160ff021916908360ff160217905550505050620000e3336064620000e960201b60201c565b620003eb565b600073ffffffffffffffffffffffffffffffffffffffff168273ffffffffffffffffffffffffffffffffffffffff1614156200018d576040517f08c379a000000000000000000000000000000000000000000000000000000000815260040180806020018281038252601f8152602001807f45524332303a206d696e7420746f20746865207a65726f20616464726573730081525060200191505060405180910390fd5b620001a981600254620002b360201b62000f221790919060201c565b60028190555062000207816000808573ffffffffffffffffffffffffffffffffffffffff1673ffffffffffffffffffffffffffffffffffffffff16815260200190815260200160002054620002b360201b62000f221790919060201c565b6000808473ffffffffffffffffffffffffffffffffffffffff1673ffffffffffffffffffffffffffffffffffffffff168152602001908152602001600020819055508173ffffffffffffffffffffffffffffffffffffffff16600073ffffffffffffffffffffffffffffffffffffffff167fddf252ad1be2c89b69c2b068fc378daa952ba7f163c4a11628f55a4df523b3ef836040518082815260200191505060405180910390a35050565b60008082840190508381101562000332576040517f08c379a000000000000000000000000000000000000000000000000000000000815260040180806020018281038252601b8152602001807f536166654d6174683a206164646974696f6e206f766572666c6f77000000000081525060200191505060405180910390fd5b8091505092915050565b828054600181600116156101000203166002900490600052602060002090601f016020900481019282601f106200037f57805160ff1916838001178555620003b0565b82800160010185558215620003b0579182015b82811115620003af57825182559160200191906001019062000392565b5b509050620003bf9190620003c3565b5090565b620003e891905b80821115620003e4576000816000905550600101620003ca565b5090565b90565b6110e080620003fb6000396000f3fe608060405234801561001057600080fd5b50600436106100a95760003560e01c80633950935111610071578063395093511461025f57806370a08231146102c557806395d89b411461031d578063a457c2d7146103a0578063a9059cbb14610406578063dd62ed3e1461046c576100a9565b806306fdde03146100ae578063095ea7b31461013157806318160ddd1461019757806323b872dd146101b5578063313ce5671461023b575b600080fd5b6100b66104e4565b6040518080602001828103825283818151815260200191508051906020019080838360005b838110156100f65780820151818401526020810190506100db565b50505050905090810190601f1680156101235780820380516001836020036101000a031916815260200191505b509250505060405180910390f35b61017d6004803603604081101561014757600080fd5b81019080803573ffffffffffffffffffffffffffffffffffffffff16906020019092919080359060200190929190505050610586565b604051808215151515815260200191505060405180910390f35b61019f6105a4565b6040518082815260200191505060405180910390f35b610221600480360360608110156101cb57600080fd5b81019080803573ffffffffffffffffffffffffffffffffffffffff169060200190929190803573ffffffffffffffffffffffffffffffffffffffff169060200190929190803590602001909291905050506105ae565b604051808215151515815260200191505060405180910390f35b610243610687565b604051808260ff1660ff16815260200191505060405180910390f35b6102ab6004803603604081101561027557600080fd5b81019080803573ffffffffffffffffffffffffffffffffffffffff1690602001909291908035906020019092919050505061069e565b604051808215151515815260200191505060405180910390f35b610307600480360360208110156102db57600080fd5b81019080803573ffffffffffffffffffffffffffffffffffffffff169060200190929190505050610751565b6040518082815260200191505060405180910390f35b610325610799565b6040518080602001828103825283818151815260200191508051906020019080838360005b8381101561036557808201518184015260208101905061034a565b50505050905090810190601f1680156103925780820380516001836020036101000a031916815260200191505b509250505060405180910390f35b6103ec600480360360408110156103b657600080fd5b81019080803573ffffffffffffffffffffffffffffffffffffffff1690602001909291908035906020019092919050505061083b565b604051808215151515815260200191505060405180910390f35b6104526004803603604081101561041c57600080fd5b81019080803573ffffffffffffffffffffffffffffffffffffffff16906020019092919080359060200190929190505050610908565b604051808215151515815260200191505060405180910390f35b6104ce6004803603604081101561048257600080fd5b81019080803573ffffffffffffffffffffffffffffffffffffffff169060200190929190803573ffffffffffffffffffffffffffffffffffffffff169060200190929190505050610926565b6040518082815260200191505060405180910390f35b606060038054600181600116156101000203166002900480601f01602080910402602001604051908101604052809291908181526020018280546001816001161561010002031660029004801561057c5780601f106105515761010080835404028352916020019161057c565b820191906000526020600020905b81548152906001019060200180831161055f57829003601f168201915b5050505050905090565b600061059a6105936109ad565b84846109b5565b6001905092915050565b6000600254905090565b60006105bb848484610bac565b61067c846105c76109ad565b6106778560405180606001604052806028815260200161101660289139600160008b73ffffffffffffffffffffffffffffffffffffffff1673ffffffffffffffffffffffffffffffffffffffff168152602001908152602001600020600061062d6109ad565b73ffffffffffffffffffffffffffffffffffffffff1673ffffffffffffffffffffffffffffffffffffffff16815260200190815260200160002054610e629092919063ffffffff16565b6109b5565b600190509392505050565b6000600560009054906101000a900460ff16905090565b60006107476106ab6109ad565b8461074285600160006106bc6109ad565b73ffffffffffffffffffffffffffffffffffffffff1673ffffffffffffffffffffffffffffffffffffffff16815260200190815260200160002060008973ffffffffffffffffffffffffffffffffffffffff1673ffffffffffffffffffffffffffffffffffffffff16815260200190815260200160002054610f2290919063ffffffff16565b6109b5565b6001905092915050565b60008060008373ffffffffffffffffffffffffffffffffffffffff1673ffffffffffffffffffffffffffffffffffffffff168152602001908152602001600020549050919050565b606060048054600181600116156101000203166002900480601f0160208091040260200160405190810160405280929190818152602001828054600181600116156101000203166002900480156108315780601f1061080657610100808354040283529160200191610831565b820191906000526020600020905b81548152906001019060200180831161081457829003601f168201915b5050505050905090565b60006108fe6108486109ad565b846108f98560405180606001604052806025815260200161108760259139600160006108726109ad565b73ffffffffffffffffffffffffffffffffffffffff1673ffffffffffffffffffffffffffffffffffffffff16815260200190815260200160002060008a73ffffffffffffffffffffffffffffffffffffffff1673ffffffffffffffffffffffffffffffffffffffff16815260200190815260200160002054610e629092919063ffffffff16565b6109b5565b6001905092915050565b600061091c6109156109ad565b8484610bac565b6001905092915050565b6000600160008473ffffffffffffffffffffffffffffffffffffffff1673ffffffffffffffffffffffffffffffffffffffff16815260200190815260200160002060008373ffffffffffffffffffffffffffffffffffffffff1673ffffffffffffffffffffffffffffffffffffffff16815260200190815260200160002054905092915050565b600033905090565b600073ffffffffffffffffffffffffffffffffffffffff168373ffffffffffffffffffffffffffffffffffffffff161415610a3b576040517f08c379a00000000000000000000000000000000000000000000000000000000081526004018080602001828103825260248152602001806110636024913960400191505060405180910390fd5b600073ffffffffffffffffffffffffffffffffffffffff168273ffffffffffffffffffffffffffffffffffffffff161415610ac1576040517f08c379a0000000000000000000000000000000000000000000000000000000008152600401808060200182810382526022815260200180610fce6022913960400191505060405180910390fd5b80600160008573ffffffffffffffffffffffffffffffffffffffff1673ffffffffffffffffffffffffffffffffffffffff16815260200190815260200160002060008473ffffffffffffffffffffffffffffffffffffffff1673ffffffffffffffffffffffffffffffffffffffff168152602001908152602001600020819055508173ffffffffffffffffffffffffffffffffffffffff168373ffffffffffffffffffffffffffffffffffffffff167f8c5be1e5ebec7d5bd14f71427d1e84f3dd0314c0f7b2291e5b200ac8c7c3b925836040518082815260200191505060405180910390a3505050565b600073ffffffffffffffffffffffffffffffffffffffff168373ffffffffffffffffffffffffffffffffffffffff161415610c32576040517f08c379a000000000000000000000000000000000000000000000000000000000815260040180806020018281038252602581526020018061103e6025913960400191505060405180910390fd5b600073ffffffffffffffffffffffffffffffffffffffff168273ffffffffffffffffffffffffffffffffffffffff161415610cb8576040517f08c379a0000000000000000000000000000000000000000000000000000000008152600401808060200182810382526023815260200180610fab6023913960400191505060405180910390fd5b610d2381604051806060016040528060268152602001610ff0602691396000808773ffffffffffffffffffffffffffffffffffffffff1673ffffffffffffffffffffffffffffffffffffffff16815260200190815260200160002054610e629092919063ffffffff16565b6000808573ffffffffffffffffffffffffffffffffffffffff1673ffffffffffffffffffffffffffffffffffffffff16815260200190815260200160002081905550610db6816000808573ffffffffffffffffffffffffffffffffffffffff1673ffffffffffffffffffffffffffffffffffffffff16815260200190815260200160002054610f2290919063ffffffff16565b6000808473ffffffffffffffffffffffffffffffffffffffff1673ffffffffffffffffffffffffffffffffffffffff168152602001908152602001600020819055508173ffffffffffffffffffffffffffffffffffffffff168373ffffffffffffffffffffffffffffffffffffffff167fddf252ad1be2c89b69c2b068fc378daa952ba7f163c4a11628f55a4df523b3ef836040518082815260200191505060405180910390a3505050565b6000838311158290610f0f576040517f08c379a00000000000000000000000000000000000000000000000000000000081526004018080602001828103825283818151815260200191508051906020019080838360005b83811015610ed4578082015181840152602081019050610eb9565b50505050905090810190601f168015610f015780820380516001836020036101000a031916815260200191505b509250505060405180910390fd5b5060008385039050809150509392505050565b600080828401905083811015610fa0576040517f08c379a000000000000000000000000000000000000000000000000000000000815260040180806020018281038252601b8152602001807f536166654d6174683a206164646974696f6e206f766572666c6f77000000000081525060200191505060405180910390fd5b809150509291505056fe45524332303a207472616e7366657220746f20746865207a65726f206164647265737345524332303a20617070726f766520746f20746865207a65726f206164647265737345524332303a207472616e7366657220616d6f756e7420657863656564732062616c616e636545524332303a207472616e7366657220616d6f756e74206578636565647320616c6c6f77616e636545524332303a207472616e736665722066726f6d20746865207a65726f206164647265737345524332303a20617070726f76652066726f6d20746865207a65726f206164647265737345524332303a2064656372656173656420616c6c6f77616e63652062656c6f77207a65726fa265627a7a7231582063a0b2fd4f8be99fc87e37a07e64a080c1b002e42443e12e5368a671e1b7abcb64736f6c6343000510003260806040523480156200001157600080fd5b506040518060400160405280600e81526020017f57656464696e675769746e6573730000000000000000000000000000000000008152506040518060400160405280600381526020017f574544000000000000000000000000000000000000000000000000000000000081525060008260039080519060200190620000989291906200033c565b508160049080519060200190620000b19291906200033c565b5080600560006101000a81548160ff021916908360ff160217905550505050620000e3336064620000e960201b60201c565b620003eb565b600073ffffffffffffffffffffffffffffffffffffffff168273ffffffffffffffffffffffffffffffffffffffff1614156200018d576040517f08c379a000000000000000000000000000000000000000000000000000000000815260040180806020018281038252601f8152602001807f45524332303a206d696e7420746f20746865207a65726f20616464726573730081525060200191505060405180910390fd5b620001a981600254620002b360201b62000f221790919060201c565b60028190555062000207816000808573ffffffffffffffffffffffffffffffffffffffff1673ffffffffffffffffffffffffffffffffffffffff16815260200190815260200160002054620002b360201b62000f221790919060201c565b6000808473ffffffffffffffffffffffffffffffffffffffff1673ffffffffffffffffffffffffffffffffffffffff168152602001908152602001600020819055508173ffffffffffffffffffffffffffffffffffffffff16600073ffffffffffffffffffffffffffffffffffffffff167fddf252ad1be2c89b69c2b068fc378daa952ba7f163c4a11628f55a4df523b3ef836040518082815260200191505060405180910390a35050565b60008082840190508381101562000332576040517f08c379a000000000000000000000000000000000000000000000000000000000815260040180806020018281038252601b8152602001807f536166654d6174683a206164646974696f6e206f766572666c6f77000000000081525060200191505060405180910390fd5b8091505092915050565b828054600181600116156101000203166002900490600052602060002090601f016020900481019282601f106200037f57805160ff1916838001178555620003b0565b82800160010185558215620003b0579182015b82811115620003af57825182559160200191906001019062000392565b5b509050620003bf9190620003c3565b5090565b620003e891905b80821115620003e4576000816000905550600101620003ca565b5090565b90565b6110e080620003fb6000396000f3fe608060405234801561001057600080fd5b50600436106100a95760003560e01c80633950935111610071578063395093511461025f57806370a08231146102c557806395d89b411461031d578063a457c2d7146103a0578063a9059cbb14610406578063dd62ed3e1461046c576100a9565b806306fdde03146100ae578063095ea7b31461013157806318160ddd1461019757806323b872dd146101b5578063313ce5671461023b575b600080fd5b6100b66104e4565b6040518080602001828103825283818151815260200191508051906020019080838360005b838110156100f65780820151818401526020810190506100db565b50505050905090810190601f1680156101235780820380516001836020036101000a031916815260200191505b509250505060405180910390f35b61017d6004803603604081101561014757600080fd5b81019080803573ffffffffffffffffffffffffffffffffffffffff16906020019092919080359060200190929190505050610586565b604051808215151515815260200191505060405180910390f35b61019f6105a4565b6040518082815260200191505060405180910390f35b610221600480360360608110156101cb57600080fd5b81019080803573ffffffffffffffffffffffffffffffffffffffff169060200190929190803573ffffffffffffffffffffffffffffffffffffffff169060200190929190803590602001909291905050506105ae565b604051808215151515815260200191505060405180910390f35b610243610687565b604051808260ff1660ff16815260200191505060405180910390f35b6102ab6004803603604081101561027557600080fd5b81019080803573ffffffffffffffffffffffffffffffffffffffff1690602001909291908035906020019092919050505061069e565b604051808215151515815260200191505060405180910390f35b610307600480360360208110156102db57600080fd5b81019080803573ffffffffffffffffffffffffffffffffffffffff169060200190929190505050610751565b6040518082815260200191505060405180910390f35b610325610799565b6040518080602001828103825283818151815260200191508051906020019080838360005b8381101561036557808201518184015260208101905061034a565b50505050905090810190601f1680156103925780820380516001836020036101000a031916815260200191505b509250505060405180910390f35b6103ec600480360360408110156103b657600080fd5b81019080803573ffffffffffffffffffffffffffffffffffffffff1690602001909291908035906020019092919050505061083b565b604051808215151515815260200191505060405180910390f35b6104526004803603604081101561041c57600080fd5b81019080803573ffffffffffffffffffffffffffffffffffffffff16906020019092919080359060200190929190505050610908565b604051808215151515815260200191505060405180910390f35b6104ce6004803603604081101561048257600080fd5b81019080803573ffffffffffffffffffffffffffffffffffffffff169060200190929190803573ffffffffffffffffffffffffffffffffffffffff169060200190929190505050610926565b6040518082815260200191505060405180910390f35b606060038054600181600116156101000203166002900480601f01602080910402602001604051908101604052809291908181526020018280546001816001161561010002031660029004801561057c5780601f106105515761010080835404028352916020019161057c565b820191906000526020600020905b81548152906001019060200180831161055f57829003601f168201915b5050505050905090565b600061059a6105936109ad565b84846109b5565b6001905092915050565b6000600254905090565b60006105bb848484610bac565b61067c846105c76109ad565b6106778560405180606001604052806028815260200161101660289139600160008b73ffffffffffffffffffffffffffffffffffffffff1673ffffffffffffffffffffffffffffffffffffffff168152602001908152602001600020600061062d6109ad565b73ffffffffffffffffffffffffffffffffffffffff1673ffffffffffffffffffffffffffffffffffffffff16815260200190815260200160002054610e629092919063ffffffff16565b6109b5565b600190509392505050565b6000600560009054906101000a900460ff16905090565b60006107476106ab6109ad565b8461074285600160006106bc6109ad565b73ffffffffffffffffffffffffffffffffffffffff1673ffffffffffffffffffffffffffffffffffffffff16815260200190815260200160002060008973ffffffffffffffffffffffffffffffffffffffff1673ffffffffffffffffffffffffffffffffffffffff16815260200190815260200160002054610f2290919063ffffffff16565b6109b5565b6001905092915050565b60008060008373ffffffffffffffffffffffffffffffffffffffff1673ffffffffffffffffffffffffffffffffffffffff168152602001908152602001600020549050919050565b606060048054600181600116156101000203166002900480601f0160208091040260200160405190810160405280929190818152602001828054600181600116156101000203166002900480156108315780601f1061080657610100808354040283529160200191610831565b820191906000526020600020905b81548152906001019060200180831161081457829003601f168201915b5050505050905090565b60006108fe6108486109ad565b846108f98560405180606001604052806025815260200161108760259139600160006108726109ad565b73ffffffffffffffffffffffffffffffffffffffff1673ffffffffffffffffffffffffffffffffffffffff16815260200190815260200160002060008a73ffffffffffffffffffffffffffffffffffffffff1673ffffffffffffffffffffffffffffffffffffffff16815260200190815260200160002054610e629092919063ffffffff16565b6109b5565b6001905092915050565b600061091c6109156109ad565b8484610bac565b6001905092915050565b6000600160008473ffffffffffffffffffffffffffffffffffffffff1673ffffffffffffffffffffffffffffffffffffffff16815260200190815260200160002060008373ffffffffffffffffffffffffffffffffffffffff1673ffffffffffffffffffffffffffffffffffffffff16815260200190815260200160002054905092915050565b600033905090565b600073ffffffffffffffffffffffffffffffffffffffff168373ffffffffffffffffffffffffffffffffffffffff161415610a3b576040517f08c379a00000000000000000000000000000000000000000000000000000000081526004018080602001828103825260248152602001806110636024913960400191505060405180910390fd5b600073ffffffffffffffffffffffffffffffffffffffff168273ffffffffffffffffffffffffffffffffffffffff161415610ac1576040517f08c379a0000000000000000000000000000000000000000000000000000000008152600401808060200182810382526022815260200180610fce6022913960400191505060405180910390fd5b80600160008573ffffffffffffffffffffffffffffffffffffffff1673ffffffffffffffffffffffffffffffffffffffff16815260200190815260200160002060008473ffffffffffffffffffffffffffffffffffffffff1673ffffffffffffffffffffffffffffffffffffffff168152602001908152602001600020819055508173ffffffffffffffffffffffffffffffffffffffff168373ffffffffffffffffffffffffffffffffffffffff167f8c5be1e5ebec7d5bd14f71427d1e84f3dd0314c0f7b2291e5b200ac8c7c3b925836040518082815260200191505060405180910390a3505050565b600073ffffffffffffffffffffffffffffffffffffffff168373ffffffffffffffffffffffffffffffffffffffff161415610c32576040517f08c379a000000000000000000000000000000000000000000000000000000000815260040180806020018281038252602581526020018061103e6025913960400191505060405180910390fd5b600073ffffffffffffffffffffffffffffffffffffffff168273ffffffffffffffffffffffffffffffffffffffff161415610cb8576040517f08c379a0000000000000000000000000000000000000000000000000000000008152600401808060200182810382526023815260200180610fab6023913960400191505060405180910390fd5b610d2381604051806060016040528060268152602001610ff0602691396000808773ffffffffffffffffffffffffffffffffffffffff1673ffffffffffffffffffffffffffffffffffffffff16815260200190815260200160002054610e629092919063ffffffff16565b6000808573ffffffffffffffffffffffffffffffffffffffff1673ffffffffffffffffffffffffffffffffffffffff16815260200190815260200160002081905550610db6816000808573ffffffffffffffffffffffffffffffffffffffff1673ffffffffffffffffffffffffffffffffffffffff16815260200190815260200160002054610f2290919063ffffffff16565b6000808473ffffffffffffffffffffffffffffffffffffffff1673ffffffffffffffffffffffffffffffffffffffff168152602001908152602001600020819055508173ffffffffffffffffffffffffffffffffffffffff168373ffffffffffffffffffffffffffffffffffffffff167fddf252ad1be2c89b69c2b068fc378daa952ba7f163c4a11628f55a4df523b3ef836040518082815260200191505060405180910390a3505050565b6000838311158290610f0f576040517f08c379a00000000000000000000000000000000000000000000000000000000081526004018080602001828103825283818151815260200191508051906020019080838360005b83811015610ed4578082015181840152602081019050610eb9565b50505050905090810190601f168015610f015780820380516001836020036101000a031916815260200191505b509250505060405180910390fd5b5060008385039050809150509392505050565b600080828401905083811015610fa0576040517f08c379a000000000000000000000000000000000000000000000000000000000815260040180806020018281038252601b8152602001807f536166654d6174683a206164646974696f6e206f766572666c6f77000000000081525060200191505060405180910390fd5b809150509291505056fe45524332303a207472616e7366657220746f20746865207a65726f206164647265737345524332303a20617070726f766520746f20746865207a65726f206164647265737345524332303a207472616e7366657220616d6f756e7420657863656564732062616c616e636545524332303a207472616e7366657220616d6f756e74206578636565647320616c6c6f77616e636545524332303a207472616e736665722066726f6d20746865207a65726f206164647265737345524332303a20617070726f76652066726f6d20746865207a65726f206164647265737345524332303a2064656372656173656420616c6c6f77616e63652062656c6f77207a65726fa265627a7a7231582066128a088ed967fe058877d034d34697de70f678a5c3e8ee8d6983b736b6869164736f6c63430005100032",
  "source": "pragma solidity ^0.5.0;\npragma experimental ABIEncoderV2;\n\nimport { WeddingInvitationToken, WeddingWitnessToken } from \"./Tokens.sol\";\n\n\n/**\n * @title SmartWeddingContract\n * @dev The contract has both addresses of spouse1 and spouse2. It is capable of handling assets, funds and\n * divorce. A multisig variant is used to consider the decision of both parties.\n */\ncontract SmartWeddingContract {\n  event WrittenContractProposed(uint timestamp, string ipfsHash, address wallet);\n  event Signed(uint timestamp, address wallet);\n  event ContractSigned(uint timestamp);\n  event AssetProposed(uint timestamp, string asset, address wallet);\n  event AssetAddApproved(uint timestamp, string asset, address wallet);\n  event AssetAdded(uint timestamp, string asset);\n  event AssetRemoveApproved(uint timestamp, string asset, address wallet);\n  event AssetRemoved(uint timestamp, string asset);\n  event DivorceApproved(uint timestamp, address wallet);\n  event Divorced(uint timestamp);\n  event FundsSent(uint timestamp, address wallet, uint amount);\n  event FundsReceived(uint timestamp, address wallet, uint amount);\n  event GuestInvited(uint timestamp, address wallet, address from);\n  event GuestbookSignatureAdded(uint timestamp, address wallet, string name, string message);\n  event GuestAttended(uint timestamp, address wallet);\n\n  bool public signed = false;\n  bool public divorced = false;\n\n  address[] invitationList;\n\n  WeddingInvitationToken invitationToken = new WeddingInvitationToken();\n  WeddingWitnessToken witnessToken = new WeddingWitnessToken();\n\n  mapping (address => bool) private hasSigned;\n  mapping (address => bool) private hasDivorced;\n  mapping (address => bool) private isInvited;\n  mapping (address => bool) private hasAttended;\n\n  address payable public spouse1Address;\n  address payable public spouse2Address;\n  string public writtenContractIpfsHash;\n\n  struct Asset {\n    string data;\n    uint spouse1Allocation;\n    uint spouse2Allocation;\n    bool added;\n    bool removed;\n    mapping (address => bool) hasApprovedAdd;\n    mapping (address => bool) hasApprovedRemove;\n  }\n\n  Asset[] public assets;\n\n  struct GuestBookEntry {\n    address sender;\n    string name;\n    string message;\n  }\n\n  GuestBookEntry[] guestBook;\n\n  /**\n   * @dev Modifier that only allows invited member execution.\n    */\n  modifier invited() {\n    require(isInvited[msg.sender], \"Sender is not invited!\");\n    _;\n  }\n\n  /**\n   * @dev Modifier that only allows spouse execution.\n    */\n  modifier onlySpouse() {\n    require(msg.sender == spouse1Address || msg.sender == spouse2Address, \"Sender is not a spouse!\");\n    _;\n  }\n\n  /**\n   * @dev Modifier that checks if the contract has been signed by both spouses.\n    */\n  modifier isSigned() {\n    require(signed == true, \"Contract has not been signed by both spouses yet!\");\n    _;\n  }\n\n  /**\n   * @dev Modifier that only allows execution if the spouses have not been divorced.\n    */\n  modifier isNotDivorced() {\n    require(divorced == false, \"Can not be called after spouses agreed to divorce!\");\n    _;\n  }\n\n  /**\n   * @dev Private helper function to check if a string is not equal to another.\n   */\n  function isNotSameString(string memory string1, string memory string2) private pure returns (bool) {\n    return keccak256(abi.encodePacked(string1)) != keccak256(abi.encodePacked(string2));\n  }\n\n  /**\n   * @dev Constructor: Set the wallet addresses of both spouses.\n   * @param _spouse1Address Wallet address of spouse1.\n   * @param _spouse2Address Wallet address of spouse2.\n   */\n  constructor(address payable _spouse1Address, address payable _spouse2Address) public {\n    require(_spouse1Address != address(0), \"Spouse1 address must not be zero!\");\n    require(_spouse2Address != address(0), \"Spouse2 address must not be zero!\");\n    require(_spouse1Address != _spouse2Address, \"Spouse1 address must not equal Spouse2 address!\");\n\n    spouse1Address = _spouse1Address;\n    spouse2Address = _spouse2Address;\n\n    isInvited[spouse1Address] = true;\n    invitationList.push(spouse1Address);\n    isInvited[spouse2Address] = true;\n    invitationList.push(spouse2Address);\n  }\n\n  /**\n   * @dev Default function to enable the contract to receive funds.\n   */\n  function() external payable isSigned isNotDivorced {\n    emit FundsReceived(now, msg.sender, msg.value);\n  }\n\n  function getBalance() external view returns (uint) {\n    return address(this).balance;\n  }\n\n  /**\n   * @dev Invite someone to your wedding\n   */\n  function sendInvitation(address payable _to) public onlySpouse {\n    require(!isInvited[_to], \"Person has already been invited!\");\n    if (invitationToken.balanceOf(address(this)) > 0) {\n      invitationToken.transfer(_to, 1);\n      isInvited[_to] = true;\n      invitationList.push(_to);\n      emit GuestInvited(now, _to, msg.sender);\n    }\n  }\n\n  /**\n   * @dev Get address to InvitationToken\n   */\n  function getInvitationTokenAddress() public view returns (address) {\n    return address(invitationToken);\n  }\n\n  /**\n   * @dev Get address to WitnessToken\n   */\n  function getWitnessTokenAddress() public view returns (address) {\n    return address(witnessToken);\n  }\n\n  /**\n   * @dev Sign the guest book\n   */\n  function signGuestBook(string memory name, string memory message) public invited {\n    GuestBookEntry memory entry = GuestBookEntry({\n      sender: msg.sender,\n      name: name,\n      message: message\n    });\n    guestBook.push(entry);\n    emit GuestbookSignatureAdded(now, msg.sender, name, message);\n  }\n\n  /**\n   * @dev Get guest book entries\n   */\n  function getGuestBookEntries() public view returns (GuestBookEntry[] memory) {\n    return guestBook;\n  }\n\n  /**\n   * @dev Propose a written contract (update).\n   * @param _writtenContractIpfsHash IPFS hash of the written contract PDF.\n   */\n  function proposeWrittenContract(string calldata _writtenContractIpfsHash) external onlySpouse isNotDivorced {\n    require(signed == false, \"Written contract ipfs hash can not be changed. Both spouses have already signed it!\");\n\n    // Update written contract ipfs hash\n    writtenContractIpfsHash = _writtenContractIpfsHash;\n\n    emit WrittenContractProposed(now, _writtenContractIpfsHash, msg.sender);\n\n    // Revoke previous signatures\n    if (hasSigned[spouse1Address] == true) {\n      hasSigned[spouse1Address] = false;\n    }\n    if (hasSigned[spouse2Address] == true) {\n      hasSigned[spouse2Address] = false;\n    }\n  }\n\n  /**\n   * @dev Sign the contract.\n   */\n  function signContract() external onlySpouse {\n    require(isNotSameString(writtenContractIpfsHash, \"\"), \"Written contract ipfs hash has been proposed yet!\");\n    require(hasSigned[msg.sender] == false, \"Spouse has already signed the contract!\");\n\n    // Sender signed\n    hasSigned[msg.sender] = true;\n\n    emit Signed(now, msg.sender);\n\n    // Check if both spouses have signed\n    if (hasSigned[spouse1Address] && hasSigned[spouse2Address]) {\n      signed = true;\n      for (uint i = 0; i < invitationList.length; i++) {\n        if (witnessToken.balanceOf(address(this)) > 0) {\n         witnessToken.transfer(invitationList[i], 1);\n        }\n      }\n      emit ContractSigned(now);\n    }\n  }\n\n  /**\n   * @dev Send ETH to a target address.\n   * @param _to Destination wallet address.\n   * @param _amount Amount of ETH to send.\n   */\n  function pay(address payable _to, uint _amount) external onlySpouse isSigned isNotDivorced {\n    require(_to != address(0), \"Sending funds to address zero is prohibited!\");\n    require(_amount <= address(this).balance, \"Not enough balance available!\");\n\n    // Send funds to the destination address\n    _to.transfer(_amount);\n\n    emit FundsSent(now, _to, _amount);\n  }\n\n  /**\n   * @dev Propose an asset to add. The other spouse needs to approve this action.\n   * @param _data The asset represented as a string.\n   * @param _spouse1Allocation Allocation of spouse1.\n   * @param _spouse2Allocation Allocation of spouse2.\n   */\n  function proposeAsset(string calldata _data, uint _spouse1Allocation, uint _spouse2Allocation) external onlySpouse isSigned isNotDivorced {\n    require(isNotSameString(_data, \"\"), \"No asset data provided!\");\n    require(_spouse1Allocation >= 0, \"spouse1 allocation invalid!\");\n    require(_spouse2Allocation >= 0, \"spouse2 allocation invalid!\");\n    require((_spouse1Allocation + _spouse2Allocation) == 100, \"Total allocation must be equal to 100%!\");\n\n    // Add new asset\n    Asset memory newAsset = Asset({\n      data: _data,\n      spouse1Allocation: _spouse1Allocation,\n      spouse2Allocation: _spouse2Allocation,\n      added: false,\n      removed: false\n    });\n    uint newAssetId = assets.push(newAsset);\n\n    emit AssetProposed(now, _data, msg.sender);\n\n    // Map to a storage object (otherwise mappings could not be accessed)\n    Asset storage asset = assets[newAssetId - 1];\n\n    // Instantly approve it by the sender\n    asset.hasApprovedAdd[msg.sender] = true;\n\n    emit AssetAddApproved(now, _data, msg.sender);\n  }\n\n  /**\n   * @dev Approve the addition of a prior proposed asset. The other spouse needs to approve this action.\n   * @param _assetId The id of the asset that should be approved.\n   */\n  function approveAsset(uint _assetId) external onlySpouse isSigned isNotDivorced {\n    require(_assetId > 0 && _assetId <= assets.length, \"Invalid asset id!\");\n\n    Asset storage asset = assets[_assetId - 1];\n\n    require(asset.added == false, \"Asset has already been added!\");\n    require(asset.removed == false, \"Asset has already been removed!\");\n    require(asset.hasApprovedAdd[msg.sender] == false, \"Asset has already approved by sender!\");\n\n    // Sender approved\n    asset.hasApprovedAdd[msg.sender] = true;\n\n    emit AssetAddApproved(now, asset.data, msg.sender);\n\n    // Check if both spouses have approved\n    if (asset.hasApprovedAdd[spouse1Address] && asset.hasApprovedAdd[spouse2Address]) {\n      asset.added = true;\n      emit AssetAdded(now, asset.data);\n    }\n  }\n\n  /**\n   * @dev Approve the removal of a prior proposed/already added asset. The other spouse needs to approve this action.\n   * @param _assetId The id of the asset that should be removed.\n   */\n  function removeAsset(uint _assetId) external onlySpouse isSigned isNotDivorced {\n    require(_assetId > 0 && _assetId <= assets.length, \"Invalid asset id!\");\n\n    Asset storage asset = assets[_assetId - 1];\n\n    require(asset.added, \"Asset has not been added yet!\");\n    require(asset.removed == false, \"Asset has already been removed!\");\n    require(asset.hasApprovedRemove[msg.sender] == false, \"Removing the asset has already been approved by the sender!\");\n\n    // Approve removal by the sender\n    asset.hasApprovedRemove[msg.sender] = true;\n\n    emit AssetRemoveApproved(now, asset.data, msg.sender);\n\n    // Check if both spouses have approved the removal of the asset\n    if (asset.hasApprovedRemove[spouse1Address] && asset.hasApprovedRemove[spouse2Address]) {\n      asset.removed = true;\n      emit AssetRemoved(now, asset.data);\n    }\n  }\n\n  /**\n   * @dev Request to divorce. The other spouse needs to approve this action.\n   */\n  function divorce() external onlySpouse isSigned isNotDivorced {\n    require(hasDivorced[msg.sender] == false, \"Sender has already approved to divorce!\");\n\n    // Sender approved\n    hasDivorced[msg.sender] = true;\n\n    emit DivorceApproved(now, msg.sender);\n\n    // Check if both spouses have approved to divorce\n    if (hasDivorced[spouse1Address] && hasDivorced[spouse2Address]) {\n      divorced = true;\n      emit Divorced(now);\n\n      // Get the contracts balance\n      uint balance = address(this).balance;\n\n      // Split the remaining balance half-half\n      if (balance != 0) {\n        // Ignore any remainder due to low value\n        uint balancePerSpouse = balance / 2;\n\n        // Send transfer to spouse1\n        spouse1Address.transfer(balancePerSpouse);\n        emit FundsSent(now, spouse1Address, balancePerSpouse);\n\n        // Send transfer to spouse2\n        spouse2Address.transfer(balancePerSpouse);\n        emit FundsSent(now, spouse2Address, balancePerSpouse);\n      }\n    }\n  }\n\n  /**\n   * @dev Return whether asset has been approved by sender.\n   */\n  function assetIsApproved(uint _assetId) external onlySpouse view returns (bool) {\n    require(_assetId > 0 && _assetId <= assets.length, \"Invalid asset id!\");\n    Asset storage asset = assets[_assetId - 1];\n    return asset.hasApprovedAdd[msg.sender];\n  }\n\n  /**\n   * @dev Return whether asset has been removed by sender.\n   */\n  function assetIsRemoved(uint _assetId) external onlySpouse view returns (bool) {\n    require(_assetId > 0 && _assetId <= assets.length, \"Invalid asset id!\");\n    Asset storage asset = assets[_assetId - 1];\n    return asset.hasApprovedRemove[msg.sender];\n  }\n\n  /**\n   * @dev Return a list of all asset ids.\n   */\n  function getAssetIds() external view returns (uint[] memory) {\n    uint assetCount = assets.length;\n    uint[] memory assetIds = new uint[](assetCount);\n\n    // Get all asset ids\n    for (uint i = 1; i <= assetCount; i++) { assetIds[i - 1] = i; }\n\n    return assetIds;\n  }\n}\n",
  "sourcePath": "/home/ford/dev/rwscarb/wedding/contracts/SmartWeddingContract.sol",
  "compiler": {
    "name": "solc",
    "version": "0.5.16+commit.9c3226ce.Emscripten.clang"
  },
  "schemaVersion": "3.3.4",
  "updatedAt": "2021-03-25T03:22:24.720Z",
  "networkType": "ethereum",
  "devdoc": {
    "details": "The contract has both addresses of spouse1 and spouse2. It is capable of handling assets, funds and divorce. A multisig variant is used to consider the decision of both parties.",
    "methods": {
      "approveAsset(uint256)": {
        "details": "Approve the addition of a prior proposed asset. The other spouse needs to approve this action.",
        "params": {
          "_assetId": "The id of the asset that should be approved."
        }
      },
      "assetIsApproved(uint256)": {
        "details": "Return whether asset has been approved by sender."
      },
      "assetIsRemoved(uint256)": {
        "details": "Return whether asset has been removed by sender."
      },
      "constructor": {
        "details": "Constructor: Set the wallet addresses of both spouses.",
        "params": {
          "_spouse1Address": "Wallet address of spouse1.",
          "_spouse2Address": "Wallet address of spouse2."
        }
      },
      "divorce()": {
        "details": "Request to divorce. The other spouse needs to approve this action."
      },
      "getAssetIds()": {
        "details": "Return a list of all asset ids."
      },
      "getGuestBookEntries()": {
        "details": "Get guest book entries"
      },
      "getInvitationTokenAddress()": {
        "details": "Get address to InvitationToken"
      },
      "getWitnessTokenAddress()": {
        "details": "Get address to WitnessToken"
      },
      "pay(address,uint256)": {
        "details": "Send ETH to a target address.",
        "params": {
          "_amount": "Amount of ETH to send.",
          "_to": "Destination wallet address."
        }
      },
      "proposeAsset(string,uint256,uint256)": {
        "details": "Propose an asset to add. The other spouse needs to approve this action.",
        "params": {
          "_data": "The asset represented as a string.",
          "_spouse1Allocation": "Allocation of spouse1.",
          "_spouse2Allocation": "Allocation of spouse2."
        }
      },
      "proposeWrittenContract(string)": {
        "details": "Propose a written contract (update).",
        "params": {
          "_writtenContractIpfsHash": "IPFS hash of the written contract PDF."
        }
      },
      "removeAsset(uint256)": {
        "details": "Approve the removal of a prior proposed/already added asset. The other spouse needs to approve this action.",
        "params": {
          "_assetId": "The id of the asset that should be removed."
        }
      },
      "sendInvitation(address)": {
        "details": "Invite someone to your wedding"
      },
      "signContract()": {
        "details": "Sign the contract."
      },
      "signGuestBook(string,string)": {
        "details": "Sign the guest book"
      }
    },
    "title": "SmartWeddingContract"
  },
  "userdoc": {
    "methods": {}
  }
}